:020000040800F2
:10000000880D0020C1010008F9140008CD02000885
:10001000F5140008DF0200080521000800000000B8
:100020000000000000000000000000004918000867
:100030005903000800000000FB1400084D180008D8
:10004000DB010008DB010008DB010008DB01000820
:10005000DB010008DB010008DB010008DB01000810
:10006000DB010008DB010008DB010008DB01000800
:10007000DB010008DB010008DB010008DB010008F0
:10008000DB010008DB010008DB010008DB010008E0
:10009000DB010008DB010008DB010008DB010008D0
:1000A000DB010008DB010008DB010008DB010008C0
:1000B000391A0008DB010008DB010008DB01000839
:1000C000DB010008DB010008DB010008DB010008A0
:1000D000DB0100082D1F0008DB010008DB01000820
:1000E000DB010008DB010008DB010008DB01000880
:1000F000DB010008DB010008DB010008DB01000870
:10010000DB010008DB010008DB010008DB0100085F
:10011000DB010008DB010008DB010008DB0100084F
:10012000DB010008DB010008DB010008DB0100083F
:10013000DB010008DB010008DB010008DB0100082F
:10014000DB010008DB010008DB010008DB0100081F
:10015000DB010008DB010008DB010008DB0100080F
:10016000DB010008DB010008DB010008DB010008FF
:10017000DB010008DB010008DB01000800000000D3
:10018000DB010008DB010008DB010008DB010008DF
:10019000DB010008DB010008DB010008DB010008CF
:1001A000DB010008DB010008DB010008DFF80CD0F0
:1001B00000F07AF800480047E92C0008880D00207C
:1001C0000648804706480047FEE7FEE7FEE7FEE7F1
:1001D000FEE7FEE7FEE7FEE7FEE7FEE7D5190008CB
:1001E000AD0100082DE9F05F0546002092469B46D0
:1001F00088460646814640241BE02846414647463D
:10020000224600F041F853465A46C01A914110D395
:1002100011461846224600F028F82D1A67EB01080F
:100220004F4622460120002100F01FF817EB00097D
:100230004E41201EA4F10104DFDC484631462A4627
:100240004346BDE8F09FD2B201E000F8012B491E01
:10025000FBD270470022F6E710B513460A46044663
:100260001946FFF7F0FF204610BD202A04DB203A94
:1002700000FA02F1002070479140C2F1200320FAF9
:1002800003F3194390407047202A04DB203A21FAF7
:1002900002F00021704721FA02F3D040C2F120029F
:1002A0009140084319467047064C074D06E0E06848
:1002B00040F0010394E8070098471034AC42F6D3AD
:1002C000FFF778FFD82D0008F82D00081EF0040F66
:1002D0000CBFEFF30880EFF3098000F0BFBF00BF51
:1002E000FEE7000010B504460CB9124810BD012C01
:1002F00001D10020FAE7022C01D10020F6E7032CFF
:1003000001D10020F2E7042C01D10020EEE7052CFA
:1003100001D10020EAE7062C01D10020E6E7072CF6
:1003200001D10020E2E74FF48E7103A000F015F830
:100330000020DBE71C0100202E2E5C557365725CEB
:100340006273705C7372635C6273705F7561727408
:100350005F6669666F2E6300704701B9704700BF22
:10036000FEE7000070B504461D460023B5F5804F3A
:1003700013D154F822300C480340D1E9000640EA7A
:1003800006108E6840EA06208E8940EA06408E6993
:100390003043034344F8223003E06FF0704044F8E8
:1003A0002200002070BD00000000F0CF10B5024612
:1003B0000023086852F8203018480340D1E90104AE
:1003C0002043CC6820430C6920434C6920438C694E
:1003D0002043CC6920430C6A20434C6A20438C6A3A
:1003E0002043CC6A2043CC6B20430C6B20434C6BE6
:1003F000204303438868082801D143F0400308687C
:1004000042F82030486BB0F5801F05D1086818B15C
:1004100010684C6B20431060002010BD8000E0FF8E
:1004200030B5034614460022601C53F8202002F029
:100430004042D1E9000540EA05108D6840EA0520F8
:100440008D8940EA0545088A401E45EA0055087D29
:10045000801E45EA00608D6928430243601C43F812
:100460002020186800F48010B0F5801F07D158686C
:1004700020F47002088A401E42EA00525A600020AE
:1004800030BD000001200149086070470004274288
:10049000F8B502460B460025002400200021E6E0C6
:1004A000012606FA01F51E6806EA0504AC4273D17E
:1004B0005E68022E02D05E68122E13D1CF0802F1C0
:1004C000200656F827004E07F70E0F26BE40B04311
:1004D0004F07FF0E1E69BE403043CF0802F12006D1
:1004E00046F8270010684F000326BE40B0431E792F
:1004F00006F003064F00BE40304310605E68012ED8
:1005000008D05E68022E05D05E68112E02D05E68AB
:10051000122E13D190684F000326BE40B0434F0007
:10052000DE68BE4030439060506801268E40B04384
:100530001E79C6F300168E4030435060D0684F00DD
:100540000326BE40B0434F009E68BE403043D0609B
:100550005E6806F08056B6F1805FA8D100BF002625
:100560000096454E366846F48046434F3E603E4610
:10057000366806F48046009600BF00BF3F4E8F08E5
:1005800056F827008E07370F0F26BE40B0433C4E6B
:10059000B24202D100262EE068E03A4EB24201D1CA
:1005A000012628E0384EB24201D1022623E0374E20
:1005B000B24201D103261EE0354EB24201D10426DB
:1005C00019E0344EB24201D1052614E0324EB24257
:1005D00001D106260FE0314EB24201D107260AE0D2
:1005E0002F4EB24201D1082605E02E4EB24201D173
:1005F000092600E00A268F073F0FBE4030431F4EFA
:100600008F0846F82700284E3068A0435E6806F43D
:100610008036B6F5803F00D12043234E3060361D32
:100620003068A0435E6806F40036B6F5003F00D19E
:1006300020431D4E361D3060361D3068A0435E6875
:1006400006F48016B6F5801F00D12043164E0836FA
:100650003060361D3068A0435E6806F40016B6F5BB
:10066000001F00D12043104E0C363060491C102969
:10067000FFF416AFF8BD00004438024008380140CE
:10068000000002400004024000080240000C02404A
:10069000001002400014024000180240001C0240FA
:1006A0000020024000240240003C01400148006854
:1006B00070470000240000200348006803490978BF
:1006C0000844014908607047240000202C000020E5
:1006D00010B50D48006840F400700B4908600846EA
:1006E000006840F4806008600846006840F480704C
:1006F0000860032000F080F80F2000F007F800F0F9
:100700002BF8002010BD0000003C024070B50446EC
:100710000E4800784FF47A71B1FBF0F00C4909688B
:10072000B1FBF0F5284600F00AFC08B1012070BDCD
:10073000102C07D200222146501E00F01EF805485A
:10074000046001E00120F2E70020F0E72C00002027
:10075000300000202800002070470146084600288D
:1007600009DB00F01F0301229A4043099B0003F1BB
:10077000E023C3F8002100BF70472DE9F05F8046F9
:100780000D461646002701F0CFFC074639462A469B
:10079000334601F00700C0F1070ABAF1040F02D98D
:1007A0004FF0040A01E0C0F1070AD14600F1040A43
:1007B000BAF1070F02D24FF0000A01E0A0F1030ADC
:1007C000D4464FF0010A0AFA09FAAAF1010A0AEA24
:1007D000020A0AFA0CFA4FF0010B0BFA0CFBABF110
:1007E000010B0BEA030B4AEA0B042146404601F0D9
:1007F000A3FCBDE8F09F000000BF00F00702064B1D
:1008000019684FF6FF031940044B0B4343EA0221DA
:10081000014B196000BF70470CED00E00000FA05C5
:1008200070B504460D460CB9012070BD58480068EB
:1008300000F00F00A84209D255490D700846006823
:1008400000F00F00A84201D00120EEE7207800F070
:10085000020002281DD1207800F00400042805D1F0
:100860004C48006840F4E0504A490860207800F0A5
:100870000800082805D14748006840F46040454911
:1008800008604448006820F0F000A168084341492E
:100890000860207800F00100A8B36068012807D143
:1008A0003C4808380068C0F34040B8B90120BCE7B4
:1008B0006068022802D06068032807D135480838EC
:1008C0000068C0F3406048B90120AEE731480838FD
:1008D0000068C0F3400008B90120A6E72D48006871
:1008E00020F00300616808432A490860FFF7DEFE34
:1008F000064609E0FFF7DAFE801B41F288318842A4
:1009000002D9032091E707E02248006800F00C00BC
:100910006168B0EB810FEDD11D48006800F00F0059
:10092000A84209D91A490D700846006800F00F0066
:10093000A84201D0012078E7207800F004000428C4
:1009400007D11448006820F4E050E16808431149D9
:100950000860207800F00800082808D10D480068D9
:1009600020F46040216940EAC1000A49086000F0B3
:100970003DF808490968C1F30311074A515CC840B2
:10098000064908600F20FFF7C1FE00204DE7000078
:10099000003C024008380240C02D00083000002012
:1009A00001480068704700003000002000B5FFF7E4
:1009B000F7FF04490968C1F38221034A515CC8402A
:1009C00000BD000008380240D02D000800B5FFF738
:1009D000E7FF04490968C1F34231034A515CC8404A
:1009E00000BD000008380240D02D00082DE9F04776
:1009F000002400250026A1462548006800F00C00D0
:100A000020B1042805D008283AD105E0DFF8849009
:100A100039E0DFF8849036E01D48001F006800F0E0
:100A20003F041B48001F006800F4800078B11A489A
:100A30001749091F0968C1F38811A0FB017001461D
:100A4000224600233846FFF7CDFB05460EE011484D
:100A50000F49091F0968C1F38811A0FB0170014605
:100A6000224600233846FFF7BDFB05460848001F15
:100A70000068C0F30140401C4600B5FBF6F902E0F7
:100A8000DFF8109000BF00BF4846BDE8F0870000C7
:100A9000083802400024F40000127A00F8B5044639
:100AA0000CB90120F8BD207800F00100002874D0B6
:100AB000F948006800F00C0004280DD0F6480068E2
:100AC00000F00C00082813D1F348001F006800F460
:100AD0008000B0F5800F0BD1EF4808380068C0F3F4
:100AE0004040002859D06068002856D10120D9E73D
:100AF00000BF6068B0F5803F08D1E748083800685B
:100B000040F48030E449083908601EE06068B0F5C0
:100B1000A02F0DD1E0480838006840F48020DE495D
:100B2000083908600846006840F4803008600CE02E
:100B3000D9480838006820F48030D749083908605F
:100B40000846006820F48020086000BF606890B10B
:100B5000FFF7ACFD054606E0FFF7A8FD401B642843
:100B600001D903209EE7CC4808380068C0F3404014
:100B70000028F1D011E0FFF799FD054606E0FFF7E8
:100B800095FD401B642801D903208BE7C248083833
:100B90000068C0F340400028F1D1207800F0020046
:100BA00002285FD1BC48006800F00C0058B1BA4878
:100BB000006800F00C0008281CD1B748001F00682E
:100BC00000F48000B0B9B44808380068C0F34000B1
:100BD00020B1E068012801D0012063E7AE48083861
:100BE000006820F0F800216940EAC100AA490839EC
:100BF000086037E0E06800B30120A8490860FFF70B
:100C000055FD054606E0FFF751FD401B022801D9BE
:100C1000032047E7A04808380068C0F340000028D8
:100C2000F1D09D480838006820F0F800216940EABA
:100C3000C10099490839086014E00020974908600C
:100C4000FFF734FD054606E0FFF730FD401B0228A4
:100C500001D9032026E7904808380068C0F3400017
:100C60000028F1D1207800F0080008282CD1606914
:100C7000A8B101208A490860FFF718FD054606E083
:100C8000FFF714FD401B022801D903200AE7824820
:100C90006C300068C0F340000028F1D014E0002060
:100CA0007F490860FFF702FD054606E0FFF7FEFCFE
:100CB000401B022801D90320F4E677486C30006815
:100CC000C0F340000028F1D1207800F0040004288F
:100CD00070D1002670483830006800F0805090B91C
:100CE00000BF002000906C483830006840F0805011
:100CF0006949383108600846006800F0805000906B
:100D000000BF00BF01266748006800F48070B0B9DA
:100D10006448006840F4807062490860FFF7C6FCD0
:100D2000054606E0FFF7C2FC401B022801D903205C
:100D3000B8E65C48006800F480700028F2D000BF7C
:100D4000A068012808D154486830006840F00100CC
:100D50005149683108601DE0A06805280DD14E4852
:100D60006830006840F004004B496831086008466C
:100D7000006840F0010008600CE0474868300068F7
:100D800020F001004449683108600846006820F0FE
:100D90000400086000BFA068A8B1FFF787FC054603
:100DA00009E0FFF783FC401B41F28831884202D9F9
:100DB000032077E626E0384868300068C0F340003A
:100DC0000028EED013E0FFF771FC054608E0FFF7BE
:100DD0006DFC401B41F28831884201D9032061E655
:100DE0002D4868300068C0F340000028EFD1012E84
:100DF00007D129483830006820F080502649383122
:100E0000086000BFA069B8B32348006800F00C0078
:100E100008285ED0A069022846D100201F49086634
:100E2000FFF744FC054606E0FFF740FC401B0228A4
:100E300001D9032036E6184808380068C0F340603E
:100E40000028F1D1D4E907010843616A40EA811121
:100E50000122A06AC2EB500041EA00412C20005D53
:100E600041EA00600C49091F086001200B4908662F
:100E7000FFF71CFC054607E02DE0FFF717FC401BC1
:100E8000022801D903200DE6034808380068C0F3A2
:100E900040600028F1D01EE00838024000004742C0
:100EA000800E47420070004000200C490866FFF7A2
:100EB000FDFB054606E0FFF7F9FB401B022801D9C0
:100EC0000320EFE506480068C0F340600028F2D137
:100ED00001E00120E6E50020E4E5000000004742D3
:100EE0000038024070B504460E4615460CB9012084
:100EF00070BD94F8490028B9002084F848002046C5
:100F000000F01CF804F108012068FFF74FFA3146A1
:100F1000A2682068FFF784FA2946236BD4E901020E
:100F2000FFF720FAA168206850F8210040F0010086
:100F3000A268216841F822000020D9E7704770B507
:100F400004462546681EB0F1807F01D301200FE0E2
:100F5000681E4FF0E02148610F214FF0FF3001F093
:100F6000EBF800204FF0E0218861072008610020A5
:100F700070BD10B504460CB9012010BD94F83D00B9
:100F800028B9002084F83C00204600F00CF802202C
:100F900084F83D00211D206800F0A8FD012084F8A0
:100FA0003D000020E9E770470146022081F83D003E
:100FB0000868806800F00702062A05D00868006803
:100FC00040F001000B681860012081F83D0000200E
:100FD000704710B504460CB9012010BDA06900B1DE
:100FE00000E000BF94F8390028B9002084F83800E8
:100FF000204600F027F8242084F839002068C068D3
:1010000020F400502168C860204600F0DBFD206815
:10101000006920F49040216808612068406920F050
:101020002A00216848612068C06840F400502168A7
:10103000C8600020E063202084F8390084F83A007A
:101040000020CAE77047000000B59BB0502107A8F8
:10105000FFF700F91C216846FFF7FCF84FF020402D
:101060000790174808900320009000200190062068
:1010700002900020039004900590069002200990B1
:1010800000210A910B9120210C9100210D910E91CC
:101090001091C10211910021129113911491159197
:1010A000169117916A46694607A8FFF71BFF20B102
:1010B00040F2211103A0FFF750F91BB000BD000062
:1010C000040100A02E2E5C557365725C6273705C27
:1010D0007372635C6273705F666D635F696F2E63CA
:1010E0000000000000B587B000BF00200190444818
:1010F000006840F00800424908600846006800F0B7
:101100000800019000BF00BF00BF0020019008460A
:10111000006840F0100008600846006800F0100009
:10112000019000BF00BF00BF00200190084600688A
:1011300040F0400008600846006800F04000019060
:1011400000BF00BF00BF002001900846006840F0CB
:10115000800008600846006800F08000019000BF31
:1011600000BF00BF002001900846006840F4807076
:1011700008600846006800F48070019000BF00BF5E
:1011800000BF002001901E480830006840F00100B8
:101190001B49083108600846006800F00100019012
:1011A00000BF00BF0220039001200490032005909F
:1011B0000C2006904CF23370029002A91148FFF700
:1011C00067F94FF68070029002A90F48FFF760F9A7
:1011D00040F20320029002A90C48FFF759F94FF49E
:1011E0007F40029002A90A48FFF752F940F2CF600F
:1011F000029002A90748FFF74BF907B000BD0000B5
:1012000030380240000C024000100240001802403A
:10121000001C0240002002400146044800680840CB
:1012200008B1012070470020FCE70000000000200A
:1012300029B9084A12688243064B1A6004E0054A3D
:1012400012680243034B1A60024A1268024B1A608A
:1012500070470000000000200010006410B5324903
:10126000096801F0004149B12F49096841F0004186
:101270002D4A11608169891C816110BD2A49083994
:1012800009682A4A11622849091F097882F824103E
:101290002549C91E0978916223490C310968D16238
:1012A0002149891E098811861F49096851631E4911
:1012B000091D096891631C4910310968D1631CA29A
:1012C00000210BE0535C254C636000BF234B1B687F
:1012D00003F04003002BF9D04B1CD9B22929F1D3DC
:1012E00000211F4A116000BF1D4909680029FBD079
:1012F0000E4A016811604168516081689160C1685F
:10130000D160016911614169516181699161C1696E
:10131000D1610021124A116000BF114909680029FA
:10132000FBD000BFA9E700002CED00E04809002039
:101330000D0A456E74657220486172644661756C71
:10134000745F48616E646C65722C205379737465A8
:101350006D2048616C742E0D0A00000000100140E1
:101360003400002000B587B000BF00200190334852
:10137000006840F00100314908600846006800F04C
:101380000100019000BF00BF00BF0020019008468F
:10139000006840F0010008600846006800F00100A5
:1013A000019000BF00BF00BF00200190234814300F
:1013B000006840F0100021491431086008460068B8
:1013C00000F01000019000BF00BF481502900220FD
:1013D000039001200490032005900720069002A9A5
:1013E0001748FFF755F84FF48060029007200690E9
:1013F00002A91348FFF74CF8012200212520FFF72E
:10140000BCF92520FFF7A9F90C2300224FF4E131A4
:101410000C4801F0BDFB0B48006820F04000094972
:1014200008600846006820F0200008600846C06890
:1014300040F02000C86007B000BD00003038024016
:1014400000000240001001402DE9F0410446082C44
:1014500017DA0026FF27002508E0284600F030F8BC
:1014600010B1701CC6B22F46681CC5B2082DF4DB43
:10147000012E04D1A74202D10120BDE8F081002055
:10148000FBE7082C0BD1002000F01AF828B101204E
:1014900000F016F808B10120EFE70020EDE7092C75
:1014A0000BD1012000F00CF828B1022000F008F860
:1014B00008B10120E1E70020DFE70020DDE70000C0
:1014C00001460B4850F831000069094B03EBC1039A
:1014D0009B88184008B9002200E00122044800EB74
:1014E000C1008079904201D1012070470020FCE7C3
:1014F000502D000800BFFEE77047704710B505A0EB
:1015000000F002FE06A000F0FFFD14A000F0FCFDBC
:1015100010BD0000B2D9D7F7CCE1CABE3A0D0A001F
:10152000312E20C6F4B6AFD2BBB8F6D7D4B6AFD6FC
:10153000D8D7B0C8EDBCFEB6A8CAB1C6F7A3ACC335
:10154000BF3130306D73B7ADD7AAD2BBB4CE4C45E6
:101550004431BACD4C4544320D0A0000322E20D41D
:10156000D9C6F4B6AFD2BBB8F6D7D4B6AFD6D8D7B3
:10157000B0C8EDBCFEB6A8CAB1C6F7A3ACC3BF35B0
:1015800030306D73B7ADD7AAD2BBB4CE4C4544331F
:10159000BACD4C4544340D0A000000002DE9F0415D
:1015A00023A000F0B1FD32480468001D0568001D4D
:1015B0000668304800683049B0FBF1F739462FA083
:1015C00000F0A2FD23462A46314638A000F09CFDDB
:1015D0003BA000F099FD16A000F096FD39A13CA0BB
:1015E00000F092FD3FA140A000F08EFD43A146A077
:1015F00000F08AFD49A000F087FD54A000F084FDB2
:1016000054A000F081FD59A000F07EFD5CA000F028
:101610007BFD62A000F078FD67A000F075FD6EA074
:1016200000F072FD02A000F06FFDBDE8F081000047
:101630002A2A2A2A2A2A2A2A2A2A2A2A2A2A2A2A0A
:101640002A2A2A2A2A2A2A2A2A2A2A2A2A2A2A2AFA
:101650002A2A2A2A2A2A2A2A2A2A2A2A2A2A2A2AEA
:101660002A2A2A2A2A2A2A2A2A2A2A2A2A0A0D0041
:10167000107AFF1F3000002040420F000D0A435037
:1016800055203A2053544D3332463432394249546E
:10169000362C204C5146503230382C20D6F7C6B567
:1016A0003A2025644D487A0D0A000000554944202F
:1016B0003D202530385820253038582025303858DE
:1016C0000A0D000056362DC5DCC2EDB5C60000007F
:1016D0002A20C0FDB3CCC3FBB3C62020203A20256E
:1016E000730D0A00312E30002A20C0FDB3CCB0E6C5
:1016F000B1BE2020203A2025730D0A003230313946
:101700002D30342D323300002A20B7A2B2BCC8D508
:10171000C6DA2020203A2025730D0A002A204841ED
:101720004CBFE2B0E6B1BE20203A2056322E342E15
:1017300030202853544D3332463432392048414CFE
:1017400020447269766572290D0A00002A200D0A6C
:10175000000000002A205151202020203A20313260
:101760003935373434363330200D0A002A20CDFA8B
:10177000CDFA20203A2061726D666C790D0A000066
:101780002A20456D61696C203A2061726D666C7922
:101790004071712E636F6D200D0A00002A20CEA2C9
:1017A000D0C5B9ABD6DABAC53A2061726D666C792C
:1017B0005F636F6D200D0A002A20CCD4B1A6B5EA74
:1017C0003A2061726D666C792E74616F62616F2E62
:1017D000636F6D0D0A0000002A20436F70797269F3
:1017E000676874207777772E61726D666C792E63E7
:1017F0006F6D20B0B2B8BBC0B3B5E7D7D30D0A0048
:1018000000B587B000BF002001900D48006840F08F
:1018100002000B4908600846006800F002000190D1
:1018200000BF00BF0120039000200490032005901A
:101830000420029002A90348FEF72AFE07B000BD6B
:1018400030380240000402407047000010B5FEF737
:1018500033FF0448007800B910BD00F005F800BF60
:10186000FAE700002000002010B51B48006840B1D6
:1018700019480068401E1849086010B9012017492E
:101880000870002408E004EB4401154A02EB8100D3
:1018900001F0A8F9601CC4B2042CF4DB1148006804
:1018A000401C10490860084600686FF000418842FB
:1018B00002D100200B49086001F056F90A4800786F
:1018C000401CC0B2084908700A2803DB00200870D9
:1018D00001F046F910BD000014000020180000209F
:1018E000EC0000201C0000202100002000B593B077
:1018F00000BF002001903048006840F080502E4921
:1019000008600846006800F08050019000BF00BFEA
:1019100000BF002001902948006840F4404027495A
:1019200008600846006800F44040019000BF00BF16
:1019300001200290000403900220089041050991C3
:1019400008210A914FF4A8710B9102210C910421F6
:101950000D9102A8FFF7A2F818B1702118A0FEF7A8
:10196000FCFC0F200E9002200F90002010904FF4EE
:10197000A05011904FF48050129005210EA8FEF750
:101980004FFF18B183210EA0FEF7E7FC00BF002037
:1019900001900948001D006840F480400649091D77
:1019A00008600846006800F48040019000BF00BF56
:1019B000FEF768FD13B000BD4038024000700040E3
:1019C0002E2E5C557365725C6273705C6273702E50
:1019D000630000001448006840F470001249086079
:1019E0001248006840F001001049086000200F49CB
:1019F000083108600D4800680D4908400B4908602F
:101A00000C48091D0860081F006820F48020091F89
:101A10000860002005490C3108604FF00060024961
:101A2000803908607047000088ED00E0003802400F
:101A3000FFFFF6FE1030002470B5002500264FF0A1
:101A40008044206900F00205E06800F002065DB104
:101A500056B14FF6FD702061E0684FF6FD71084009
:101A6000E0601E4800688047206900F00405E068D7
:101A700000F004065DB156B14FF6FB702061E068DE
:101A80004FF6FB710840E060154800688047206908
:101A900000F00805E06800F008065DB156B14FF6A9
:101AA000F7702061E0684FF6F7710840E0600D487C
:101AB00000688047206900F01005E06800F010061B
:101AC0005DB156B14FF6EF702061E0684FF6EF71EF
:101AD0000840E06004480068804770BD04000020B2
:101AE000080000200C0000201000002010B5026843
:101AF000294B98420ED0B0F1804F0BD0274B984223
:101B000008D0274B984205D0264B984202D0264B4E
:101B1000984203D122F070024B681A431E4B984240
:101B200020D0B0F1804F1DD01C4B98421AD01C4BD6
:101B3000984217D01B4B984214D01B4B984211D09F
:101B40001A4B98420ED01A4B98420BD0194B984220
:101B500008D0194B984205D0184B984202D0184B28
:101B6000984203D122F44072CB681A4322F08003DA
:101B70004C6943EA040202608B68C3620B688362AB
:101B8000054B984202D0084B984201D10B69036380
:101B90000123436110BD000000000140000400402B
:101BA00000080040000C00400004014000400140DB
:101BB000004401400048014000180040001C004063
:101BC000002000402DE9F04104462068006920F41F
:101BD0004050E1680843216808612169A068084312
:101BE00061690843E16940EA01052068C06849F27B
:101BF0000C61884328432168C8602068406920F44C
:101C00004070A169084321684861E069B0F5004F60
:101C10007ED1C4492068884203D0C34920688842E5
:101C20005DD1FEF7D3FE00EBC00101EB001061684F
:101C30004900B0FBF1F06421B0FBF1F00601FEF7C2
:101C4000C5FE00EBC00101EB001061684900B0FB6C
:101C5000F1F7FEF7BBFE00EBC00101EB001061687D
:101C60004900B0FBF1F06421B0FBF1F000EBC001E2
:101C700001EB0010A7EB8000322101EBC0006421D2
:101C8000B0FBF1F000F0F80006EB4006FEF79EFE18
:101C900000EBC00101EB001061684900B0FBF1F7F7
:101CA000FEF794FE00EBC00101EB001061684900F3
:101CB000B0FBF1F06421B0FBF1F000EBC00101EBEF
:101CC0000010A7EB8000322101EBC0006421B0FBC3
:101CD000F1F000F0070030442168886020E1FEF751
:101CE00065FE00EBC00101EB001061684900B0FB2C
:101CF000F1F06421B0FBF1F00601FEF757FE00EBB6
:101D0000C00101EB001061684900B0FBF1F700E091
:101D100045E0FEF74BFE00EBC00101EB00106168EF
:101D20004900B0FBF1F06421B0FBF1F000EBC00121
:101D300001EB0010A7EB8000322101EBC000642111
:101D4000B0FBF1F000F0F80006EB4006FEF72EFEC7
:101D500000EBC00101EB001061684900B0FBF1F736
:101D6000FEF724FE00EBC00101EB001061684900A2
:101D7000B0FBF1F06421B0FBF1F000EBC00101EB2E
:101D80000010A7EB8000322101EBC0006421B0FB02
:101D9000F1F000F00700304421688860C0E061493C
:101DA0002068884203D06049206888425CD1FEF7F1
:101DB0000DFE00EBC00101EB001061688900B0FB73
:101DC000F1F6FEF703FE00EBC00101EB00106168C5
:101DD0008900B0FBF1F06421B0FBF1F000EBC00131
:101DE00001EB0010A6EB8000322101EB0010642112
:101DF000B0FBF1F000F0F006FEF7E8FD00EBC001EB
:101E000001EB001061688900B0FBF1F06421B0FBC8
:101E1000F1F006EB0016FEF7D9FD00EBC00101EB77
:101E2000001061688900B0FBF1F7FEF7CFFD00EB11
:101E3000C00101EB001061688900B0FBF1F0642182
:101E4000B0FBF1F000EBC00101EB0010A7EB80004C
:101E5000322101EB00106421B0FBF1F000F00F0023
:101E60003044216888605BE0FEF7A0FD00EBC00114
:101E700001EB001061688900B0FBF1F6FEF796FDFA
:101E800000EBC00101EB001061688900B0FBF1F0CC
:101E90006421B0FBF1F000EBC00101EB0010A6EBF8
:101EA0008000322101EB00106421B0FBF1F000F062
:101EB000F006FEF77BFD00EBC00101EB001061684E
:101EC0008900B0FBF1F06421B0FBF1F006EB0016E5
:101ED000FEF76CFD00EBC00101EB001061688900AA
:101EE000B0FBF1F7FEF762FD00EBC00101EB001063
:101EF00061688900B0FBF1F06421B0FBF1F000EB08
:101F0000C00101EB0010A7EB8000322101EB0010B3
:101F10006421B0FBF1F000F00F00304421688860CC
:101F2000BDE8F081001001400014014010B50248E6
:101F300000F004F810BD00001C0100202DE9F04164
:101F40000446206805682068C6682068D0F81480B8
:101F500005F02000D8B120684068C7B2E18AA068C7
:101F60004754E08A401C80B2E082E189884201DB6C
:101F70000020E082608BE189884202DA608B401C9D
:101F80006083606A10B13846616A884700BF05F017
:101F9000800028B306F0800010B3A08A60B92068E2
:101FA000C06820F080002168C8602068C06840F0E8
:101FB00040002168C86013E0012084F82800618A8D
:101FC0006068405C21684860608A401C80B2608222
:101FD000A189884201DB00206082A08A401EA08285
:101FE00005F0400018B306F0400000B3A08A68B9BD
:101FF0002068C06820F040002168C860206A08B1ED
:10200000206A8047002084F8280010E0618A606818
:10201000405C21684860608A401C80B26082A1896F
:10202000884201DB00206082A08A401EA082BDE8B9
:10203000F081F8B504460F461646002539E01EE04B
:10204000012000F09FF8A08A0090002000F09AF88C
:10205000A089BDF80010884200DD11E0A089BDF81C
:10206000001088420AD12068C06800F0800028B9BA
:102070002068C06840F080002168C86000BFDFE7CA
:1020800000BF785D228A61688854012000F07AF8E8
:10209000208A401C80B22082A189884201DB002076
:1020A0002082A08A401CA082002000F06BF8681CEF
:1020B00085B2B542C3DB2068C06840F0800021686B
:1020C000C860F8BD0B480C4908600C4848600C48D3
:1020D00088604FF480608881C8810020088248822F
:1020E000C882088348838882C8610862486281F890
:1020F00028007047001001401C010020480100200A
:102100004805002000BFFEE70FB4054B10B503A93A
:10211000044A029800F03AF810BC5DF814FB000085
:10212000D72C00083800002002480068C0F30220C5
:10213000704700000CED00E010B5002804DB0A0732
:10214000130E054A135406E00A07140E034A00F062
:102150000F031B1FD45410BD00E400E018ED00E095
:1021600002E008C8121F08C1002AFAD17047704760
:10217000002001E001C1121F002AFBD1704780F34B
:102180001088704780F31088704700002DE9FF4FDA
:102190008DB00F460546002606E025280BD0DDE968
:1021A0000F1290476D1C761C28780028F5D111B0CD
:1021B0003046BDE8F08F0024A246A1460122EC493A
:1021C00000E0044315F8013F203B02FA03F0084207
:1021D000F7D128782A2810D06FF02F022878A0F1A4
:1021E0003001092914D80AEB8A0102EB410144F0BD
:1021F000020400EB010A6D1CF0E701CF5FEA000A60
:1022000003D544F40054CAF1000A44F002046D1CE2
:1022100028782E2817D115F8010F44F004042A2835
:102220000ED06FF02F022878A0F1300109290AD8CA
:1022300009EB890102EB410100EB01096D1CF2E79A
:1022400057F8049B6D1C28786C280FD006DC4C28AE
:1022500017D068280DD06A2814D104E0742810D053
:102260007A280FD10DE044F400140AE044F48014FD
:1022700001E044F440146978814202D104F58014ED
:102280006D1C6D1C2A786E2A1FD00CDC632A31D09D
:1022900004DC002A8BD0582A11D1A3E0642A68D02C
:1022A000692A0CD165E0732A2ED004DC6F2A73D022
:1022B000702A04D19BE0752A6FD0782A6ED0104620
:1022C000DDE90F129047761C50E1C4F3025002285A
:1022D00006D0032809D0042801CF09D0066045E1C3
:1022E00001CFF117C0E9006140E101CF06803DE177
:1022F00006703BE117F8040B8DF8000000208DF804
:102300000100EB46012003E057F804BB4FF0FF301B
:1023100061074FF0000102D40DE008F10101884689
:1023200049450FDA8045F8DB1BF808100029F4D185
:1023300008E008F1010188468142FADB1BF8081029
:102340000029F6D1DDE90F23AAEB080081462146DA
:1023500000F036F9304400EB080604E0DDE90F1226
:102360001BF8010B9047B8F10108F7D22146484607
:10237000F7E00A21C4F302534FF0000B0891022B3F
:1023800004D001CFC117032B09D00AE0FF1D27F0AD
:102390000707F7E8020108E032E01FE020E000B2A2
:1023A000C117042B01D140B2C117031E71F1000304
:1023B00007DA4FF0000CD0EB0C006CEB01012D2381
:1023C00002E0230504D52B238DF82430012303E0FC
:1023D000E30701D02023F7E7984658E00A2110E0F0
:1023E00010210EE010204FF0000B08900CE010219F
:1023F0004FF0000B44F004044FF00809089103E08B
:1024000008214FF0000B0891C4F30253022B04D0B3
:1024100001CF0021032B06D006E0FF1D27F00707A0
:10242000F7E8020103E080B2042B00D1C0B24FF004
:10243000000823072BD5702A07D0DDF820C08CF0C8
:10244000100C5CEA0B0C05D00EE040238DF8243014
:10245000012308E050EA010306D030238DF8243030
:102460008DF8252002239846DDF820C08CF0080C5A
:102470005CEA0B0C0BD150EA010301D1630706D5CE
:1024800030238DF824304FF00108A9F10109582AB2
:1024900004D038A20B9208AA0A920BE03AA2F9E7FC
:1024A0005B46089AFDF79EFE0B9B9B5C0A9A521EA8
:1024B0000A92137050EA0102F2D10A98ADEB0000C3
:1024C00000F1200B600702D524F4803401E04FF0C6
:1024D0000109D94502DDA9EB0B0000E0002000EB6B
:1024E0000B0141440890AAEB010AE00306D4DDE9A0
:1024F0000F232146504600F063F806444FF00009D0
:1025000008E009A911F80900DDE90F12904709F167
:102510000109761CC145F4DBE0030CD5DDE90F238E
:102520002146504600F04CF8064404E0DDE90F1265
:1025300030209047761C0899481E08900029F5DC49
:1025400008E00A980A990078491C0A91DDE90F12FF
:102550009047761CBBF10001ABF1010BF1DC214689
:102560005046DDE90F2300F019F806446D1C1BE608
:102570000928010030313233343536373839616259
:10258000636465660000000030313233343536371D
:102590003839414243444546000000002DE9F041EE
:1025A000044600251E461746880404D405E0394633
:1025B0002020B0476D1C641EF9D52846BDE8F08187
:1025C0002DE9F041044600251E469046C80301D57A
:1025D000302700E02027880404D505E0414638462E
:1025E000B0476D1C641EF9D52846BDE8F081000097
:1025F0000146042901DB0020704701EB4100084A35
:1026000002EB80004078012808D1002001EB410254
:10261000034B03EB820250700120EDE70020EBE753
:10262000EC00002010B5044604B910BD012C00D107
:1026300002240120FFF7A3FD094804600020094996
:102640000870FFF79CFD06E000F074F8054800787C
:10265000012800D100E0F7E700BF00BFE5E7000078
:10266000140000201800002070B50546304800EB2B
:1026700005142846FEF7E8FE00283ED020790528FC
:1026800002DA0520207152E020790A2803DA207945
:10269000401C20714BE0A07A38B90120A07205EBF4
:1026A0004501491CC8B200F04BFA208900283EDDE4
:1026B000E088218988420DDAE088401C80B2E08001
:1026C0002189884233D105EB4501C91CC8B200F00D
:1026D00037FA2CE0E07A002829DD207B401CC0B2CC
:1026E0002073E17A884222DB0020207305EB45014C
:1026F000491CC8B200F024FA19E02079052802DD4F
:102700000520207110E0207918B12079401E207139
:102710000AE0A07A012807D10020A07205EB45014C
:10272000891CC8B200F00CFA0020E080207370BD54
:102730003C000020704710B5FDF7CAFFFFF7D6F840
:1027400000F07CF800F034F900F086F900F004F8AD
:1027500000F020F910BD000010B5FEF7C3FCFEF735
:1027600073FC40F61470034908600846006802498B
:10277000086010BD0000002000100064F0B591B0AA
:10278000402101A8FDF766FD4FF0804500BF002005
:1027900000901F48006840F001001D49086008468D
:1027A000006800F00100009000BF00BF19480068F9
:1027B00047081948B7FBF0F0401E86B2B5F1804FCC
:1027C00002D01648854202D14FF0FF3401E04FF6A7
:1027D000FF740195029604940021059103910691DE
:1027E0008021079101A8FEF7C4FB20B140F21F2110
:1027F0000BA0FDF7B2FD022200211C20FDF7BDFF5A
:102800001C20FDF7AAFF01A8FEF7CEFB11B0F0BD1A
:10281000403802403000002040420F00000C0040D1
:102820002E2E5C557365725C6273705C7372635CB0
:102830006273705F74696D65722E630010B500F08D
:102840006DF800F001F810BD10B586B000BF002093
:1028500000903048006840F004002E4908600846A7
:10286000006800F00400009000BF00BF00BF00201F
:1028700000900846006840F02000086008460068A4
:1028800000F02000009000BF00BF00BF00200090BB
:102890000846006840F0400008600846006800F004
:1028A0004000009000BF00BF00BF0020009008461D
:1028B000006840F0800008600846006800F0800072
:1028C000009000BF00BF00BF0020009008460068D5
:1028D00040F4807008600846006800F48070009042
:1028E00000BF00BF0020029003900320049000244A
:1028F0000CE0094800EBC40080880190064951F8BB
:10290000340001A9FDF7C4FD601CC4B2082CF0DB43
:1029100006B010BD30380240502D000810B5002020
:102920001A498872C8720873002418E06420184994
:1029300001EB041108810220154901EB0411087113
:102940000020134901EB04118872114901EB0411B5
:10295000C8720F4901EB04110873601CC4B20A2C41
:10296000E4DB06226421032000F000F90622642142
:10297000042000F0FBF806226421052000F0F6F8A0
:1029800006226421104600F0F1F810BDDC000020A2
:102990003C00002010B5012000F071F8022000F08A
:1029A0006EF8032000F06BF8042000F068F810BD0A
:1029B00070B5002416E0002004EB4401214A02EB2C
:1029C0008101486004EB440102EB8101886004EB63
:1029D000440102EB8101487004EB440102F821003C
:1029E000601CC4B2042CE6DB174800684FF47A720E
:1029F000B0FBF2F1481EB0F1807F00D31BE0481E0F
:102A00004FF0E022506150170F22002804DB13071B
:102A10001D0E0E4B1D5406E013071E0E0C4B00F04E
:102A20000F052D1F5E5500BF00204FF0E022906182
:102A30000720106100BF012006490870FFF79EFEC5
:102A400070BD0000EC0000203000002000E400E039
:102A500018ED00E02000002010B5FFF733FBFEF773
:102A600081FCFEF7CDFE10BD10B5002404E0204629
:102A7000FFF7FAFD601CC4B20A2CF8DB10BD10B5DC
:102A80000446012C04D101210002FEF7D1FB13E022
:102A9000022C04D101214802FEF7CAFB0CE0032CF2
:102AA00004D101218802FEF7C3FB05E0042C03D109
:102AB0000121C802FEF7BCFB10BD10B50446012C75
:102AC00004D100210002FEF7B3FB14E0022C04D174
:102AD00000212002FEF7ACFB0DE0032C05D1002104
:102AE0004FF48060FEF7A4FB05E0042C03D1002125
:102AF0006002FEF79DFB10BD70B50446012C01D1AC
:102B000005020DE0022C01D1250209E0032C02D1BF
:102B10004FF4806504E0042C01D1650200E070BD33
:102B20002846FEF779FB20B100212846FEF780FBFE
:102B300003E001212846FEF77BFB00BFEFE7000022
:102B40000649C97A054A50541146C97A491CC9B286
:102B5000D1720A2901DB0021D1727047DC0000200C
:102B600010B5FFF781FF10BD7047000010B5074B8F
:102B700003EB00131981054B03EB0013DA720023FA
:102B8000024C04EB0014237310BD00003C00002035
:102B9000F0B591B004460D4617461E4601940295C5
:102BA000002103910491059707910696089101A8C9
:102BB000FEF70FFA20B14FF4497102A0FDF7CDFBEB
:102BC00011B0F0BD2E2E5C557365725C6273705C43
:102BD0007372635C6273705F756172745F6669665D
:102BE0006F2E6300416851B14168491E416031B99F
:102BF000012141700178012901D18168416070474C
:102C000070B504460D46042C06DB124A12A119A029
:102C1000FFF77AFA00BFFEE70120FFF7B0FA04EBF6
:102C200044001C4901EB8000456004EB440001EBCB
:102C300080008560002004EB4401164A02EB81010C
:102C40004870012004EB440102F821000020FFF746
:102C500096FA70BD9F2D00082E2E5C557365725C30
:102C60006273705C7372635C6273705F74696D65CC
:102C7000722E63004572726F723A2066696C65202D
:102C800025732C2066756E6374696F6E202573281A
:102C9000290D0A00EC0000202DE9F04105460E4602
:102CA00017462846FDF71EFB04460CB9BDE8F08127
:102CB000E06908B1E06980473A4631462046FFF7AF
:102CC000B8F900BFF2E713B50446012201A9204676
:102CD000FFF7E2FF1CBD70B504460D46E1B20020CF
:102CE000FFF7F1FF204670BDFFF725FDFEF756FC0C
:102CF000FEF704FC0120FFF7E0FE6420FFF792FCE2
:102D00000120FFF7BCFE6420FFF78CFC642100204B
:102D1000FFF776FF4FF4FA710120FFF771FF15E01E
:102D2000FFF708FD0020FFF763FC10B10120FFF75B
:102D3000E3FE0120FFF75CFC40B10220FFF7DCFE60
:102D40000320FFF7D9FE0420FFF7D6FEE8E70000D6
:102D500000200240000100000008024000200000A6
:102D6000001C024010000000001802400400000097
:102D70000014024000040000001802400800000097
:102D800000180240800000000020024000080000FF
:102D90006273705F537461727454696D657200621E
:102DA00073705F53746172744175746F54696D65AB
:102DB00072006273705F53746F7054696D65720056
:102DC00000000000000000000102030406070809DB
:102DD0000000000001020304F82D0008000000209C
:102DE0003C00000060210008342E00083C00002058
:102DF0004C0D0000702100080000000000000000E1
:102E000000000000000000000000000000000000C2
:102E100000000000000000000000000000000000B2
:102E200010000000010000000024F4000000000079
:042E3000000000009E
:04000005080001AD41
:00000001FF
