:020000040800F2
:1000000000AF0020810200083D370008C908000841
:1000100039370008B50900080D4500080000000048
:10002000000000000000000000000000C101000806
:10003000950A0008000000001D020008253A00088B
:100040009B0200089B0200089B0200089B0200081C
:100050009B0200089B0200089B0200089B0200080C
:100060009B0200089B0200089B0200089B020008FC
:100070009B0200089B0200089B0200089B020008EC
:100080009B0200089B0200089B0200089B020008DC
:100090009B0200089B0200089B0200089B020008CC
:1000A0009B0200089B0200089B0200089B020008BC
:1000B0009B0200089B0200089B0200089B020008AC
:1000C0009B0200089B0200089B0200089B0200089C
:1000D0009B0200083D4300089B0200089B020008A9
:1000E0009B0200089B0200089B0200089B0200087C
:1000F0009B0200089B0200089B0200089B0200086C
:100100009B0200089B0200089B0200089B0200085B
:100110009B0200089B020008A53B00089B02000808
:100120009B0200089B0200089B0200089B0200083B
:100130009B0200089B0200089B0200089B0200082B
:100140009B0200089B0200089B0200089B0200081B
:100150009B0200089B0200089B0200089B0200080B
:100160009B0200089B0200089B0200089B020008FB
:100170009B0200089B0200089B0200080000000090
:100180009B0200089B0200089B0200089B020008DB
:100190009B0200089B0200089B0200089B020008CB
:1001A000913400089B020008890A0008DFF80CD08F
:1001B00000F0ECFA00480047ED62000800AF0020B4
:1001C0002C4B19680868B0E8F04F80F30988BFF33A
:1001D0006F8F4FF0000080F311887047000000001F
:1001E00008480068006880F308884FF0000080F33A
:1001F000148862B661B6BFF34F8FBFF36F8F00DF15
:1002000000BF00BF08ED00E0DFF80C00016841F41A
:1002100070010160704700BF88ED00E0EFF30980D6
:10022000BFF36F8F134B1A681EF0100F08BF20ED3D
:10023000108A20E9F04F106009B44FF0100080F3ED
:100240001188BFF34F8FBFF36F8F07F05DFE4FF044
:10025000000080F3118809BC19680868B0E8F04F05
:100260001EF0100F08BFB0EC108A80F30988BFF3AE
:100270006F8F70477C000020EFF30580704700000F
:100280000648804706480047FEE7FEE7FEE7FEE730
:10029000FEE7FEE7FEE7FEE7FEE7FEE7413B00087C
:1002A000AD0100082DE9F05F0546002092469B460F
:1002B00088460646814640241BE02846414647467C
:1002C000224600F09AF853465A46C01A914110D37C
:1002D00011461846224600F081F82D1A67EB0108F6
:1002E0004F4622460120002100F078F817EB000964
:1002F0004E41201EA4F10104DFDC484631462A4667
:100300004346BDE8F09F00000649074A086850438D
:1003100043F2390210440860400870470149086000
:1003200070470000280100206D4EC64110B5431AE9
:10033000934209D28318881803E010F8011D03F8CE
:10034000011D521EF9D210BD40EA01039B0703D0E4
:1003500009E008C9121F08C0042AFAD203E011F804
:10036000013B00F8013B521EF9D210BDD2B201E0B0
:1003700000F8012B491EFBD270470022F6E710B5AA
:1003800013460A4604461946FFF7F0FF204610BD03
:10039000421C10F8011B0029FBD1801A704703464C
:1003A00011F8012B00F8012B002AF9D118467047EB
:1003B00030B50B46014600202022012409E021FA35
:1003C00002F59D4205D303FA02F5491B04FA02F532
:1003D0002844151EA2F10102F1DC30BD202A04DB05
:1003E000203A00FA02F1002070479140C2F1200348
:1003F00020FA03F3194390407047202A04DB203A87
:1004000021FA02F00021704721FA02F3D040C2F134
:10041000200291400843194670472DE9FE4F80465F
:1004200081EA0300C00F0C46009021F0004123F048
:100430000045B8EB0200A94105D24046214690464E
:100440001C460B46024623F00040104347D0270DC0
:10045000C7F30A00C3F30A510290401A01904028E2
:100460006BDAC3F3130040F4801B0098924620B16E
:100470000023D2EB030A63EB0B0B01985946C0F142
:1004800040025046FFF7AAFF06460D465046594621
:10049000019A00F08DF910EB08006141002487EA11
:1004A000115284EAE7731A4340D0009A62B3019A6A
:1004B000012A4FEA075215DC001B61EB02014FF0E5
:1004C000004202EA0752CDE90042001C41F58011CA
:1004D00032462B4600F08DF903B0BDE8F08F404660
:1004E0002146F9E7001B61EB0201001C41F5801376
:1004F00000185B412018A2F5001747EB030140EA02
:10050000D570B6196D4111E06D084FEA360645EA1F
:10051000C0754FEA0752001B61EB0201001C41F558
:10052000801149084FEA30000019514132462B46EC
:1005300003B0BDE8F04F00F04DB900980122400033
:100540000023D0EB020263EBE073009821464FEAF0
:10055000E074B8EB000061EB0401E9E783F00043CD
:100560005BE781F0004158E72DE9FE4F81EA030483
:1005700004F0004421F0004100944FF0000B23F000
:10058000004350EA01045ED052EA03045BD0C3F397
:100590000A54C1F30A552C44A4F2F3340194A0FB8D
:1005A0000254C1F3130141F48011C3F3130343F464
:1005B000801301FB024400FB034E840A970A44EABD
:1005C000815447EA8357A4FB076802958D0A05FB0F
:1005D00007854FEA932C04FB0C542705029D4FEA34
:1005E000065847EA1637B5EB08056EEB070C870E81
:1005F000920E47EA811742EA8312A7FB0201B6EB8B
:100600000B0164EB00042B0D43EA0C335E1844EB42
:100610001C50DA465146E7FB0201C5F313044FEACA
:100620000B3343EA14534FEA0432019C43EA0603B6
:10063000A4F10C040294009CCDE900B400F0D9F8B8
:1006400003B0BDE8F08F00200146F9E72DE9F04D39
:1006500081EA030404F0004B21F0004514464FF0FA
:10066000000A23F0004150EA050220D054EA0102BA
:100670001DD0C5F30A570246C5F31303C1F3130097
:10068000C1F30A5640F4801543F48013A7EB060823
:10069000101BD64608F2FD3873EB050002D308F1B3
:1006A000010801E092185B41B8F1000F03DA002065
:1006B0000146BDE8F08D00204FF4801106468446C7
:1006C0000EE0171B73EB050705D3121B63EB050345
:1006D00006434CEA010C49084FEA300092185B418E
:1006E00050EA0107EDD152EA030012D082EA040079
:1006F00083EA0501084305D0101BAB4106D2012255
:10070000002306E000224FF0004302E06FF00102F8
:1007100053101AEB06004CEB085110EB0A0041EBAA
:100720000B01BDE8F04D00F055B8C1F30A52C1F31A
:10073000130140F2FF3341F480119A4202DA0020A3
:100740000146704740F233439A42A2F2334202DC40
:100750005242FFF752BEFFF741BE000030B5041E03
:1007600071F1000404DB4FF00044404264EB0101EE
:10077000141E73F1000405DB1C464FF00043524287
:1007800063EB0403994208BF904230BD064C074D0D
:1007900006E0E06840F0010394E807009847103451
:1007A000AC42F6D3FFF706FD7845030898450308E9
:1007B000202A06DBCB17203A41FA02F043EAE07325
:1007C00006E041FA02F3D040C2F120029140084312
:1007D0001946704710B5141E73F1000408DA401C66
:1007E00041F1000192185B411A4301D120F0010050
:1007F00010BD2DE9F04D92469B4611B1B1FA81F240
:1008000002E0B0FA80F220329046FFF7E7FD04469E
:100810000F4640EA0A0041EA0B0153465A46084394
:1008200013D0114653EA010019D0C8F140025046D6
:10083000FFF7E3FD05460E46504659464246FFF790
:10084000CDFD084305D0012004E020463946BDE82F
:10085000F08D0020054346EAE0762C4337430A98A2
:100860006305E40AA0EB08000022FD0A44EA4754AD
:100870000A3002D500200146E9E701051019694157
:10088000DDE9084500196941BDE8F04DA2E730B542
:100890008C1810F8012B12F00F0301D110F8013B56
:1008A000120906D110F8012B03E010F8015B01F8E2
:1008B000015B5B1EF9D101E001F8013B521EFBD147
:1008C000A142E6D3002030BD1EF0040F0CBFEFF3B1
:1008D0000880EFF3098001F08DBE000010B5012003
:1008E00007F0C2FC0149086010BD000010000020A4
:1008F0001CB50020042103460A02CDE900100DA119
:100900000F4808F081F80F48022100230A02CDE9C0
:1009100000100DA10F4808F077F80F4803210023BD
:100920004FF40072CDE900100CA10F4808F06CF8EC
:100930001CBD0000765461736B47554900000000F0
:100940006D7A000800000020765461736B55736562
:1009500072494600D57F00080C0000207654617370
:100960006B53746172740000317E00080FB400B5DF
:10097000B5B037A80190C92102A8019B369A03F0AF
:1009800029FF00200190411E0848006807F01AFF67
:1009900002A907A003F0FAFE00231A4619460348ED
:1009A000006807F0EBFC35B05DF814FB1000002088
:1009B0002573000000BFFEE710B504460CB91248CD
:1009C00010BD012C01D10020FAE7022C01D100203A
:1009D000F6E7032C01D10020F2E7042C01D100201E
:1009E000EEE7052C01D10020EAE7062C01D100201A
:1009F000E6E7072C01D10020E2E74FF48E7103A057
:100A000000F049F80020DBE7E00100202E2E5C55C5
:100A10007365725C6273705C7372635C6273705F47
:100A2000756172745F6669666F2E63002DE9F04729
:100A300007460C4615461E46DDE90889384602F091
:100A4000EBFC82460E480F4908600846C0F8389013
:100A5000C463C0F84080C0F834A0304665F31F403E
:100A600048640846006840F00100086000BF05487F
:100A7000006800F001000028F9D1BDE8F08700000F
:100A80000002030000B00240022001498860704764
:100A900000B00240704701B9704700BFFEE7000098
:100AA00070B504461D460023B5F5804F13D154F8A8
:100AB00022300C480340D1E9000640EA06108E6857
:100AC00040EA06208E8940EA06408E69304303439F
:100AD00044F8223003E06FF0704044F82200002018
:100AE00070BD00000000F0CF10B50246002308687A
:100AF00052F8203018480340D1E901042043CC6863
:100B000020430C6920434C6920438C692043CC6905
:100B100020430C6A20434C6A20438C6A2043CC6AF1
:100B20002043CC6B20430C6B20434C6B204303438E
:100B30008868082801D143F04003086842F8203053
:100B4000486BB0F5801F05D1086818B110684C6B70
:100B500020431060002010BD8000E0FF30B5034648
:100B600014460022601C53F8202002F04042D1E9D4
:100B7000000540EA05108D6840EA05208D8940EAAD
:100B80000545088A401E45EA0055087D801E45EA55
:100B900000608D6928430243601C43F820201868D8
:100BA00000F48010B0F5801F07D1586820F470025F
:100BB000088A401E42EA00525A60002030BD30B51B
:100BC0000246002300240868012816D013686FF33A
:100BD0000E03D1E901052843CD6828430D69284358
:100BE0004D6928438D692843CD6928430D6A284300
:100BF0004D6A28430343136019E0136823F4F84354
:100C0000D1E9070528434D6A2843034354686FF32D
:100C10000E04D1E901052843CD6828430D69284316
:100C20004D6928438D6928430443136054600020B4
:100C300030BD0246506940EA4100506100207047D3
:100C4000F8B506460C461546002000900027D4E96A
:100C500000010843A168491E40EA4110E16840EAEA
:100C6000412000900098306100F022FB074609E027
:100C7000681C38B125B100F01BFBC01BA84201D98C
:100C80000320F8BDB06900F020002028F0D000203B
:100C9000F7E7000070B50346154600220024012D39
:100CA0001FD09A6802F070420868401E4E68761E97
:100CB00040EA06168868401E46EA0026C868401EBC
:100CC00046EA0036088A401E46EA0046888A401EE8
:100CD00046EA0056087E401E46EA006002439A60DB
:100CE00022E09A6811480240C868401E0603888ABC
:100CF000401E46EA00500243DC6804F07044086875
:100D0000401E4E68761E40EA06168868401E46EA77
:100D10000026088A401E46EA0046087E401E46EA33
:100D2000006004439A60DC60002070BDFF0F0FFF7D
:100D300010B5002005494870322004F028FA002040
:100D4000024948700120087010BD00000C0A002004
:100D50002DE9F04105460E46174605F07DFA1E497D
:100D6000887805F04FFA05F0A1FA00B12FE02812BB
:100D700005F048FA05F09AFA00B128E0E8B205F06B
:100D800041FA05F093FA00B121E005F065FA124945
:100D90008978491CC8B205F035FA05F087FA00B128
:100DA00015E0002406E005F00BFA305505F0B4F923
:100DB000601C04B2781EA042F5DC05F001FA305543
:100DC00005F0E8F905F060FA0120BDE8F08105F0D2
:100DD0005BFA0020F9E700000C0A002030B58DB066
:100DE000002000906748007808B90DB030BD0020A1
:100DF00064494870012201A948F24E10FFF7A8FF8C
:100E00009DF8040070B960480078012809D10020DD
:100E10005D4908705D4802885D480188032003F041
:100E200083F8E2E727220DF1050148F24F10FFF7A2
:100E30008FFF0122694648F24E1000F0ABF89DF892
:100E400004005049C8709DF8050008719DF806001F
:100E50009DF8071000EB01204A49C8809DF8080062
:100E60009DF8091000EB0120464908819DF80A0011
:100E70009DF80B1000EB0120424988729DF80E008E
:100E80009DF80D1000EB01203E4988819DF810006F
:100E90009DF80F1000EB01203A49C8819DF812001F
:100EA0009DF8111000EB0120364908749DF81400DC
:100EB0009DF8151000EB0120324948829DF816007C
:100EC0009DF8171000EB01202E4988829DF818002C
:100ED0009DF8191000EB01202A4988759DF81B0028
:100EE0009DF81C1000EB0120264908839DF81D0089
:100EF0009DF81E1000EB0120224948839DF81F0039
:100F00009DF8201000EB01201E4908779DF8220073
:100F10009DF8231000EB01201A49C8839DF8240096
:100F20009DF8251000EB0120164908849DF8260045
:100F30009DF8271000EB0120124981F82200084695
:100F4000C5880489B5F5487F01DB40F21F35B4F54B
:100F5000F07F01DB40F2DF140B48007838B9012044
:100F6000094908702246294602F0DEFF04E02246C5
:100F70002946022002F0D8FF054805800348048076
:100F800000BF32E70C0A00201C00002020000020D7
:100F90001E0000202DE9F04104460E46174605F0DC
:100FA0005BF90F49887805F02DF905F07FF92012DB
:100FB00005F028F905F07AF9E0B205F023F905F01B
:100FC00075F9002506E0705D05F01CF905F06EF975
:100FD000681CC5B2BD42F6DB05F056F9BDE8F081EC
:100FE0000C0A0020094A1268002A18BF0020084A8B
:100FF00052F82030002BB8BF7047064B43F8201042
:101000004FF0FF3142F8201070470000FC00002034
:10101000180100200001002010B504460CB9012081
:1010200010BD94F8390028B9002084F83800204613
:1010300000F022F8022084F839002068006820F4CB
:10104000403061680843216808602068406B20F0E8
:101050000700A1680843216848632068006C6FF3AB
:101060000D00E1680843216808640020E063012066
:1010700084F839000020D3E77047000001200149BF
:101080000860704700042742F8B502460B46002569
:10109000002400200021E6E0012606FA01F51E6882
:1010A00006EA0504AC4273D15E68022E02D05E6887
:1010B000122E13D1CF0802F1200656F827004E0752
:1010C000F70E0F26BE40B0434F07FF0E1E69BE400D
:1010D0003043CF0802F1200646F8270010684F0081
:1010E0000326BE40B0431E7906F003064F00BE4003
:1010F000304310605E68012E08D05E68022E05D075
:101100005E68112E02D05E68122E13D190684F00D7
:101110000326BE40B0434F00DE68BE4030439060BF
:10112000506801268E40B0431E79C6F300168E40EB
:1011300030435060D0684F000326BE40B0434F009C
:101140009E68BE403043D0605E6806F08056B6F1BF
:10115000805FA8D100BF00260096454E366846F451
:101160008046434F3E603E46366806F48046009611
:1011700000BF00BF3F4E8F0856F827008E07370F7D
:101180000F26BE40B0433C4EB24202D100262EE0B4
:1011900068E03A4EB24201D1012628E0384EB24210
:1011A00001D1022623E0374EB24201D103261EE0D0
:1011B000354EB24201D1042619E0344EB24201D17B
:1011C000052614E0324EB24201D106260FE0314E20
:1011D000B24201D107260AE02F4EB24201D10826C1
:1011E00005E02E4EB24201D1092600E00A268F0703
:1011F0003F0FBE4030431F4E8F0846F82700284E51
:101200003068A0435E6806F48036B6F5803F00D1B2
:101210002043234E3060361D3068A0435E6806F4DC
:101220000036B6F5003F00D120431D4E361D30601C
:10123000361D3068A0435E6806F48016B6F5801F40
:1012400000D12043164E08363060361D3068A0436A
:101250005E6806F40016B6F5001F00D12043104E5C
:101260000C363060491C1029FFF416AFF8BD0000A1
:1012700044380240083801400000024000040240A7
:1012800000080240000C024000100240001402401E
:1012900000180240001C02400020024000240240CE
:1012A000003C01400AB1816101E00B048361704799
:1012B00001480068704700004400002010B50D4848
:1012C000006840F400700B4908600846006840F46C
:1012D000806008600846006840F480700860032061
:1012E00000F0A6F90F2000F007F800F052F90020F6
:1012F00010BD0000003C024070B504460E48007866
:101300004FF47A71B1FBF0F00C490968B1FBF0F5CC
:10131000284600F0F2FE08B1012070BD102C07D263
:1013200000222146501E00F045F90548046001E006
:101330000120F2E70020F0E74C00002050000020E0
:101340004800002070B504460E46154600BF94F8CC
:10135000A000012801D1022070BD012084F8A00066
:1013600000BF022084F8A10005EB850101EBC50256
:1013700004F1380101EB820034223146FEF7D6FF3A
:101380002A463146204602F0CFF801202168486203
:1013900084F8A10000BF002084F8A00000BF00BFB7
:1013A000DAE7000070B504460CB9012070BD94F86E
:1013B000A10028B9002084F8A000204600F07EF8A3
:1013C000022084F8A1002068806920F07040216824
:1013D0008861D4E901010843E168084321690843B1
:1013E00021688969084321688861206880683249DA
:1013F000084021688860A08A050420688068A16987
:1014000029430843216888602068C0682A49084049
:101410002168C860A08B05042068C068216A294340
:1014200008432168C8602068006923490840216892
:101430000861A08C050420680069A16A294308435B
:1014400021680861206840691B490840216848619B
:10145000A08D050420684069216B29430843216859
:10146000486194F83500050294F8360006042068B7
:10147000C06A00F07F402168C86246EA050094F81F
:10148000341008432168C96A08432168C86220688B
:10149000406B40F00600216848632068806940F096
:1014A0000100216888610020C4F8A400012084F8AC
:1014B000A10000207AE7000000F800F070472DE955
:1014C000F04104460E461746984600BF94F8A00027
:1014D000012802D10220BDE8F081012084F8A0009B
:1014E00000BF022084F8A10008EB880000EBC801CF
:1014F00004F1380000EB81052E60A86A3044686072
:10150000AF60E86A3844E86042462946204602F067
:101510000BF801202168486284F8A10000BF002078
:1015200084F8A00000BF00BFD5E72DE9F0410546D3
:101530000E461746984600BF95F8A000012802D134
:101540000220BDE8F081012085F8A00000BF022044
:1015500085F8A10008EB880000EBC80105F1380010
:1015600000EB8104206830446060A0683844E0608B
:10157000A662E76242462146284601F0D5FF0120D7
:1015800085F8A10000BF002085F8A00000BF00BFC3
:10159000D7E7704701460846002809DB00F01F0323
:1015A00001229A4043099B0003F1E023C3F8002184
:1015B00000BF70472DE9F05F80460D4616460027B4
:1015C00003F01EF9074639462A46334601F0070064
:1015D000C0F1070ABAF1040F02D94FF0040A01E082
:1015E000C0F1070AD14600F1040ABAF1070F02D28E
:1015F0004FF0000A01E0A0F1030AD4464FF0010ABF
:101600000AFA09FAAAF1010A0AEA020A0AFA0CFA23
:101610004FF0010B0BFA0CFBABF1010B0BEA030BC8
:101620004AEA0B042146404603F0F2F8BDE8F09F79
:1016300000BF00F00702064B19684FF6FF03194080
:10164000044B0B4343EA0221014B196000BF704772
:101650000CED00E00000FA05F8B504460025002670
:10166000207800F0010020B9207800F00200022864
:1016700052D10020A8498866FFF71AFE054606E009
:10168000FFF716FE401B022801D90320F8BDA3482E
:101690000068C0F3C0600028F2D1207800F001009B
:1016A00038B160688101207A41EA00709B49843139
:1016B0000860207800F00200022819D19748843091
:1016C0000068C0F3027660688101207B41EA006017
:1016D00040EA067091498431086090488C30006877
:1016E00020F01F00E169491E08438C498C310860D5
:1016F000012089498866FFF7DBFD054606E0FFF714
:10170000D7FD401B022801D90320BFE783480068AA
:10171000C0F3C0600028F2D0207800F00400042854
:1017200004D0207800F00800082863D100207A490E
:101730000867FFF7BDFD054606E0FFF7B9FD401B52
:10174000022801D90320A1E774480068C0F3407063
:101750000028F2D1207800F00400042819D16F4845
:1017600088300068C0F3027620698101207D41EA5B
:10177000006040EA0670694988310860081D006809
:1017800020F4F851206A401E41EA002063498C3160
:101790000860207800F00800082817D15F488830DA
:1017A0000068C0F303662069800140EA0661207E7C
:1017B00041EA0070594988310860081D006820F42A
:1017C0004030616A084355498C3108600120524914
:1017D0000867FFF76DFD054606E0FFF769FD401B52
:1017E000022801D9032051E74C480068C0F340703B
:1017F0000028F2D0207800F0200020287ED100BF01
:101800000020009045484030006840F08050434937
:10181000403108600846006800F08050009000BF2A
:1018200000BF3F48006840F480703D490860FFF702
:101830003FFD054606E0FFF73BFD401B022801D9AE
:10184000032023E73648006800F480700028F2D0B7
:1018500032487030006800F440764EB3208D00F4BA
:101860004070B04224D02D487030006820F440769B
:1018700001202C490860002008602848703006606C
:10188000006800F0010098B1FFF712FD054608E07E
:10189000FFF70EFD401B41F28831884201D9032039
:1018A000F4E61E4870300068C0F340000028EFD016
:1018B00000BF208D00F44070B0F5407F0CD1174878
:1018C0000830006820F4F810174AA16A1140084354
:1018D00012490831086007E010480830006820F419
:1018E000F8100E49083108600C4870300068218DEE
:1018F000C1F30B0108430949703100E001E00860C1
:1019000000BF207800F01000102803D194F82C00BC
:10191000064908600020B9E600004742003802404E
:1019200000700040400E4742FFFCFF0FE0114742AD
:1019300070B504460D460CB9012070BD58480068CA
:1019400000F00F00A84209D255490D700846006802
:1019500000F00F00A84201D00120EEE7207800F04F
:10196000020002281DD1207800F00400042805D1CF
:101970004C48006840F4E0504A490860207800F084
:101980000800082805D14748006840F460404549F0
:1019900008604448006820F0F000A168084341490D
:1019A0000860207800F00100A8B36068012807D122
:1019B0003C4808380068C0F34040B8B90120BCE793
:1019C0006068022802D06068032807D135480838CB
:1019D0000068C0F3406048B90120AEE731480838DC
:1019E0000068C0F3400008B90120A6E72D48006850
:1019F00020F00300616808432A490860FFF758FC9B
:101A0000064609E0FFF754FC801B41F2883188420A
:101A100002D9032091E707E02248006800F00C009B
:101A20006168B0EB810FEDD11D48006800F00F0038
:101A3000A84209D91A490D700846006800F00F0045
:101A4000A84201D0012078E7207800F004000428A3
:101A500007D11448006820F4E050E16808431149B8
:101A60000860207800F00800082808D10D480068B8
:101A700020F46040216940EAC1000A49086000F092
:101A80003DF808490968C1F30311074A515CC84091
:101A9000064908600F20FFF72FFC00204DE70000EB
:101AA000003C0240083802403290000850000020FC
:101AB00001480068704700005000002000B5FFF7A3
:101AC000F7FF04490968C1F38221034A515CC84009
:101AD00000BD0000083802404290000800B5FFF742
:101AE000E7FF04490968C1F34231034A515CC84029
:101AF00000BD000008380240429000082DE9F04780
:101B0000002400250026A1462548006800F00C00AE
:101B100020B1042805D008283AD105E0DFF88490E8
:101B200039E0DFF8849036E01D48001F006800F0BF
:101B30003F041B48001F006800F4800078B11A4879
:101B40001749091F0968C1F38811A0FB01700146FC
:101B5000224600233846FEF7A5FB05460EE0114855
:101B60000F49091F0968C1F38811A0FB01700146E4
:101B7000224600233846FEF795FB05460848001F1D
:101B80000068C0F30140401C4600B5FBF6F902E0D6
:101B9000DFF8109000BF00BF4846BDE8F0870000A6
:101BA000083802400024F40000127A00F8B5044618
:101BB0000CB90120F8BD207800F00100002874D095
:101BC000F948006800F00C0004280DD0F6480068C1
:101BD00000F00C00082813D1F348001F006800F43F
:101BE0008000B0F5800F0BD1EF4808380068C0F3D3
:101BF0004040002859D06068002856D10120D9E71C
:101C000000BF6068B0F5803F08D1E7480838006839
:101C100040F48030E449083908601EE06068B0F59F
:101C2000A02F0DD1E0480838006840F48020DE493C
:101C3000083908600846006840F4803008600CE00D
:101C4000D9480838006820F48030D749083908603E
:101C50000846006820F48020086000BF606890B1EA
:101C6000FFF726FB054606E0FFF722FB401B642832
:101C700001D903209EE7CC4808380068C0F34040F3
:101C80000028F1D011E0FFF713FB054606E0FFF74F
:101C90000FFB401B642801D903208BE7C24808389A
:101CA0000068C0F340400028F1D1207800F0020025
:101CB00002285FD1BC48006800F00C0058B1BA4857
:101CC000006800F00C0008281CD1B748001F00680D
:101CD00000F48000B0B9B44808380068C0F3400090
:101CE00020B1E068012801D0012063E7AE48083840
:101CF000006820F0F800216940EAC100AA490839CB
:101D0000086037E0E06800B30120A8490860FFF7E9
:101D1000CFFA054606E0FFF7CBFA401B022801D9AF
:101D2000032047E7A04808380068C0F340000028B7
:101D3000F1D09D480838006820F0F800216940EA99
:101D4000C10099490839086014E0002097490860EB
:101D5000FFF7AEFA054606E0FFF7AAFA401B022895
:101D600001D9032026E7904808380068C0F34000F6
:101D70000028F1D1207800F0080008282CD16069F3
:101D8000A8B101208A490860FFF792FA054606E0EB
:101D9000FFF78EFA401B022801D903200AE7824888
:101DA0006C300068C0F340000028F1D014E000203F
:101DB0007F490860FFF77CFA054606E0FFF778FAEE
:101DC000401B022801D90320F4E677486C300068F4
:101DD000C0F340000028F1D1207800F0040004286E
:101DE00070D1002670483830006800F0805090B9FB
:101DF00000BF002000906C483830006840F08050F0
:101E00006949383108600846006800F08050009049
:101E100000BF00BF01266748006800F48070B0B9B9
:101E20006448006840F4807062490860FFF740FA37
:101E3000054606E0FFF73CFA401B022801D90320C3
:101E4000B8E65C48006800F480700028F2D000BF5B
:101E5000A068012808D154486830006840F00100AB
:101E60005149683108601DE0A06805280DD14E4831
:101E70006830006840F004004B496831086008464B
:101E8000006840F0010008600CE0474868300068D6
:101E900020F001004449683108600846006820F0DD
:101EA0000400086000BFA068A8B1FFF701FA05466A
:101EB00009E0FFF7FDF9401B41F28831884202D961
:101EC000032077E626E0384868300068C0F3400019
:101ED0000028EED013E0FFF7EBF9054608E0FFF726
:101EE000E7F9401B41F28831884201D9032061E6BD
:101EF0002D4868300068C0F340000028EFD1012E63
:101F000007D129483830006820F080502649383100
:101F1000086000BFA069B8B32348006800F00C0057
:101F200008285ED0A069022846D100201F49086613
:101F3000FFF7BEF9054606E0FFF7BAF9401B022895
:101F400001D9032036E6184808380068C0F340601D
:101F50000028F1D1D4E907010843616A40EA811100
:101F60000122A06AC2EB500041EA00412C20005D32
:101F700041EA00600C49091F086001200B4908660E
:101F8000FFF796F9054607E02DE0FFF791F9401BB2
:101F9000022801D903200DE6034808380068C0F381
:101FA00040600028F1D01EE008380240000047429F
:101FB000800E47420070004000200C490866FFF781
:101FC00077F9054606E0FFF773F9401B022801D9AF
:101FD0000320EFE506480068C0F340600028F2D116
:101FE00001E00120E6E50020E4E5000000004742B2
:101FF00000380240014691F82C00704770B5044645
:102000000D460CB9012070BD94F82C0028B90020B1
:1020100084F82D00204600F011F8022084F82C00EE
:10202000211D2068FEF7CBFD2946D4E90002FEF70A
:1020300031FE012084F82C000020E4E7704770B5E1
:1020400004460D4694F82C00022800D170BD0220F1
:1020500084F82C0029462068FEF7EBFD012084F867
:102060002C000020F2E770B504460D46164694F8A1
:102070002C00022800D170BD022084F82C003246CA
:1020800029462068FEF7DCFD2868022803D10520D8
:1020900084F82C0002E0012084F82C000020EAE7FC
:1020A00070B504460E4615460CB9012070BD94F873
:1020B000490028B9002084F84800204600F01CF8A8
:1020C00004F108012068FEF70FFD3146A268206880
:1020D000FEF744FD2946236BD4E90102FEF7E0FC3C
:1020E000A168206850F8210040F00100A268216832
:1020F00041F822000020D9E7704770B50446254614
:10210000681EB0F1807F01D301200FE0681E4FF000
:10211000E02148610F214FF0FF3002F079FB0020F1
:102120004FF0E021886107200861002070BD10B5E4
:1021300004460CB9012010BD94F83D0028B90020D8
:1021400084F83C00204600F00CF8022084F83D00A2
:10215000211D206801F03AFD012084F83D00002097
:10216000E9E770470146022081F83D000868806871
:1021700000F00702062A05D00868006840F0010058
:102180000B681860012081F83D000020704770B591
:1021900004460D46164600BF94F83C00012801D1C4
:1021A000022070BD012084F83C0000BF022084F8AA
:1021B0003D0036B1042E1BD0082E31D00C2E5ED13E
:1021C00045E02946206801F07FFD2068806940F0E5
:1021D0000800216888612068806920F00400216877
:1021E000886120688069296908432168886147E01F
:1021F0002946206801F0A0FD2068806940F4006055
:10220000216888612068806920F480602168886185
:1022100020688069296940EA0120216888612FE0EF
:102220002946206801F0C6FD2068C06940F008001A
:102230002168C8612068C06920F004002168C86175
:102240002068C069296908432168C86118E02946E7
:10225000206801F0EBFD2068C06940F4006021684F
:10226000C8612068C06920F480602168C861206866
:10227000C069296940EA01202168C86100E000BF07
:1022800000BF012084F83D0000BF002084F83C001E
:1022900000BF00BF85E710B50446022084F83D006A
:1022A00000BF2068006A41F21111084050B920684F
:1022B000006A8910084028B92068006820F00100F1
:1022C0002168086000BF204600F022F8002084F852
:1022D0003D0000BF84F83C0000BF10BD10B50446AF
:1022E0000CB9012010BD94F83D0028B9002084F8F5
:1022F0003C00204600F00DF8022084F83D00211D2E
:10230000206801F063FC012084F83D000020E9E72B
:102310007047704770B504460E460122314620686A
:1023200001F0C0FC0F492068884203D00E492068A4
:10233000884201D1012000E0002028B12068406CD3
:1023400040F40040216848642068806800F0070578
:10235000062D05D02068006840F001002168086063
:10236000002070BD000001400004014010B504468B
:102370000CB9012010BDA06900B100E000BF94F8C5
:10238000390028B9002084F83800204600F027F8EA
:10239000242084F839002068C06820F400502168A7
:1023A000C860204601F016FE2068006920F49040C5
:1023B000216808612068406920F02A00216848618E
:1023C0002068C06840F400502168C8600020E063C5
:1023D000202084F8390084F83A000020CAE77047CA
:1023E00000B59BB0502107A8FDF7C7FF1C21684628
:1023F000FDF7C3FF4FF020400790174808900320D7
:10240000009000200190062002900020039004908C
:10241000059006900220099000210A910B9120213D
:102420000C9100210D910E911091C102119100218A
:102430001291139114911591169117916A4669465C
:1024400007A8FFF72DFE20B140F2211103A0FEF7EF
:1024500022FB1BB000BD0000040100A02E2E5C5525
:102460007365725C6273705C7372635C6273705FDD
:10247000666D635F696F2E630000000000B587B072
:1024800000BF002001904448006840F00800424925
:1024900008600846006800F00800019000BF00BF17
:1024A00000BF002001900846006840F0100008605E
:1024B0000846006800F01000019000BF00BF00BF98
:1024C000002001900846006840F04000086008467F
:1024D000006800F04000019000BF00BF00BF002076
:1024E00001900846006840F08000086008460068D7
:1024F00000F08000019000BF00BF00BF00200190ED
:102500000846006840F4807008600846006800F4DF
:102510008070019000BF00BF00BF002001901E48E6
:102520000830006840F001001B4908310860084687
:10253000006800F00100019000BF00BF022003907E
:1025400001200490032005900C2006904CF233707B
:10255000029002A91148FEF797FD4FF68070029095
:1025600002A90F48FEF790FD40F20320029002A955
:102570000C48FEF789FD4FF47F40029002A90A48FB
:10258000FEF782FD40F2CF60029002A90748FEF7F5
:102590007BFD07B000BD000030380240000C024057
:1025A0000010024000180240001C024000200240BF
:1025B000014604480068084008B101207047002027
:1025C000FCE700001800002029B9084A126882437D
:1025D000064B1A6004E0054A12680243034B1A6076
:1025E000024A1268024B1A6070470000180000206F
:1025F0000010006410B53249096801F0004149B18A
:102600002F49096841F000412D4A11608169891CF8
:10261000816110BD2A49083909682A4A116228498E
:10262000091F097882F824102549C91E097891628A
:1026300023490C310968D1622149891E0988118614
:102640001F49096851631E49091D096891631C49A6
:1026500010310968D1631CA200210BE0535C254CAA
:10266000636000BF234B1B6803F04003002BF9D0CD
:102670004B1CD9B22929F1D300211F4A116000BF98
:102680001D4909680029FBD00E4A016811604168A4
:10269000516081689160C168D160016911614169CF
:1026A000516181699161C169D1610021124A116052
:1026B00000BF114909680029FBD000BFA9E700004D
:1026C0002CED00E0A80B00200D0A456E7465722009
:1026D000486172644661756C745F48616E646C65D4
:1026E000722C2053797374656D2048616C742E0DC3
:1026F0000A000000001001405400002000B587B01F
:1027000000BF002001903348006840F001003149CB
:1027100008600846006800F00100019000BF00BF9B
:1027200000BF002001900846006840F001000860EA
:102730000846006800F00100019000BF00BF00BF24
:102740000020019023481430006840F01000214917
:10275000143108600846006800F01000019000BFC6
:1027600000BF48150290022003900120049003202E
:1027700005900720069002A91748FEF785FC4FF444
:10278000806002900720069002A91348FEF77CFCA7
:10279000012200212520FEF70DFF2520FEF7FAFE7D
:1027A0000C2300224FF4E1310C4803F017FC0B48D6
:1027B000006820F04000094908600846006820F0E1
:1027C000200008600846C06840F02000C86007B0DC
:1027D00000BD0000303802400000024000100140FF
:1027E0002DE9F0410446082C17DA0026FF270025C2
:1027F00008E0284600F030F810B1701CC6B22F4631
:10280000681CC5B2082DF4DB012E04D1A74202D109
:102810000120BDE8F0810020FBE7082C0BD100204F
:1028200000F01AF828B1012000F016F808B10120D4
:10283000EFE70020EDE7092C0BD1012000F00CF8A8
:1028400028B1022000F008F808B10120E1E70020DB
:10285000DFE70020DDE7000001460B4850F83100BB
:102860000069094B03EBC1039B88184008B900229B
:1028700000E00122044800EBC1008079904201D1C0
:10288000012070470020FCE7E48F000800B587B006
:10289000142102A8FDF771FD00BF002001902B4814
:1028A000006840F48070294908600846006800F418
:1028B0008070019000BF00BF00BF0020019008465B
:1028C000006840F4007008600846006800F400707A
:1028D000019000BF00BF00BF0020019008460068C3
:1028E00040F4806008600846006800F48060019051
:1028F00000BF00BF4FF6FF700290022003900590CA
:10290000002004900E20069002A91148FEF7BCFB9F
:102910004FF4704002900220039005900020049034
:102920000E20069002A90B48FEF7AEFBFF20029096
:10293000022003900590002004900E20069002A92A
:102940000548FEF7A1FB07B000BD0000303802408B
:1029500000240240002002400028024038B504460E
:10296000044800940388044802880021084600F0C7
:102970003DF938BD240000202200002000B599B0A8
:1029800030210DA8FDF7F9FC00BF00200C90634832
:10299000006840F08060614908600846006800F007
:1029A00080600C9000BF00BF00BF00200C905B480F
:1029B0001438006840F4000058491439086008468B
:1029C000006800F400000C9000BF00BFFFF75EFF3E
:1029D00053485449086000204860002151488160F4
:1029E000C160016180F8341080F8351080F836102D
:1029F00008200D904FF4D2701190072113914FF4DD
:102A0000803016900DA8FEF727FE4FF44870464917
:102A100008804FF4F070454908800320444908803D
:102A2000582044490880282043490880032043490E
:102A300008802020424908800D20424908803A48F9
:102A40000088414908803948008840490880364854
:102A50000188344801663548018832484166344867
:102A6000018830484161354801882E4881614069BC
:102A70003049098801442B48C1618069304909887F
:102A8000014428480162C069274909880144254852
:102A90004162006A25490988014422488162406AEE
:102AA0002549098801441F48C162806A254909886F
:102AB00001441C480163FEF775FC34216846FDF7AC
:102AC0005CFC0020009018480088019000200290D3
:102AD00016480088039002200490FF2005900020F3
:102AE00006908DF8300000218DF831108DF83210ED
:102AF0004FF480600790052008900B4800880A90EA
:102B00000A4800880B904FF0404009900022694627
:102B10000448FEF717FC19B000BD0000443802401D
:102B200000680140C00A002032000020340000206C
:102B3000360000203A0000203C0000203800002031
:102B40003E00002040000020240000202200002041
:102B50002DE9F0410546884616461F46002407E049
:102B6000291988B23A46414600F012F9601C84B235
:102B7000B442F5DBBDE8F0812DE9F04105460E4693
:102B800017461C46DDF81880434622463146284643
:102B9000FFF7DEFF2919491E88B243463A463146FF
:102BA00000F010F8F019401E81B243462246284634
:102BB000FFF7CEFF43463A463146284600F002F87A
:102BC000BDE8F0812DE9F04180460D4616461F46CE
:102BD000002407E0281981B23A46404600F0D8F8B0
:102BE000601C84B2B442F5DBBDE8F0812DE9FE4FF4
:102BF00006460F4614461D46DDF830804FF00009AA
:102C0000CA46CB46002002903648007880B9364844
:102C1000008800FB076035490968022202FB0019A1
:102C200031480088401B1FFA80FAA34602954DE008
:102C30002C480078012818D12D480088001BC11BA2
:102C400029480088284A128802FB0100801B401B8B
:102C500026490968022202FB001923480088401B0C
:102C60001FFA80FAA346029530E01E480078022839
:102C700014D11D480088801B401B1D49098801FB99
:102C800000701A490968022202FB001918480088DE
:102C9000001B1FFA80FAAB46029417E01148007837
:102CA000032813D1124800881149098801FB060046
:102CB000001BC01B0D490968022202FB00190C48C9
:102CC0000088001B1FFA80FAAB4602945B46CDE9F0
:102CD00000A8494607480078029AFDF7A7FEBDE81C
:102CE000FE8F000027000020240000202C00002080
:102CF000220000203000002008B500BF0020009016
:102D00001148006840F400000F4908600846006858
:102D100000F40000009000BF00BF4FF440300B49AA
:102D200048600221094881600021C16008480749C4
:102D300008600846FEF770F920B140F29F4105A0F7
:102D4000FDF7A9FE08BD000030380240680B0020E6
:102D500000B002402E2E5C557365725C6273705C2D
:102D60007372635C6273705F6D795F7474665F34F5
:102D700032392E630000000010B5FFF7FFFDFFF7AA
:102D8000BBFF012000F090F800F04AF810BD0000F1
:102D9000F0B500231E4D2C681E4D2D7825B91E4D13
:102DA0002D8801FB050329E01A4D2D78012D0CD14A
:102DB000194D2D882D1A6D1E184E3688761A761EDE
:102DC000154F3F8806FB075318E0124D2D78022D52
:102DD00008D1114D2D882D1A6D1E104E368805FB19
:102DE00006130BE00B4D2D78032D07D10B4D2D88CD
:102DF0000A4E368800FB06556D1A6B1E074D2D884E
:102E0000054E368875439D4201D924F81320F0BD44
:102E10002C00002027000020240000202200002099
:102E200010B508480378084802880848018808480F
:102E3000FEF77BFB03480378002211460448FEF7A7
:102E40003EFB10BD300000202200002024000020A6
:102E5000C00A002008B101280ED1114A1288114B76
:102E60001B889A421ADA0E4A11880E4A12880C4BB5
:102E70001A800C4A118011E0022801D003280DD1DC
:102E8000074A1288074B1B889A4207DD044A1188BB
:102E9000044A1288024B1A80024A118070470000CF
:102EA0002400002022000020012807D14FF04041DB
:102EB0000B4A116001210B4A11700FE002280DD15D
:102EC00009490988094A128851434FF0404202EBF0
:102ED0004101034A11600221024A1170704700004B
:102EE0002C000020300000202200002024000020C0
:102EF00010B504462046FFF731FD10BD2DE9FC4119
:102F000004460D4616461F46002000903B463246BA
:102F100029460190204600F002F8BDE8FC812DE929
:102F2000FF4FA9B0074616461C46DDF8D8804FF083
:102F3000000B00200490207830B1012808D002282E
:102F40000AD0032810D10BE00C20049083460BE03C
:102F500010200490834607E018200490834603E085
:102F600020200490834600BF00BF2146304600F079
:102F7000D7F905464FF00009A84510DD379802281B
:102F800004D1A8EB05001FFA80F908E03798012862
:102F900005D1A8EB050000EBD071C1F34F09B9F1E1
:102FA000000F0EDD204600F08BF90190A0884B4603
:102FB00000903846019A2A9900F070F907EB090051
:102FC00087B2A84510DD204600F07AF90190A0886C
:102FD000A8EB0501A1EB09018BB27919009088B229
:102FE000019A2A9900F05AF963E0307828902898DD
:102FF00080280BDA217807AA289801F043FB58466D
:103000000BEBD071C1F3470106910EE0701C064630
:1030100000782790279800B94EE0227807ABDDE9C9
:10302000271001F061FBCDF818B02A98029000201B
:10303000059034E003974FF0000A25E00698400021
:1030400090FBFBF00599484300EBDA0007A9085C08
:103050000AF0070280211141084028B16288DDE9A9
:10306000021000F0DFF909E0A08849F699118842C2
:1030700004D0A288DDE9021000F0D4F90398401CC6
:1030800080B203900AF1010A06988245D6D30298CD
:10309000401C80B202900598401C80B20590DDE98A
:1030A00004108842C6DBE18806980844384487B299
:1030B000761C3078002898D100BF2DB0BDE8F08F85
:1030C0002DE9F74F04460F46D4F80CA00026ADE0DA
:1030D0000025A5E03AF8028B2EB9062D77DB208972
:1030E000C01FA842FADB012E05D1042DF6DB208992
:1030F000401FA842F2DB022E05D1032DEEDB208912
:10310000001FA842EADB032E05D1022DE6DB208951
:10311000C01EA842E2DB042E05D1012D7EDB2089F2
:10312000801EA8427ADB052E05D1012D76DB208991
:10313000801EA84272DBE088401EB04205D1062DF9
:103140006CDB2089C01FA84268DBE088801EB0428B
:1031500005D1042D62DB2089401FA8425EDBE08898
:10316000C01EB04205D1032D58DB2089001FA842A4
:1031700054DBE088001FB04205D1022D4EDB2089D0
:10318000C01EA8424ADBE088401FB04205D1012D95
:1031900044DB2089801EA84240DBE088801FB042CB
:1031A00005D1012D3ADB2089801EA84236DB02982A
:1031B00058B30F204FEAD821C8F3451208F01F0377
:1031C000814205DDA1EB000C1FFA8CF101E025E046
:1031D00000214FEA400C944506DA4FF0020C0CFB3C
:1031E000102C1FFA8CF200E00022834204DDA3EBD6
:1031F000000C1FFA8CF300E000234FEAC12C0CEB0B
:10320000421C9C441FFA8CF800BFA288324491B241
:1032100062882A4490B2424600F004F9681C85B2E4
:103220002089A8423FF756AF701C86B2E088B042B2
:103230003FF74EAF04F11000FDF7AAF81FFA80FB2C
:10324000BBF1000F01D1BDE8FE8F387838B9F8889E
:10325000584400EB400040044FEA104904E0F8886D
:103260005844C0044FEA1049208900EBD0726388AB
:1032700003EB6202494609EBD173A2EB630295B2FC
:10328000A088E1880844801C86B23B4604F1100205
:1032900031462846FFF732FE00BFD4E72DE9F84358
:1032A00004460D4616461F46DDF820803B46324652
:1032B00029462046CDF80080FFF798FCBDE8F8834A
:1032C000014610200A78072A10D2DFE802F004062F
:1032D0000A0C07090D000C2008E000BF102005E0D3
:1032E00000BF182002E000BF202000BF00BF7047D1
:1032F000014610200A78072A10D2DFE802F00406FF
:103300000A0C07090D000C2008E000BF102005E0A2
:1033100000BF182002E000BF202000BF00BF7047A0
:103320002DE9F04707460E463D464FF0000830466F
:10333000FFF7DEFF82463EE02C78802C2ADA3078D8
:10334000072823D2DFE800F016191C1F040A10001A
:10335000A4F120001B4911F800A01AE0A4F12000FC
:10336000194911F800A014E0A4F12000174911F840
:1033700000A00EE04FF0060A0BE04FF0080A08E04C
:103380004FF00C0A05E04FF0100A02E04FF0080A77
:1033900000BF0BE0681C054690F80090B9F1000FE3
:1033A00000D10BE03046FFF7A3FF824608EB0A008E
:1033B0001FFA80F86D1C28780028BDD100BF404658
:1033C000BDE8F0873EE900089EE90008FEE9000834
:1033D0007047000000F01F01074A084BC0F3451C6E
:1033E000C0F3C42013F80C30105C515C00EB0320D8
:1033F00000EB0140704700001843030838430308FE
:1034000010B5FFF7E5FFFFF7B7FC002000F01EF84E
:103410000020FFF76DFD10BD014609B9022070477D
:103420000220FCE770B504460D4616463246294692
:103430002046FFF7ADFC70BD10B50446024804708D
:10344000007800F00DF810BD2600002010B50446ED
:10345000024804702046FFF7FDFC10BD2700002045
:103460007CB5044642F210706043FF2190FBF1F5F9
:1034700044F620600123044A1946CDE900050348BB
:1034800002F0E8FB7CBD0000000C004000000240A0
:1034900070B501201D490860002434E01C4850F834
:1034A000240000282EDB1B4850F824001A4951F84C
:1034B00024104843164951F824104843174951F83D
:1034C0002410174A52F8242000FB0125154850F813
:1034D0002400806A0020134951F8241088621148A2
:1034E00050F824008562012008491839086008480E
:1034F00050F824102046FDF775FD4FF0FF300449C9
:1035000041F82400641C012CC8DB70BD3C680140FC
:1035100060000020680000206C0000207000002087
:103520004C90000858000020F0B58E880768FF68AE
:10353000C7F30B473E44330406688436802707FBF5
:103540000266766806F47047066884364FF0800C91
:103550000CFB026677600E680768FF68C7F30B47CD
:103560003E44761C1E43076884370CFB02777E605E
:103570008E890768FF68C7F30A073E44330406686C
:103580008436802707FB0266B66806F47047066833
:1035900084360CFB0266B7608E680768FF68C7F365
:1035A0000A073E44761C46EA0307066884360CFB8D
:1035B0000266B76006688436802707FB02663669B4
:1035C00026F00707066884360CFB026637610F6930
:1035D000066884360CFB026637613126765C33025E
:1035E0003226765C34040E7E3506066884368027E3
:1035F00007FB0266B6690027066884360CFB026684
:10360000B76191F830601E43264346EA0507066815
:1036100084360CFB0266B76106688436802707FB98
:103620000266766926F0FF07066884360CFB0266A0
:1036300077614F69066884360CFB0266776106681D
:103640008436802707FB0266F66940F20777BE439F
:10365000076884370CFB0277FE61D1E907763743B0
:10366000066884360CFB0266F7610668843680279C
:1036700007FB0266B66A0027066884360CFB026602
:10368000B7624F6A066884360CFB0266B7620E6941
:103690000EB9042313E00E69012E01D103230EE0BD
:1036A0000E69042E08D00E69022E05D00E69032E75
:1036B00002D00E69072E01D1022300E00123066823
:1036C0008436802707FB0266F66A06F0E027066864
:1036D00084364FF0800C0CFB0266F762D1E900766D
:1036E000F61B5E43F61C0F8D5F4346EA07470668EC
:1036F00084360CFB0266F76206688436802707FB77
:103700000266366BF70AFF02066884360CFB026617
:103710003763CF6A066884360CFB02663763066837
:103720008436D701F65946F00107066884364FEA19
:10373000C21C46F80C70F0BD00BFFEE770470000E9
:1037400000B587B000BF002001900D48006840F030
:1037500002000B4908600846006800F00200019072
:1037600000BF00BF012003900020049003200590BB
:103770000420029002A90348FDF786FC07B000BDB3
:10378000303802400004024000B587B0142102A87E
:10379000FCF7F3FD00BF002001905A48006840F498
:1037A0008070584908600846006800F480700190F5
:1037B00000BF00BF00BF002001900846006840F035
:1037C000200008600846006800F02000019000BF5B
:1037D00000BF00BF002001900846006840F0800054
:1037E00008600846006800F08000019000BF00BF3C
:1037F00000BF002001900846006840F040000860CB
:103800000846006800F04000019000BF00BF00BF04
:10381000002001900846006840F01000086008464B
:10382000006800F01000019000BF00BF00BF002042
:1038300001900846006840F00800086008460068EB
:1038400000F00800019000BF00BF40F2FF6002904E
:103850000220039000200490022005900C20069086
:1038600002A92948FDF710FC4FF63F000290022004
:10387000039000200490022005900C20069002A9DD
:103880002248FDF701FC4FF62C70029002200390B5
:1038900000200490022005900C20069002A91C48EC
:1038A000FDF7F2FB48F23310029002200390002053
:1038B0000490022005900C20069002A91548FDF7FF
:1038C000E3FB4FF6837002900220039000200490E7
:1038D000022005900C20069002A90F48FDF7D4FBAA
:1038E0004CF203700290022003900020049002200A
:1038F00005900C20069002A90848FDF7C5FB07B00B
:1039000000BD000030380240002002400014024098
:10391000001C02400018024000100240000C02404F
:103920007FB505460020009001900290039000268C
:103930004FF6FF74012000901020019001200290AA
:103940000020039000E0641E2846FEF753FB022887
:1039500001D1002CF7D14FF4805269462846FEF77A
:1039600082FB642001F013FC0220009010200190E3
:1039700001200290002003904FF6FF7400E0641EC7
:103980002846FEF737FB022801D1002CF7D14FF46F
:10399000805269462846FEF766FB032000901020FF
:1039A000019008200290002003904FF6FF7400E081
:1039B000641E2846FEF71EFB022801D1002CF7D119
:1039C0004FF4805269462846FEF74DFB4FF40C76C3
:1039D00004200090102001900120029003964FF6E1
:1039E000FF7400E0641E2846FEF704FB022801D1A4
:1039F000002CF7D14FF4805269462846FEF733FB7E
:103A000040F26A512846FEF71AFB4FF6FF7400E0B9
:103A1000641E2846FEF7EEFA022801D1002CF7D1E9
:103A20007FBD000010B500BF102080F31188BFF3E8
:103A30004F8FBFF36F8F00BF05F02CF818B14FF018
:103A400080500449086000BF002080F3118800BF47
:103A500010BD000004ED00E000B593B000BF0020F1
:103A600001903048006840F080502E4908600846B8
:103A7000006800F08050019000BF00BF00BF002030
:103A800001902948006840F44040274908600846F2
:103A9000006800F44040019000BF00BF0120029088
:103AA00000040390022008904105099108210A9121
:103AB0004FF4A8710B9102210C9104210D9102A8E1
:103AC000FEF774F818B17C2118A0FCF7E4FF0F2072
:103AD0000E9002200F90002010904FF4A0501190F3
:103AE0004FF48050129005210EA8FDF721FF18B168
:103AF0008F210EA0FCF7CFFF00BF002001900948E6
:103B0000001D006840F480400649091D0860084611
:103B1000006800F48040019000BF00BFFDF7AEFADE
:103B200013B000BD40380240007000402E2E5C559E
:103B30007365725C6273705C6273702E6300000068
:103B40001448006840F47000124908601248006888
:103B500040F001001049086000200F49083108605A
:103B60000D4800680D4908400B4908600C48091DC4
:103B70000860081F006820F48020091F08600020EA
:103B800005490C3108604FF0006002498039086037
:103B90007047000088ED00E000380240FFFFF6FEAD
:103BA000103000240748006900F0010040B16FF0B8
:103BB00001000449086104480068401C024908608B
:103BC00070470000001000401400002010B502688B
:103BD000294B98420ED0B0F1804F0BD0274B984222
:103BE00008D0274B984205D0264B984202D0264B4E
:103BF000984203D122F070024B681A431E4B984240
:103C000020D0B0F1804F1DD01C4B98421AD01C4BD5
:103C1000984217D01B4B984214D01B4B984211D09E
:103C20001A4B98420ED01A4B98420BD0194B98421F
:103C300008D0194B984205D0184B984202D0184B27
:103C4000984203D122F44072CB681A4322F08003D9
:103C50004C6943EA040202608B68C3620B688362AA
:103C6000054B984202D0084B984201D10B6903637F
:103C70000123436110BD000000000140000400402A
:103C800000080040000C00400004014000400140DA
:103C9000004401400048014000180040001C004062
:103CA0000020004030B501F01F05012404FA05F39F
:103CB000046A9C430462046A01F01F0502FA05F5D8
:103CC0002C43046230BD000030B5056A25F00105C3
:103CD0000562026A4368846924F0700424F00304D6
:103CE0000D682C4322F002028D682A43104DA84231
:103CF00000D103E00F4DA84206D100BF22F0080218
:103D0000CD682A4322F00402094DA84202D0094D91
:103D1000A84207D123F4807323F400734D692B4329
:103D20008D692B43436084614D684563026230BDF9
:103D3000000001400004014030B5056A25F010057F
:103D40000562026A4368846924F4E04424F4407400
:103D50000D6844EA052422F020028D6842EA05122B
:103D6000124DA84200D103E0114DA84207D100BF77
:103D700022F08002CD6842EA051222F040020B4D8B
:103D8000A84202D00A4DA84209D123F4806323F44B
:103D900000634D6943EA85038D6943EA8503436007
:103DA00084614D688563026230BD000000000140FF
:103DB0000004014030B5056A25F480750562026A89
:103DC0004368C46924F0700424F003040D682C4394
:103DD00022F400728D6842EA0522124DA84200D1F9
:103DE00003E0114DA84207D100BF22F40062CD6864
:103DF00042EA052222F480620A4DA84202D00A4D0E
:103E0000A84209D123F4805323F400534D6943EAB7
:103E100005138D6943EA05134360C4614D68C563AA
:103E2000026230BD000001400004014030B5056A67
:103E300025F480550562036A4468C26922F4E042B1
:103E400022F440720D6842EA052223F400538D6883
:103E500043EA0533084DA84202D0084DA84204D1D8
:103E600024F480444D6944EA85144460C2614D687D
:103E70000564036230BD0000000001400004014001
:103E800010B5012000F0E7FC044890F88E000349CB
:103E900081F88F00002000F0DEFC10BD300A002009
:103EA00010B50246154890F88E00144C94F88F40D7
:103EB000A04201D1002010BD104890F88E4029305A
:103EC000035D293890F88E403E3030F814001080A1
:103ED0000A4890F88E40663030F814000880074891
:103EE00090F88E00401CC0B2044C84F88E00142858
:103EF00002DB002084F88E001846DCE7300A002040
:103F000010B50020064981F82800064800780128ED
:103F100002D1FCF70DFF00E000BF00BF10BD0000A4
:103F2000300A0020280000202DE9FC4704460D46F9
:103F300016464FF00009CA461C4890F88F102930E9
:103F400044541B480078012804D12F46B046B94696
:103F50004646B2460FFA89F1144890F88F203E3059
:103F600020F812100FFA8AF13E3890F88F20663050
:103F700020F81210663890F88F00401CC0B20B4930
:103F800081F88F00142802DB002081F88F00074899
:103F9000C08C0649898C53464A46CDE9001021461B
:103FA00004A000F0F3FBBDE8FC870000300A00200D
:103FB0000C0A00202564202D202825642C2025644F
:103FC0002920616463583D25642C616463593D2553
:103FD000640D0A002DE9F04104462068006920F4D0
:103FE0004050E1680843216808612169A0680843DE
:103FF00061690843E16940EA01052068C06849F247
:104000000C61884328432168C8602068406920F417
:104010004070A169084321684861E069B0F5004F2C
:104020007ED1C4492068884203D0C34920688842B1
:104030005DD1FDF753FD00EBC00101EB001061689D
:104040004900B0FBF1F06421B0FBF1F00601FDF78F
:1040500045FD00EBC00101EB001061684900B0FBB9
:10406000F1F7FDF73BFD00EBC00101EB00106168CB
:104070004900B0FBF1F06421B0FBF1F000EBC001AE
:1040800001EB0010A7EB8000322101EBC00064219E
:10409000B0FBF1F000F0F80006EB4006FDF71EFD66
:1040A00000EBC00101EB001061684900B0FBF1F7C3
:1040B000FDF714FD00EBC00101EB00106168490041
:1040C000B0FBF1F06421B0FBF1F000EBC00101EBBB
:1040D0000010A7EB8000322101EBC0006421B0FB8F
:1040E000F1F000F0070030442168886020E1FDF71E
:1040F000E5FC00EBC00101EB001061684900B0FB7A
:10410000F1F06421B0FBF1F00601FDF7D7FC00EB04
:10411000C00101EB001061684900B0FBF1F700E05D
:1041200045E0FDF7CBFC00EBC00101EB001061683E
:104130004900B0FBF1F06421B0FBF1F000EBC001ED
:1041400001EB0010A7EB8000322101EBC0006421DD
:10415000B0FBF1F000F0F80006EB4006FDF7AEFC16
:1041600000EBC00101EB001061684900B0FBF1F702
:10417000FDF7A4FC00EBC00101EB001061684900F1
:10418000B0FBF1F06421B0FBF1F000EBC00101EBFA
:104190000010A7EB8000322101EBC0006421B0FBCE
:1041A000F1F000F00700304421688860C0E0614908
:1041B0002068884203D06049206888425CD1FDF7BE
:1041C0008DFC00EBC00101EB001061688900B0FBC1
:1041D000F1F6FDF783FC00EBC00101EB0010616814
:1041E0008900B0FBF1F06421B0FBF1F000EBC001FD
:1041F00001EB0010A6EB8000322101EB00106421DE
:10420000B0FBF1F000F0F006FDF768FC00EBC00138
:1042100001EB001061688900B0FBF1F06421B0FB94
:10422000F1F006EB0016FDF759FC00EBC00101EBC5
:10423000001061688900B0FBF1F7FDF74FFC00EB5F
:10424000C00101EB001061688900B0FBF1F064214E
:10425000B0FBF1F000EBC00101EB0010A7EB800018
:10426000322101EB00106421B0FBF1F000F00F00EF
:104270003044216888605BE0FDF720FC00EBC00162
:1042800001EB001061688900B0FBF1F6FDF716FC48
:1042900000EBC00101EB001061688900B0FBF1F098
:1042A0006421B0FBF1F000EBC00101EB0010A6EBC4
:1042B0008000322101EB00106421B0FBF1F000F02E
:1042C000F006FDF7FBFB00EBC00101EB001061689D
:1042D0008900B0FBF1F06421B0FBF1F006EB0016B1
:1042E000FDF7ECFB00EBC00101EB001061688900F9
:1042F000B0FBF1F7FDF7E2FB00EBC00101EB0010B2
:1043000061688900B0FBF1F06421B0FBF1F000EBD3
:10431000C00101EB0010A7EB8000322101EB00107F
:104320006421B0FBF1F000F00F0030442168886098
:10433000BDE8F081001001400014014010B50248B2
:1043400000F004F810BD0000E00100202DE9F0416C
:104350000446206805682068C6682068D0F8148084
:1043600005F02000D8B120684068C7B2E18AA06893
:104370004754E08A401C80B2E082E189884201DB38
:104380000020E082608BE189884202DA608B401C69
:104390006083606A10B13846616A884700BF05F0E3
:1043A000800028B306F0800010B3A08A60B92068AE
:1043B000C06820F080002168C8602068C06840F0B4
:1043C00040002168C86013E0012084F82800618A59
:1043D0006068405C21684860608A401C80B26082EE
:1043E000A189884201DB00206082A08A401EA08251
:1043F00005F0400018B306F0400000B3A08A68B989
:104400002068C06820F040002168C860206A08B1B8
:10441000206A8047002084F8280010E0618A6068E4
:10442000405C21684860608A401C80B26082A1893B
:10443000884201DB00206082A08A401EA082BDE885
:10444000F081F8B504460F461646002535E01CE01D
:1044500003F052F9A08A009003F078F9A089BDF822
:104460000010884200DD11E0A089BDF800108842EC
:104470000AD12068C06800F0800028B92068C068B0
:1044800040F080002168C86000BFE1E700BF785DB0
:10449000228A6168885403F02FF9208A401C80B278
:1044A0002082A189884201DB00202082A08A401C52
:1044B000A08203F04BF9681C85B2B542C7DB2068C7
:1044C000C06840F080002168C860F8BD0B480C4906
:1044D00008600C4848600C4888604FF48060888110
:1044E000C881002008824882C88208834883888265
:1044F000C8610862486281F82800704700100140D6
:10450000E00100200C0200200C06002000BFFEE7A6
:104510002DE9F003DFF884C0DCF800C0BCF1000F27
:1045200002D0BDE8F0036047DFF874C01D4EB2F161
:10453000004F1CD2012AD8BF0122012550F8044B9C
:104540005CFA84F7C4F30728C4F3074416F808801C
:104550001CF804403F7804EB481404EBC7240C809B
:104560006D1C19449542E9DDBDE8F003704750F831
:10457000044B5CFA84F5C4F30727C4F30744F75DE2
:104580001CF804402D7804EB471404EBC5240C8080
:104590001944521EEBD1BDE8F00370472001002002
:1045A0007843030878440308084A52FA80F1084B1C
:1045B000C0F3072CC0F3074013F80C30105C0978E7
:1045C00000EB431000EBC120704700007843030864
:1045D000784403084FF6FF70704700002DE9F003A0
:1045E000DFF894C0DCF804C0BCF1000F02D0BDE8D5
:1045F000F0036047A2F1010C0CFB030C01EB8200FD
:104600001E491F4E001FB2F1004F1DD2012AD8BF14
:104610000122002503FB15C4521E248805F1010563
:1046200004F01F07C4F3451801EBD42416F80880E2
:104630002478CF5D04EB082404EB074440F80449D8
:10464000E8D1BDE8F0037047BCF80040ACEB030CC8
:1046500004F01F05C4F3451701EBD424F75D24785B
:104660004D5D04EB072404EB054440F80449521E59
:10467000EAD1BDE8F0037047200100201843030889
:10468000384303082DE9F04707460D4690460024BD
:10469000A246072D13D2DFE805F0040A08090E0F21
:1046A00010001824DFF838A009E000BF00BF202464
:1046B000DFF830A003E000BF00BFBDE8F08700BF17
:1046C0002646A14604EBD970401007FB00A104EB7D
:1046D000D67042104046FBF729FE00BFEDE7000010
:1046E00054900008489600082DE9F05F81468A46FC
:1046F00016469B4600270025072E15D2DFE806F058
:1047000004070A0D1011120018271C4D0CE0202779
:104710001B4D09E048271B4D06E080271A4D03E09A
:1047200000BF00BFBDE8F09F00BF4FF0000821E0D0
:10473000B81C08FB00F408F101001FFA80F8285D9E
:1047400048450AD1601C285C504506D1A41C291993
:104750003A465846FBF7EAFD0DE0285DFF2809D1EF
:10476000601C285CFF2805D1FF2239465846FBF71C
:10477000FDFD00E0DCE700BF00BFD3E748A600086E
:1047800076B1000812E40008D0E500080FB4054B2C
:1047900010B503A9044A029800F022F910BC5DF894
:1047A00014FB0000056100082C0100200FB4084B29
:1047B00010B504A902AA039800F012F9044602A950
:1047C000002000F0AFFC204610BC5DF814FB000098
:1047D000255100087CB5044600201D4616460029D8
:1047E0000BD0491ECDE90041044B6A4629463046AC
:1047F00000F0F6F8009A002111707CBD0F510008FE
:1048000002480068C0F30220704700000CED00E091
:1048100010B5002804DB0A07130E054A135406E0FE
:104820000A07140E034A00F00F031B1FD45410BDD7
:1048300000E400E018ED00E002E008C8121F08C123
:10484000002AFAD170477047002001E001C1121F11
:10485000002AFBD1704780F3108870472DE9FF5F75
:1048600082B00021DDE90430020DDDF840B00343E1
:1048700018D044F61050A2F2FF324243151411989A
:1048800001281FD0A5EB0B00401C5FEA000A4FF087
:1048900000064E4FDFF83891B046504615D5CAF1A4
:1048A000000413E0119801244AA3012801D16FEA02
:1048B0000B010298119AC0E90031C0E9024206B02A
:1048C000BDE8F09FCBF10000DFE704460021404A3D
:1048D000491842EB0450CDE9001012E0E00707D080
:1048E00032463B4640464946FBF73EFE80468946F7
:1048F00032463B4610461946FBF736FE06460F4643
:104900006410002CEAD1DDE90401DDE90023BAF1ED
:10491000000F06DAFBF728FE42464B46FBF724FE63
:1049200005E0FBF793FE42464B46FBF78FFE04463D
:104930000E460022284BFBF711FF03D84FF0FF3043
:10494000014607E00022254B20463146FBF765FD76
:10495000FBF7EBFE102409E0002C0ADB0A220023FF
:10496000FBF7A0FC039B30321A55641E50EA01028B
:10497000F2D1641C039AC4F111031444119A012A60
:1049800003D0012208430DD10AE0084304D00020DF
:104990004FF0110B119072E7A3EB0B056D1E0DE0AC
:1049A0005B4504DD4FF0000205F1010504E003DA88
:1049B0004FF00002A5F10105002AECD002981199F0
:1049C000C0E90231C0E9004579E700000000144069
:1049D0000000F03F300000000000F0430000E03F26
:1049E0002DE9FF4F95B09B468946064600250FE20C
:1049F000252877D100242746F84A0121059400E0B4
:104A0000044316F8013F203B01FA03F01042F7D1AE
:104A100030782A2811D06FF02F033078A0F13002BF
:104A2000092A16D8059A44F0020402EB820203EB2D
:104A300042021044761C0590EFE759F8042B0592CA
:104A4000002A03DA504244F40054059044F0020472
:104A5000761C30782E2816D116F8010F44F0040485
:104A60002A280DD06FF02F023078A0F13003092BE7
:104A700009D807EB870302EB4303C718761CF3E75B
:104A800059F8047B761C30786C280FD006DC4C2853
:104A900017D068280DD06A2814D104E0742810D0EB
:104AA0007A280FD10DE044F400140AE044F4801495
:104AB00001E044F440147278824202D104F580147B
:104AC000761C761C307866280BD013DC582877D0FB
:104AD00009DC002875D04528F6D04628F4D04728B0
:104AE0001AD19DE118E0632835D0642879D0652873
:104AF00012D195E1702873D008DC6728F1D06928BD
:104B00006FD06E280DD06F2806D1B5E073282CD059
:104B1000752875D0782874D05A46179990476D1C1F
:104B200075E1C4F30250022809D003280DD0D9F84A
:104B3000001004280DD00D6009F1040967E1D9F8CF
:104B40000010EA17C1E90052F6E7D9F800100D800D
:104B5000F2E70D70F0E719F8041B8DF80010002043
:104B60008DF80100EA46012003E059F804AB4FF04C
:104B7000FF3061074FF0000102D40DE008F10101A0
:104B80008846B9420FDA8045F8DB1AF80810002988
:104B9000F4D108E008F1010188468142FADB1AF8F5
:104BA00008100029F6D105985B46A0EB08072146BE
:104BB0003846179A00F094FA284400EB080507E0FD
:104BC0004DE029E10DE01AF8010B5A46179990477C
:104BD000B8F10108F7D25B4621463846179A13E12F
:104BE00042E00A220092C4F302524FF0000A022A65
:104BF00008D059F804CB032A4FEAEC710AD00DE033
:104C000029E02AE009F1070121F00702F2E802C1D8
:104C1000914609E00FFA8CFC4FEAEC71042A03D1AB
:104C20004FFA8CFC4FEAEC71002907DA0A460021A2
:104C3000DCF1000C61EB02012D2202E0220504D51B
:104C40002B228DF80420012203E0E20701D020226C
:104C5000F7E7904659E00A2102E010220DE010210A
:104C60004FF0000A00910BE010224FF0000A44F0D0
:104C700004040827009203E008224FF0000A009283
:104C8000C4F30252022A05D059F804CB0021032AAA
:104C900008D009E009F1070121F00702F2E802C19A
:104CA000914605E01FFA8CFC042A01D10CF0FF0CA0
:104CB0004FF00008220728D5702806D0009B83F00B
:104CC000100353EA0A0305D00EE040228DF80420B9
:104CD000012208E05CEA010206D030228DF80420AF
:104CE0008DF8050002229046009B83F0080353EAEA
:104CF0000A030AD15CEA010201D1620705D530221C
:104D00008DF804204FF001087F1E582804D034A0ED
:104D100003900EA802900DE036A0F9E753466046D6
:104D2000009AFBF7BFFA84460398825C0298401E03
:104D3000029002705CEA0100F0D1029806A9081AFC
:104D400000F1200A600702D524F4803400E0012736
:104D5000574502DDA7EB0A0000E0002000EB0A0146
:104D6000009005984144401A0590E00306D45B4644
:104D70002146179A059800F0B3F90544002706E08C
:104D800001A85A46C05D179990476D1C7F1C474586
:104D9000F6DBE0030CD55B462146179A059800F038
:104DA0009FF9054404E030205A46179990476D1C3E
:104DB0000099481E00900029F5DC08E0029802994D
:104DC0005A460078491C0291179990476D1CBAF118
:104DD0000001AAF1010AF1DC65E1000009280100E7
:104DE0003031323334353637383961626364656661
:104DF0000000000030313233343536373839414223
:104E0000434445460000000000F058F90544761C74
:104E1000307800287FF4ECAD19B02846BDE8F08F5B
:104E2000620700D4062709F1070222F0070CFCE80C
:104E30000223E14603F000485FEA080C02D00FF2BB
:104E4000702C0DE05FEA045C02D50FF2682C07E0DD
:104E50005FEAC47C02D00FF2602C01E0AFF2700C6C
:104E60004FF0FF3823F00043CDF850C065280CD038
:104E700006DC452809D046281DD047283DD13DE015
:104E8000662818D067287ED138E00021112F01DB79
:104E9000112000E0781CCDE9000106A90EA8FFF75B
:104EA000DDFCDDE90F010E9A03910021009207F16C
:104EB000010A04914DE04FF000400097CDE9011048
:104EC00006A90EA8FFF7CAFCDDE90F0203920E9BAC
:104ED00011990022DDF80CA00093049211B9791CFD
:104EE00000EB010AB7EB0A0004D4C0F1FF3007F170
:104EF000010A0490AAEB0700019044E0012F00DAB8
:104F000001270021112F01DD112000E03846CDE9F5
:104F1000000106A90EA8FFF7A1FCDDE90F010E9A1A
:104F20000391002104910092BA4621070CD4039901
:104F3000514500DA8A46BAF1010F05DD009AAAF15F
:104F40000101515C302908D0B84202DA10F1040F97
:104F500006DA0121CDE9011015E0AAF10101E9E726
:104F6000002805DC049901440491AAEB000102E049
:104F7000411C514500DD8A460499401A401C0190AD
:104F80004FF000400290200704D40198504501DB07
:104F9000CDF8048000208DF84F0002980DF14F07E6
:104FA000B0F1004F25D02B200E9002984FF0020850
:104FB00000280CDA404202902D200E9007E00A21D2
:104FC0000298FBF7F5F93031029007F8011DB8F1AE
:104FD0000001A8F10108F2DC02980028EFD1791E47
:104FE0000E980870307800F0200040F0450007F877
:104FF000020D12A8C01B00F107081498007800B138
:10500000012000EB0A01019801EBE0710598414491
:10501000401A401E0590E00306D45B462146179ACD
:10502000059800F05DF805441498007818B15A46C8
:10503000179990476D1CE00324D55B462146179ACB
:10504000059800F04DF805441CE00498002807DBA3
:10505000DDE90301884203DD0098405C179901E017
:10506000179930205A469047049805F10105401CD5
:1050700004900198401E019004D12E205A461799A1
:1050800090476D1CBAF10001AAF1010ADDDC05E0D0
:1050900017F8010B5A46179990476D1CB8F100019B
:1050A000A8F10108F4DC5B462146179A0598ABE6A7
:1050B0002D0000002B000000200000002DE9F04131
:1050C000044600251E461746880404D405E03946E8
:1050D0002020B0476D1C641EF9D52846BDE8F0813C
:1050E0002DE9F041044600251E469046C80301D52F
:1050F000302700E02027880404D505E041463846E3
:10510000B0476D1C641EF9D52846BDE8F0814A6899
:10511000002A06D00A68531C0B6010704868401EB5
:10512000486070470A68531C0B601070704730B5B8
:1051300085B005460C46284600F068FB012001902A
:105140000020029003200390009469462846FBF754
:105150009BFF05B030BD70B586B006460C461546BF
:10516000304600F053FB284600F012FC022002906B
:105170000120039003200490284600F0D7F8059002
:10518000019401A93046FBF77FFF06B070BD10B552
:1051900004464FF47A7104FB01F000F001F810BDF1
:1051A00030B5084C63680021074C2468074DB4FBF8
:1051B000F5F404FB00F202E0024C6468E11A91424B
:1051C000FAD330BD001000E05000002040420F0034
:1051D00070B50546304800EB05142846FDF700FB86
:1051E00000283ED02079052802DA0520207152E0FF
:1051F00020790A2803DA2079401C20714BE0A07A3C
:1052000038B90120A07205EB4501491CC8B200F075
:10521000EDFA208900283EDDE088218988420DDAF8
:10522000E088401C80B2E0802189884233D105EBC0
:105230004501C91CC8B200F0D9FA2CE0E07A002878
:1052400029DD207B401CC0B22073E17A884222DB3A
:105250000020207305EB4501491CC8B200F0C6FAD6
:1052600019E02079052802DD0520207110E0207961
:1052700018B12079401E20710AE0A07A012807D1D8
:105280000020A07205EB4501891CC8B200F0AEFAFF
:105290000020E080207370BD3001002010B5FF2099
:1052A0001249087012490870002415E0BA2000F075
:1052B0004DFF60B9BA200F49887001200B49087072
:1052C00004200B4908700CA0FFF760FA06E00A20E2
:1052D000FFF75DFF601CC4B2052CE7DB00BF052CA7
:1052E00002D10DA0FFF752FA10BD000028000020E7
:1052F000290000200C0A0020BCECB2E2B5BD372E1C
:1053000030B4E7B5E7C8DDB4A5C3FEC6C120383068
:1053100030783438300D0A00CEB4CAB6B1F0B3F6E6
:10532000CFD4CABEC4A3BFE90D0A000070B50446BD
:1053300000252148844201D101253AE0B4F1804F93
:1053400001D1012535E01D48844201D1022530E01C
:105350001B48844201D102252BE01A48844201D126
:10536000022526E01848844201D1032521E0174890
:10537000844201D103251CE01548844201D1032554
:1053800017E01448844201D1032512E012488442F8
:1053900001D109250DE01148844201D1092508E019
:1053A0000F48844201D1092503E0C3210DA0FBF77A
:1053B00072FB284670BD0000000001400004004060
:1053C00000080040000C0040000401400040014083
:1053D000004401400048014000180040001C00400B
:1053E000002000402E2E5C557365725C6273705C09
:1053F0007372635C6273705F74696D5F70776D2E3A
:10540000630000000B48807A0A4AD27A904201D1A8
:10541000002070470748807A064A115C1046807A5F
:10542000401CC0B290720A2801DB0020907208462E
:10543000EFE70000D001002008B5FBF73FFF00BFF9
:10544000002000901348006840F480501149086023
:105450000846006800F48050009000BF00BFFEF7CF
:10546000FBFA00F019F800F0B3F800F06BF900F067
:1054700075F800F059F900F083F86420FFF787FE13
:1054800000F01EF8FFF70AFFFEF73AFDFDF7B8FF40
:1054900008BD0000303802400748006840F08070C6
:1054A000054908600020054948600846006840F04A
:1054B0000100086070470000FCED00E0001000E013
:1054C00000B595B0342108A8FAF757FF1C2101A8B0
:1054D000FAF753FFFEF758F900BF002000901D486F
:1054E000006840F001001B4908600846006800F0B1
:1054F0000100009000BF00BF022001900720029031
:105500000420039007200490022005900690079045
:10551000114808900020099000210A9104210B9164
:1055200020210C9140210D914FF4C0710E9100216A
:105530000F914FF4006110914900119149001291AF
:1055400001A908A8FCF75AFD08A8FEF7E9F915B06B
:1055500000BD000038380240400100A010B5FCF743
:105560008DFFFCF73DFF40F61470034908600846C4
:1055700000680249086010BD180000200010006497
:1055800000B587B000BF002001900F48006840F0D0
:1055900002000D4908600846006800F00200019012
:1055A00000BF00BF1120039000200490022005904E
:1055B0004FF41070029002A90448FBF765FD00F05B
:1055C00063FE07B000BD0000303802400004024016
:1055D00010B500F06DF800F001F810BD10B586B000
:1055E00000BF002000903048006840F004002E49C1
:1055F00008600846006800F00400009000BF00BF8B
:1056000000BF002000900846006840F020000860BD
:105610000846006800F02000009000BF00BF00BFF7
:10562000002000900846006840F0400008600846EE
:10563000006800F04000009000BF00BF00BF0020E5
:1056400000900846006840F0800008600846006846
:1056500000F08000009000BF00BF00BF002000905D
:105660000846006840F4807008600846006800F44E
:105670008070009000BF00BF0020029003900320C4
:10568000049000240CE0094800EBC40080880190DD
:10569000064951F8340001A9FBF7F6FC601CC4B2BE
:1056A000082CF0DB06B010BD30380240E48F000853
:1056B00010B500201A498872C8720873002418E0D7
:1056C0006420184901EB041108810220154901EBFF
:1056D000041108710020134901EB0411887211496B
:1056E00001EB0411C8720F4901EB04110873601C2F
:1056F000C4B20A2CE4DB06226421032000F098FAED
:1057000006226421042000F093FA06226421052079
:1057100000F08EFA06226421104600F089FA10BDCE
:10572000D00100203001002010B5012000F01DF84C
:10573000022000F01AF8032000F017F8042000F00F
:1057400014F810BD10B5FEF7C1FEFCF7D7FFFDF74A
:10575000F7FF10BD10B5002404E02046FFF738FD28
:10576000601CC4B20A2CF8DB10BD10B50446012C35
:1057700004D101210002FCF727FF13E0022C04D121
:1057800001214802FCF720FF0CE0032C04D1012189
:105790008802FCF719FF05E0042C03D10121C8029F
:1057A000FCF712FF10BD70B50446012C01D10502B3
:1057B0000DE0022C01D1250209E0032C02D14FF4A7
:1057C000806504E0042C01D1650200E070BD28462C
:1057D000FCF7EEFE20B100212846FCF7F5FE03E0C1
:1057E00001212846FCF7F0FE00BFEFE70649C97A21
:1057F000054A50541146C97A491CC9B2D1720A29C6
:1058000001DB0021D1727047D001002008B5564954
:1058100088420FD100BF002100915449096841F02E
:105820000101524A11601146096801F0010100911D
:1058300000BF97E04E4988420FD100BF0021009180
:105840004A49096841F00201484A11601146096855
:1058500001F00201009100BF84E0464988420FD167
:1058600000BF002100914149096841F004013F4A0D
:1058700011601146096801F00401009100BF71E058
:105880003D4988420FD100BF002100913749096886
:1058900041F00801354A11601146096801F008011C
:1058A000009100BF5EE0354988420FD100BF002162
:1058B00000912E49096841F010012C4A11601146EF
:1058C000096801F01001009100BF4BE02C498842AB
:1058D0000FD100BF002100912449096841F0200147
:1058E000224A11601146096801F02001009100BFB1
:1058F00038E0244988420FD100BF002100911B49A4
:10590000096841F04001194A11601146096801F027
:105910004001009100BF25E01B4988420FD100BF24
:10592000002100911149096841F080010F4A11607E
:105930001146096801F08001009100BF12E013498F
:1059400088420FD100BF002100910849096841F445
:105950008071064A11601146096801F48071009156
:1059600000BF00BF08BD0000000002403038024008
:105970000004024000080240000C024000100240F7
:105980000014024000180240001C024000200240A7
:1059900038B50446904884420FD100BF00200090E3
:1059A0008E48006840F001008C4908600846006895
:1059B00000F00100009000BF0CE1B4F1804F11D164
:1059C00000BF002000908548001F006840F00100E3
:1059D0008249091F08600846006800F00100009035
:1059E00000BFF7E07E48844211D100BF0020009044
:1059F0007A48001F006840F002007849091F0860DB
:105A00000846006800F00200009000BFE2E0754820
:105A1000844211D100BF002000907048001F006830
:105A200040F004006D49091F08600846006800F056
:105A30000400009000BFCDE06B48844211D100BF4C
:105A4000002000906548001F006840F0080063498E
:105A5000091F08600846006800F00800009000BFB9
:105A6000B8E06248844211D100BF002000905B483A
:105A7000001F006840F010005849091F08600846E0
:105A8000006800F01000009000BFA3E05848844276
:105A900011D100BF002000905048001F006840F066
:105AA00020004E49091F08600846006800F02000E9
:105AB000009000BF8EE04F4884420FD100BF00200D
:105AC00000904648006840F00200444908600846DB
:105AD000006800F00200009000BF7BE0464884426E
