:020000040800F2
:1000000070BA00208102000837B80008BD08000857
:1000100033B800088D0E0008B9CB000800000000BE
:10002000000000000000000000000000C101000806
:10003000950F0008000000001D020008EDC1000837
:100040009B0200089B0200089B0200089B0200081C
:100050009B0200089B0200089B0200089B0200080C
:100060009B0200089B0200089B0200089B020008FC
:100070009B0200089B0200089B0200089B020008EC
:100080009B0200089B0200089B0200089B020008DC
:100090009B0200089B0200089B0200089B020008CC
:1000A0009B0200089B0200089B0200089B020008BC
:1000B0009B0200089B0200089B0200089B020008AC
:1000C0009B0200089B0200089B0200089B0200089C
:1000D0009B020008E1C900089B0200089B0200087F
:1000E0009B0200089B0200089B0200089B0200087C
:1000F0009B0200089B0200089B0200089B0200086C
:100100009B0200089B0200089B0200089B0200085B
:100110009B0200089B0200086DC300089B020008B8
:100120009B0200089B0200089B0200089B0200083B
:100130009B0200089B0200089B0200089B0200082B
:100140009B0200089B0200089B0200089B0200081B
:100150009B0200089B0200089B0200089B0200080B
:100160009B0200089B0200089B0200089B020008FB
:100170009B0200089B0200089B0200080000000090
:100180009B0200089B0200089B0200089B020008DB
:100190009B0200089B0200089B0200089B020008CB
:1001A0006DB500089B020008890F0008DFF80CD02D
:1001B00000F0D8FA00480047B57D010870BA002069
:1001C0002C4B19680868B0E8F04F80F30988BFF33A
:1001D0006F8F4FF0000080F311887047000000001F
:1001E00008480068006880F308884FF0000080F33A
:1001F000148862B661B6BFF34F8FBFF36F8F00DF15
:1002000000BF00BF08ED00E0DFF80C00016841F41A
:1002100070010160704700BF88ED00E0EFF30980D6
:10022000BFF36F8F134B1A681EF0100F08BF20ED3D
:10023000108A20E9F04F106009B44FF0100080F3ED
:100240001188BFF34F8FBFF36F8F19F0FFF84FF096
:10025000000080F3118809BC19680868B0E8F04F05
:100260001EF0100F08BFB0EC108A80F30988BFF3AE
:100270006F8F7047C4000020EFF3058070470000C7
:100280000648804706480047FEE7FEE7FEE7FEE730
:10029000FEE7FEE7FEE7FEE7FEE7FEE709C300082C
:1002A000AD0100082DE9F05F0546002092469B460F
:1002B00088460646814640241BE02846414647467C
:1002C000224600F087F853465A46C01A914110D38F
:1002D00011461846224600F06EF82D1A67EB010809
:1002E0004F4622460120002100F065F817EB000977
:1002F0004E41201EA4F10104DFDC484631462A4667
:100300004346BDE8F09F10B5431A934209D28318C3
:10031000881803E010F8011D03F8011D521EF9D2E0
:1003200010BD40EA01039B0703D009E008C9121F72
:1003300008C0042AFAD203E011F8013B00F8013B9F
:10034000521EF9D210BDD2B201E000F8012B491EB5
:10035000FBD270470022F6E710B513460A46044662
:100360001946FFF7F0FF204610BD421C10F8011B94
:100370000029FBD1801A7047034611F8012B00F8C1
:10038000012B002AF9D11846704730B50B460146BB
:1003900000202022012409E021FA02F59D4205D324
:1003A00003FA02F5491B04FA02F52844151EA2F1CE
:1003B0000102F1DC30BD202A04DB203A00FA02F110
:1003C000002070479140C2F1200320FA03F3194343
:1003D00090407047202A04DB203A21FA02F00021E5
:1003E000704721FA02F3D040C2F120029140084345
:1003F000194670472DE9FE4F804681EA0300C00F81
:100400000C46009021F0004123F00045B8EB0200BB
:10041000A94105D24046214690461C460B4602465D
:1004200023F00040104347D0270DC7F30A00C3F361
:100430000A510290401A019040286BDAC3F313006E
:1004400040F4801B0098924620B10023D2EB030AAF
:1004500063EB0B0B01985946C0F140025046FFF781
:10046000AAFF06460D4650465946019A00F08CF9FF
:1004700010EB08006141002487EA115284EAE77317
:100480001A4340D0009A62B3019A012A4FEA0752F8
:1004900015DC001B61EB02014FF0004202EA07523B
:1004A000CDE90042001C41F5801132462B4600F098
:1004B0008CF903B0BDE8F08F40462146F9E7001BF8
:1004C00061EB0201001C41F5801300185B4120180C
:1004D000A2F5001747EB030140EAD570B6196D414C
:1004E00011E06D084FEA360645EAC0754FEA07523B
:1004F000001B61EB0201001C41F5801149084FEA25
:1005000030000019514132462B4603B0BDE8F04F90
:1005100000F04CB90098012240000023D0EB020209
:1005200063EBE073009821464FEAE074B8EB0000FB
:1005300061EB0401E9E783F000435BE781F00041F0
:1005400058E72DE9FE4F81EA030404F0004421F04E
:10055000004100944FF0000B23F0004350EA0104E7
:100560005ED052EA03045BD0C3F30A54C1F30A55C8
:100570002C44A4F2F3340194A0FB0254C1F3130100
:1005800041F48011C3F3130343F4801301FB0244CD
:1005900000FB034E840A970A44EA815447EA8357D2
:1005A000A4FB076802958D0A05FB07854FEA932C8B
:1005B00004FB0C542705029D4FEA065847EA1637FC
:1005C000B5EB08056EEB070C870E920E47EA811714
:1005D00042EA8312A7FB0201B6EB0B0164EB0004B5
:1005E0002B0D43EA0C335E1844EB1C50DA4651469F
:1005F000E7FB0201C5F313044FEA0B3343EA14533C
:100600004FEA0432019C43EA0603A4F10C0402946D
:10061000009CCDE900B400F0D8F803B0BDE8F08F3D
:1006200000200146F9E72DE9F04D81EA030404F0CA
:10063000004B21F0004514464FF0000A23F0004122
:1006400050EA050220D054EA01021DD0C5F30A5732
:100650000246C5F31303C1F31300C1F30A5640F475
:10066000801543F48013A7EB0608101BD64608F24A
:10067000FD3873EB050002D308F1010801E0921880
:100680005B41B8F1000F03DA00200146BDE8F08DB0
:1006900000204FF48011064684460EE0171B73EBD2
:1006A000050705D3121B63EB050306434CEA010C57
:1006B00049084FEA300092185B4150EA0107EDD13A
:1006C00052EA030012D082EA040083EA05010843DB
:1006D00005D0101BAB4106D20122002306E0002208
:1006E0004FF0004302E06FF0010253101AEB0600D6
:1006F0004CEB085110EB0A0041EB0B01BDE8F04D4B
:1007000000F054B8C1F30A52C1F3130140F2FF33B1
:1007100041F480119A4202DA00200146704740F20B
:1007200033439A42A2F2334202DC5242FFF752BEF6
:10073000FFF741BE30B5041E71F1000404DB4FF039
:100740000044404264EB0101141E73F1000405DB18
:100750001C464FF00043524263EB0403994208BF2A
:10076000904230BD064C074D06E0E06840F00103C2
:1007700094E8070098471034AC42F6D3FFF71AFD0F
:1007800038F7010858F70108202A06DBCB17203A72
:1007900041FA02F043EAE07306E041FA02F3D04086
:1007A000C2F12002914008431946704710B5141E4B
:1007B00073F1000408DA401C41F1000192185B411A
:1007C0001A4301D120F0010010BD2DE9F04D9246F1
:1007D0009B4611B1B1FA81F202E0B0FA80F2203208
:1007E0009046FFF7E8FD04460F4640EA0A0041EA5A
:1007F0000B0153465A46084313D0114653EA0100F1
:1008000019D0C8F140025046FFF7E4FD05460E46F8
:10081000504659464246FFF7CEFD084305D0012019
:1008200004E020463946BDE8F08D0020054346EA45
:10083000E0762C4337430A986305E40AA0EB0800EE
:100840000022FD0A44EA47540A3002D5002001463E
:10085000E9E7010510196941DDE908450019694119
:10086000BDE8F04DA2E770B58C1810F8015B15F0EB
:10087000070301D110F8013B2A1106D110F8012B12
:1008800003E010F8016B01F8016B5B1EF9D12B0737
:1008900005D40023521E0DD401F8013BFAE710F8ED
:1008A000013BCB1A921C03E013F8015B01F8015BDA
:1008B000521EF9D5A142D8D3002070BD1EF0040FFE
:1008C0000CBFEFF30880EFF3098009F01FB80000B8
:1008D00010B5012018F06AFF0149086010BD000042
:1008E000100000201CB50020012103468A02CDE93A
:1008F000001012A1144819F029FB1448022100230A
:100900000A02CDE9001012A1144819F01FFB144887
:10091000032100234FF40072CDE9001011A1144807
:1009200019F014FB134804210023CA01CDE900107B
:1009300011A1144819F00AFB1CBD00007654617324
:100940006B475549000000009D8F01080000002002
:10095000765461736B5573657249460019950108A9
:1009600004000020765461736B4C45440000000085
:10097000059101080C000020765461736B5374617B
:1009800072740000759301080FB400B5B5B037A8B4
:100990000190C92102A8019B369A15F095FB002011
:1009A0000190411E0848006819F0AEF902A907A09D
:1009B00015F066FB00231A4619460348006818F034
:1009C0007FFF35B05DF814FB100000202573000098
:1009D00038B544680546014620460CF00AF900285F
:1009E00008BF38BD464A286811280DD006DC0B2800
:1009F0002AD00E2838D00F2817D07CE0282873D0B2
:100A0000B0F5107F0AD076E09268002A08BF38BDA2
:100A1000294601B02046BDE830401047526801B079
:100A200029462046BDE8304010472546204602F0C2
:100A300075FC0090406E0468684602F0D9FC002CFA
:100A40001CBF2846A04738BD204602F067FC009036
:100A5000683002F065FB009803216C3002F08EFBD9
:100A6000684602F0C5FC46E0E968486809680D2957
:100A700002D0202918D037E0002835DD4FF48071EE
:100A800020460CF081F9204602F048FC009090F8D6
:100A90002850684602F0ACFC15F0020F1ED0012170
:100AA00020460DF0E3FA19E0002817DD25464FF443
:100AB000807120460CF068F9284602F02FFC009067
:100AC00090F82840684602F093FC14F0020F08BF2B
:100AD00038BD012128460DF0C9FA38BD2046BDE8D1
:100AE0003840022113F05EBFE86820B920464FF479
:100AF00080710CF063F82846BDE838400CF0CCBAA1
:100B00007802002070B5044686B08069B4F908C048
:100B1000658A00260091CDE90165CDE903C0B4F9ED
:100B20000C00B4F91050C118B4F90A00B4F90EC0A1
:100B300010442B46624600F007F80546616800F055
:100B400079F906B0284670BD2DE9F04F85B098467A
:100B5000DDE91164DDE90E5791468A46834603F0CC
:100B6000BBFD04F14C001749CDE90210CDE9005757
:100B700043464A46514658460CF0D2F905001BD070
:100B800002F0CCFB1022314604900CF02FF90E4CF1
:100B90000499B4E8CD133431A1E8CD1394E80D10D5
:100BA000A1E80D1054F82C0D086004A802F020FCF8
:100BB000206841682846884705F048FF05B0284668
:100BC000BDE8F08FD109000884020020F0B504468A
:100BD00080688C4989B051F820506068002800F086
:100BE0000A81052806D006287DD0122800F0B4809E
:100BF00000F004B9E869002808BF002651D0D5E903
:100C00000012AB688DE80F0004F110010FC906F067
:100C1000F3FC002655F8260005F061FCA169E8699F
:100C20000A1A216901446069304403F01DFAA16980
:100C3000E8690A1A21690144E069801B03F014FA8B
:100C4000E169E8690A1A616901442069304403F0E6
:100C5000D5FAE169E8690A1A61690144A069801B53
:100C600003F0CCFA761C022ED4DBA86805F037FC22
:100C7000E069E969D4F814C0431A20694218614454
:100C8000801C521E03F016FBE169E869A2690B1A89
:100C900061690144101A401C921E03F00BFBEE69BF
:100CA00011E055F8260005F01AFCE069831BA069E5
:100CB000821B606981192069304403F057FA761C61
:100CC000022EEEDB0226D5E90301CDE90001E16940
:100CD000606901444B10A1698A1B811C2069304462
:100CE00003F0B8F800E011E0D5E90501CDE9000115
:100CF000E0696169831E01440122A06902EB610180
:100D0000821B2069304403F0A5F877E0206802F0E8
:100D100005FB049020680EF01BFA50B1A068002873
:100D200018BF00200AD10498006F002818BF0120C6
:100D300004E00498406F002818BF0220049901EBDA
:100D40008000C56E04A802F053FB00231A46284613
:100D5000216802F03DFE51E0206802F0DFFA0490C5
:100D6000866E002E08BF04A842D0A168B0F95C705E
:100D7000002908BF012103D003290CBF0221002153
:100D800000EB8101406D0C6C05F0C0FB204605F0C6
:100D9000A6FB06A803F096FBBDF81810A88B01442B
:100DA000ADF81810BDF81C10081AADF81C00BDF8FD
:100DB0001A00801CADF81A00BDF81E00801EADF8A8
:100DC0001E000498B0F96020B0F95E1006A804F087
:100DD000A3FE04A802F00CFB022005F033FC304611
:100DE00002F09CFA3A4606A9059002F03FFE05A8DB
:100DF00002F0FEFA02E020680DF02AFC09B00020A3
:100E0000F0BD0000ACED0108002808BF704738B500
:100E10000C46054603F060FC284602F07FFA00907D
:100E20004465684602F0E4FA28460DF04FF805F0F4
:100E30000DFE38BDF0B583B00F4605004FF001043C
:100E400021D003F049FC284602F068FA0190866E32
:100E500001A8009602F0CCFA3946684607F0ACF8D3
:100E600078B100980024B04208D0284602F056FA23
:100E700001900099816601A802F0BAFA28460DF0A7
:100E800025F805F0E3FD03B02046F0BD00BFFEE706
:100E900010B504460CB9124810BD012C01D1002038
:100EA000FAE7022C01D10020F6E7032C01D1002043
:100EB000F2E7042C01D10020EEE7052C01D100203F
:100EC000EAE7062C01D10020E6E7072C01D100203B
:100ED000E2E74FF48E7103A000F05DF80020DBE73D
:100EE0000C0600202E2E5C557365725C6273705C7C
:100EF0007372635C6273705F756172745F6669665A
:100F00006F2E63007CB50CF0EDFB054600200090D1
:100F10002B46044A03210190034802F0C5FB044616
:100F200020467CBDF1610108A4A501082DE9F04728
:100F300007460C4615461E46DDE90889384609F085
:100F400005FE82460E480F4908600846C0F83890F2
:100F5000C463C0F84080C0F834A0304665F31F4039
:100F600048640846006840F00100086000BF05487A
:100F7000006800F001000028F9D1BDE8F08700000A
:100F80000002030000B0024002200149886070475F
:100F900000B00240704701B9704700BFFEE7000093
:100FA00070B504461D460023B5F5804F13D154F8A3
:100FB00022300C480340D1E9000640EA06108E6852
:100FC00040EA06208E8940EA06408E69304303439A
:100FD00044F8223003E06FF0704044F82200002013
:100FE00070BD00000000F0CF10B502460023086875
:100FF00052F8203018480340D1E901042043CC685E
:1010000020430C6920434C6920438C692043CC6900
:1010100020430C6A20434C6A20438C6A2043CC6AEC
:101020002043CC6B20430C6B20434C6B2043034389
:101030008868082801D143F04003086842F820304E
:10104000486BB0F5801F05D1086818B110684C6B6B
:1010500020431060002010BD8000E0FF30B5034643
:1010600014460022601C53F8202002F04042D1E9CF
:10107000000540EA05108D6840EA05208D8940EAA8
:101080000545088A401E45EA0055087D801E45EA50
:1010900000608D6928430243601C43F820201868D3
:1010A00000F48010B0F5801F07D1586820F470025A
:1010B000088A401E42EA00525A60002030BD30B516
:1010C0000246002300240868012816D013686FF335
:1010D0000E03D1E901052843CD6828430D69284353
:1010E0004D6928438D692843CD6928430D6A2843FB
:1010F0004D6A28430343136019E0136823F4F8434F
:10110000D1E9070528434D6A2843034354686FF328
:101110000E04D1E901052843CD6828430D69284311
:101120004D6928438D6928430443136054600020AF
:1011300030BD0246506940EA4100506100207047CE
:10114000F8B506460C461546002000900027D4E965
:1011500000010843A168491E40EA4110E16840EAE5
:10116000412000900098306107F0BCF9074609E083
:10117000681C38B125B107F0B5F9C01BA84201D9E8
:101180000320F8BDB06900F020002028F0D0002036
:10119000F7E7000070B50346154600220024012D34
:1011A0001FD09A6802F070420868401E4E68761E92
:1011B00040EA06168868401E46EA0026C868401EB7
:1011C00046EA0036088A401E46EA0046888A401EE3
:1011D00046EA0056087E401E46EA006002439A60D6
:1011E00022E09A6811480240C868401E0603888AB7
:1011F000401E46EA00500243DC6804F07044086870
:10120000401E4E68761E40EA06168868401E46EA72
:101210000026088A401E46EA0046087E401E46EA2E
:10122000006004439A60DC60002070BDFF0F0FFF78
:101230002DE9F047446805468EB04FF0000820467F
:1012400002F06CF80090B0F87CA0D0F86890D0F86C
:101250008070D0F88860C06D002818BFD0F800807A
:10126000684602F0C5F856B17168284688470028DC
:101270001CBF0EB0BDE8F0873668002EF4D1286898
:10128000172802BFC5F80C900EB0BDE8F08713DC3C
:101290000F2844D00ADC0B2800F053810D2808BF2A
:1012A0001AF0080F00F0F68000F054B9112814D09D
:1012B000142870D000F04EB926286DD006DC1E2808
:1012C0006BD0202800F0F08000F044B92A2818D014
:1012D000B0F5107F2AD000F03DB92046EE6802F04C
:1012E0001DF80190717A002904BF317A012905D1D6
:1012F000B0F87C1041F48071A0F87C1001A800F0D7
:10130000FDB8204602F00AF80090E968002912BFF3
:10131000C0F88410D0F88400E860684649E0B8F16D
:10132000000F1CBF2046C04700F014B927462046D6
:10133000EE6801F0F3FF0190B0F87C4001A802F0E4
:1013400057F8E868002804BF0EB0BDE8F087307A8F
:1013500020B314F0080F04BF38460DF097F8384654
:101360000BF09AFD14F0100F12BF14F4807F0EB032
:10137000BDE8F087002314F0800F1CBF0EB0BDE85D
:10138000F08779483146B0F9002038460DF024F84E
:101390000EB0BDE8F0870FE018E024E0384601F019
:1013A000BDFF0190B0F87C1021F48071A0F87C1092
:1013B00001A802F01DF8EBE705A9204600F0EEFBBE
:1013C000DDE90612E86801604260E1E7E8680228AA
:1013D000DED10C94E8680D9027200A900AA9A8682D
:1013E0000EF084F8D4E7E868012819D0002CCFD09B
:1013F00003F072F9204601F091FF0190B0F87C10E3
:1014000011F0080F06D021F00801A0F87C1020464A
:101410000CF05CFD01A801F0EBFF05F017FBB7E74E
:1014200038460CF0C7FD58B138460DF02FF8384655
:101430000CF062FC88B1012138460BF0A5FC0CE0F1
:1014400048460DF07FF80746204601F067FF009000
:10145000C0F88070684601F0CBFFB4B103F03CF9EE
:10146000204601F05BFF0290B0F87C1011F0080FED
:1014700006D141F00801A0F87C1020460CF026FDB2
:1014800002A801F0B5FF05F0E1FA002F04BF00202B
:10149000E8607DE7E868C06800281FBF007A002880
:1014A00020460CF0F3FF55E0EE684EB3214670681D
:1014B0000DF026FE00282746204622D001F02EFF00
:1014C0000490B0F87C1011F0080F06D141F008012B
:1014D000A0F87C1038460CF0F9FC04A801F088FF55
:1014E000214670680DF0F8FD50B1204601F016FF5E
:1014F00002907168C0F880100DF1080001F078FFCB
:1015000028E001F00BFF0490B0F87C1011F0080FF8
:1015100006D021F00801A0F87C1038460CF0D6FC6B
:1015200004A801F065FF214630680DF0D5FD88B1B3
:10153000204601F0F3FE02903168C0F8801002A846
:10154000DCE7204601F0EAFE0090703001F0E8FD93
:101550006846D3E7294620460BF04BFB00281CBF0A
:1015600028460BF099FD13E7B402002070B588B04F
:10157000B0F908400DF10C0E0C9ED0F818C045686B
:101580008EE87010B0F812C00024CDE90014CDF838
:1015900008C0B0F90C10B0F91040B0F90EC0B0F9A5
:1015A0000A00194410442346624600F003F808B0CC
:1015B00070BD00002DE9FF4F8BB09946DDE918851D
:1015C000DDE91B6792468B461E9C03F085F804F10B
:1015D0006000444945F48055CDE90210CDE900850D
:1015E0004B46524659460B980BF09AFC040073D0B8
:1015F00001F094FE3022314604900BF0F7FB3A4E96
:10160000049A06F1080102F1340E91E80B1F8EE8EE
:101610000B1FD6E90A01C2E915011D9850661A98F8
:10162000A2F87C004FF00008C2F88080C2F86C80FD
:10163000C2F888807068D06504A801F0D9FE05A9B9
:10164000204600F0ABFA294841F28271CDF80C80B7
:101650000094CDE90110BDF91E00BDF91A10BDF9C5
:101660001C20401A431CBDF91800121A521C0BF022
:1016700057FC80467068416820468847204601F044
:101680004DFE0490C0F8688004A801F0B1FE42F25B
:101690000400054204BF20460BF0F0FD03F01CF8E7
:1016A000204601F03BFE0090006F0190684601F07B
:1016B0009FFE394601A806F07FFC58B1204601F094
:1016C0002DFE009001990167684601F091FE2046C9
:1016D0000CF0FCFB05F0BAF905F0B8F90FB02046A4
:1016E000BDE8F08F31120008B4020020571F000837
:1016F0002DE9F041044698B0006800F0BDF90028DB
:1017000014BFDB4DDB4D6068152802BFA86A18B016
:10171000BDE8F08112DC0B282AD007DC002800F09D
:101720009281052800F02C8100F09DB90E2800F070
:101730007781122800F03B8100F095B9162802BF8E
:10174000E86918B0BDE8F081172802BF286A18B010
:10175000BDE8F081182802BF686A18B0BDE8F081C2
:101760001C2802BF686918B0BDE8F08100F07BB9A1
:1017700020680E901C200F90206801F0CFFD039090
:10178000016D0EA88847064603A801F031FE022E1F
:1017900011DBD5E90001AA680292CDE90001D4E984
:1017A00004023346A16905F025FE20698719A06966
:1017B000A0EB06082CE0286804F091FE2169E86996
:1017C0000844421E606902F04FFCA269E869101AE1
:1017D000411C606902F048FC6069471C3946206979
:1017E00002F09CFC3946A06902F098FC686804F09D
:1017F00076FE20693946401C02F090FCA06939460B
:10180000401E02F08BFC2069871CA069A0F1020831
:10181000286804F064FE42463946606902F024FC00
:10182000686804F05CFE606942463946401C02F07C
:101830001BFC686A02287DDDA86804F050FE606920
:101840006A6A811C1044431E4246384602F032FD4B
:101850006069022EACBF0644861CE069471E2868FA
:1018600004F03DFE3A463146206902F0C7FC3A4694
:101870003146A06902F0C2FCE069871E686804F086
:101880002EFE20693A463146401C02F0B7FCA069A2
:101890003A463146401E02F0B1FCE8690228DCBF3E
:1018A000286A022820DDA86A0228C7BFE1690F1A4A
:1018B000E069871EA86804F012FEE969022907DDC5
:1018C00022693B46901C11444A1E314602F0F2FC4C
:1018D000286A022808DDA169E8698A1E081A3B46C1
:1018E0003146401C02F0E6FC286804F0F8FDD4E91B
:1018F0000620216902F0B8FB686804F0F0FDA069D9
:10190000421E2069411CE069401E02F0ADFBA86A3E
:1019100002284BDD21698E1CA1698F1EE169081A1E
:10192000441CA1F10208A86804F0D9FD43463A46D8
:10193000214600E003E0304602F0BCFC93E0296A57
:10194000B14285DD6069022E00F10208ACBF871943
:1019500047462069ACBF3044801C22693B46114495
:10196000A1F10102414602F0A5FCA069022EACBF24
:10197000821B821EE9693B46401A4146401C65E7CE
:10198000208A00B2ADF81800A18A09B2ADF81A1089
:10199000228B12B2ADF81C20A38B1BB2ADF81E3007
:1019A000D5E9034CCDE9004C02F054FA5BE0208A03
:1019B000298B0844ADF81800A08AADF81A00208BD6
:1019C000298B401AADF81C00A08BADF81E002068D2
:1019D00001F0A4FC0390006FF0B1022004F032FE8D
:1019E000039991F87C00C0F3C00001EB8000006C0B
:1019F00004F075FD0398406B04F088FD0398006FB8
:101A000001F08CFC03990A90B1F95A2006A902F062
:101A10002DF80AA801F0ECFC03A801F0E9FC22E093
:101A2000208AADF81800A08AADF81A00208BADF816
:101A30001C00A08BADF81E00A86804F050FD06A89D
:101A400002F064FC0FE0206801F068FC0390B0F83D
:101A50005A1041F00C01A0F85A1003A801F0C8FC7C
:101A600020680CF0F5FD18B00020BDE8F081000002
:101A7000440400207004002038B505004FF0000435
:101A800010D002F029FE284601F048FC009090F8A2
:101A90007C0010F0080F18BF0124684601F0A8FC74
:101AA00004F0D4FF204638BD2DE9F04182B00E4647
:101AB000054602F011FE002D29D0284601F02EFC2B
:101AC0000190C16D8C6800F00DF9074601984663DE
:101AD00001A801F08DFC22680121284690470646A6
:101AE000236803212846984780462268002128461B
:101AF00090470446284600F0F3F9434632463946FB
:101B00002846009400F06DF928460CF0DFF904F047
:101B10009DFF02B0BDE8F081002808BF704730B5D6
:101B200083B00D46044602F0D7FD204601F0F6FBD7
:101B30000090006F0190684601F05AFC294601A808
:101B400006F03AFA58B1204601F0E8FB00900199FE
:101B50000167684601F04CFC20460CF0B7F904F030
:101B600075FF03B030BD002808BF704738B50C467C
:101B7000054602F0B1FD284601F0D0FB0090B0F917
:101B80005A10A14204D0A0F85A4028460CF09EF901
:101B9000684601F02DFC04F059FF38BD2DE9F04FE7
:101BA00000278DB00C468146BA4601F0B7FB019084
:101BB000C06D0121856848462A68904780462A689A
:101BC00003214846904707902A68022148469047DB
:101BD00006902A68002148469047064601980DF075
:101BE000E1F8059001980DF0E4F88346019890F82B
:101BF000321001F02001002918BFB0F958A04FF0B1
:101C0000000506D0B0F954501DB9406B02F0BAFC83
:101C1000851C0198C06E10B10BF024FE074625808C
:101C20006780A4F8048007990598401A06EB0A011A
:101C3000401E294420813944E1800699ABEB010123
:101C4000491E6181A4F80C8020827019E681401E33
:101C5000608201A801F0CCFBB4F90C70B4F91060FB
:101C60004D46484601F05AFB0690C16DD0F8008001
:101C700006A8D1F8089001F0BBFBD9F8002000219C
:101C800028469047814628460BF06AFD050024D07F
:101C900001F044FB0790B0F900200FFA88F1B0F989
:101CA0000430521A5B1AB0F90210A1EB28414945E1
:101CB0000BD190F8280010F0800F03D09642A8BFF7
:101CC000561E02E09F42D8BF5F1C07A801F090FBA0
:101CD00028460BF071FD0500DAD1A78126820DB0F0
:101CE000BDE8F08F10B50146002091F8322012F0C7
:101CF000200F08BF10BDB1F95400002818BF10BD57
:101D0000486B02F03FFC801C10BD70B58AB00E46D7
:101D1000044601F003FB0990C06D856809A801F035
:101D200067FB0094002E08BF18200BD0012E08BFBF
:101D3000162007D0022E08BF152003D0032E08BF9F
:101D4000172000D101906968684688470AB070BDC5
:101D50002DE9F04383B017468846814601F0DEFA4C
:101D60000090C16D056868468C6801F041FB2268EF
:101D7000002148469047064648460BF0F1FC040017
:101D800004BF03B0BDE8F08301F0C8FA0190B0F9D8
:101D900000102AB2B0F90430891A9A1AB0F9023048
:101DA000A3EB2543B34211D190F8280010F0800F27
:101DB00005D038688842A4BF481E386006E0D8F8CD
:101DC00000009042DCBF501CC8F8000001A801F0E0
:101DD0000FFB20460BF0F0FC0400D5D103B0BDE8AA
:101DE000F0832DE9FF4F85B09A4691460F46DDF806
:101DF00048B0059801F092FA0390C16D8C68FFF726
:101E000071FF064603A801F0F3FA22680121059844
:101E1000904702902268032105989047019022681C
:101E20000021059890470546BE4204BF02984845E8
:101E300006D10198504502BF5D4509B0BDE8F08F5D
:101E4000F41B0027B84605980BF08AFC060004BF77
:101E500009B0BDE8F08F0198A5EB0B05AAEB000ACD
:101E60000298A0EB0909304601F058FA0090806A08
:101E700010F0800F03D010F4007F06D025E010F49E
:101E8000007F22D010F0800F1FD124B122461146CE
:101E900030460CF03FF9009890F8280010F0800FC1
:101EA00006D004FB17A12A4630467F1C0CF0CFF861
:101EB0000098008D10F4007F07D004FB08912A469B
:101EC000304608F101080CF0C2F8684601F090FABB
:101ED00030460BF071FC0600C5D109B0BDE8F08FAB
:101EE00070B586B0064601F019FA0590D0E91A459A
:101EF00005A801F07DFA54EA050004BF06B070BDE4
:101F000069463046FFF74AFEACB1BDF90620BDF97F
:101F1000041020460CF06AF8BDF90A00BDF906105D
:101F2000401A421CBDF90800BDF90410401A411CBA
:101F300020460CF0B3FB002D04BF06B070BDBDF908
:101F40000600BDF90210421ABDF9041028460CF033
:101F50004DF806B070BD2DE9F0430446406889B0E5
:101F600005460BF036FC814601F0D8F90290D0F816
:101F70008080876C466E02A801F03AFA2068172824
:101F800062D008DC0E2850D00F2816D0142818BFB5
:101F9000152859D052E01E2829D01F283ED02228CB
:101FA00002BFE76009B0BDE8F083312801BF00201F
:101FB000E06009B0BDE8F08340E06FF07040874218
:101FC00004D0384608F008FF01F036FB002E04BFAD
:101FD00009B0BDE8F083D4E902122068CDE9040518
:101FE000CDE9061204A8B04709B0BDE8F083E06867
:101FF000002804BF09B0BDE8F083B8F1000F18BF96
:10200000A84505D040460CF041FA09B0BDE8F08380
:1020100028460CF097FA09B0BDE8F08321464846FF
:102020000AF0E7FD09B0BDE8F083E06841680029E7
:1020300004DD00680928EBD00A280BD0002E1CBF55
:102040002046C4F80490CED120460BF025F809B004
:10205000BDE8F08328460CF0C3FA09B0BDE8F08370
:102060002DE9F84F0F46DDF828900646941BA3EBA8
:102070000708D9F800504FF0000A54EA080063D06E
:10208000002CD4BF60422046B8F1000FCCBF4146BF
:10209000C8F1000188420ADA2046444680463046AC
:1020A0003E46074610461A4603464FF0010A002CEA
:1020B000CCBF20466042A04208BF012008D0304675
:1020C000164602466442C8F100081F464FF0FF3032
:1020D0000090C448C449B8F1000FD0F800C01CBF3C
:1020E00004EBD4724FEA620BB8BFCBF1000B30D0D7
:1020F0009CF81A20002A00F0FA80009A002ABCBF3F
:102100002A19C9F800200025002CC0F2458100BF23
:1021100008FB05B090FBF4F0C219D9F80010009844
:102120000844B049C9F8000009688B7E012B00F013
:102130000081022B00F00781032B00F00D81042B9E
:1021400000F03A8100F019B93046BDE8F84F00F0D0
:102150008DBABAF1000F62D09CF81AC0BCF1000F22
:1021600014D04FF00008002CA4BF8A46834640DB01
:10217000DBF8001028466D1C8A7E012A0CD0022A4A
:1021800014D0032A1BD0042A35D027E03146384624
:10219000BDE8F84F08F0BCB9801DC21700EB127201
:1021A00022F00F02801A0C281FDB17E0C21700EB89
:1021B000927222F00302801A022816DB0EE08AFBDC
:1021C0000032D310A3EBE272524202EB820200EB28
:1021D00082000C2809DB1038022806D3496E06EB72
:1021E00008004A6801463846904708F10108A045B2
:1021F000BEDD681EDCE07D4A82FB00329310A3EB5B
:10220000E272A2EB820200EBC2000C28EDDBA0F12F
:102210001002022A24BF14380228E6D3DEE79CF815
:102220001A80B8F1000F14D04FF00008002CA4BFA2
:102230008A46834642DBDBF8001028466D1C8A7E06
:10224000012A0FD0022A17D0032A1ED0042A3AD01E
:102250002AE0DCF864003946036801B03046BDE886
:10226000F04F1847801DC21700EB127222F00F02C8
:10227000801A0C281EDB17E0C21700EB927222F0C6
:102280000302801A022815DB0EE08AFB0032D3100D
:10229000A3EBE272524202EB820200EB82000C28B6
:1022A00008DB1038022805D3496E06EB08004A689F
:1022B0003946904708F10108A045BCDD681EC9F801
:1022C0000000BDE8F88F494A82FB00329310A3EB6F
:1022D000E272A2EB820200EBC2000C28EADBA0F162
:1022E0001002022A24BF14380228E3D3DCE70025B9
:1022F000002CACBF8146BDE8F88F00BF08FB05B0DD
:1023000090FBF4F03844BAF1000F0AD0D9F800205D
:102310007119526E526890476D1CA542EEDDBDE802
:10232000F88FD9F800107319496E4A6801461846AB
:10233000F1E7801DC31700EB137323F00F03C01ADE
:102340000C2825DB19E0C31700EB937323F003037C
:10235000C01A02281CDB10E0234B83FB00C34FEAAA
:10236000E30CACEBE3735B4203EB830300EB830012
:102370000C280DDB103802280AD3496EBAF1000F81
:1023800006EB05004B680EBF114601461046984704
:102390006D1CA5427FF7BCAE0098002804DAD9F87E
:1023A00000002044C9F80000D9F800100098081A6D
:1023B000C9F80000BDE8F88F0C4B83FB00C34FEA5F
:1023C000A30CACEBE373A3EB830300EBC3000C287B
:1023D000DEDBA0F11003022B24BF14380228D7D370
:1023E000CBE70000C401002067666666ABAAAA2A94
:1023F0002DE9F047DFF86892804684B0D9F80000F4
:102400000F460C99007E1D461646012800F0CE802E
:10241000A8EB060C7C1B5CEA040104BF04B0BDE819
:10242000F087421E0021BCF1000FBCBF0121CCF19E
:10243000000C002CBCBF41F002016442644504DD85
:1024400020466446844641F00401A0020CEBDC7394
:1024500000EB630090FBFCF08010824C4FEA201CE4
:1024600000F00F0034F81C30C0F1100013FB00F333
:10247000102807D004EB4C0CC0F11000BCF802C0CF
:102480001CFB003303F10800C31700EB13700011AD
:1024900011F0040F18BFC0F5806011F0010F18BFD4
:1024A000C0F5006011F0020F18BFC0F5805000F5B4
:1024B000806100F50060C0F30B004FF0000AB0F53A
:1024C000006FC4BF4FF0010AA0F50060B0F5806F47
:1024D000C8BFC0F500604FEAA01C634B00F03F008E
:1024E000C0F1400033F81C404443402818BFBCF101
:1024F000100F07DA03EB4C0CC0F14000BCF802C02F
:102500000CFB004404F120008009BAF1000F18BF51
:10251000404200FB02FC0024C1F30B00B0F5006F49
:10252000C4BF0124A0F50060B0F5806FC8BFC0F53E
:102530000060811100F03F00C0F1400033F811A0AD
:1025400040280AFB00FA18BF102906DA03EB410104
:10255000C0F14000498801FB00AA0AF1200080096F
:10256000002C18BF404200FB02F1BCF1000FB4BFC9
:10257000CCF500700CF500704FEAA020B8BF4042C7
:102580000029BDBFC1F500718912C1F1000C01F530
:102590000071A8BF4FEAA12C00280FDD411C01EB00
:1025A000D171491000EBD07042100EE00091394615
:1025B0004046FFF755FD04B0BDE8F08700EBD07151
:1025C000401E491000EBD0704210BCF1000FC6BF96
:1025D0000CF1010000EBD0700CEBDC704FEA6000F6
:1025E000CEBF0CEBDC73ACF1010303EBD3735B10D8
:1025F00008EB010CADF800C007EB000CADF802C011
:10260000A8EB020CB21AADF804C0ADF808203144B2
:10261000A7EB030CEA1AADF80C102844ADF80A2019
:10262000ADF80E000023ADF806C01A460421684636
:1026300000F08EF8D9F8002040463946527E002A34
:1026400008BF00F013F83046D9F800202946527E22
:10265000002A08BF00F00AF804B0BDE8F0870000C7
:10266000C4010020FAF60108D8F60108064A1368EA
:102670001A7E012A05D0521E02EBD272521000F0CF
:1026800005B85A6E52681047C40100202DE9F84F72
:1026900006460F4640F2C32050434FF47A7190FB38
:1026A000F1F000F1010A02FB02F002EBD271DFF857
:1026B0009C8000EB61000090D8F800101446324472
:1026C000496E301B0B68394698470125BAF1010F56
:1026D000B8BFBDE8F88F00BF05FB05F004FB0400A0
:1026E000009988421ADD544517DDD8F8003006EB12
:1026F000050BA6EB05095B6EABF1010239191B68EE
:1027000009F101009847D8F80030ABF10102391BFC
:102710005B6E09F101001B689847641ED8F8003011
:10272000321979195B6E301B93461B6881469847B6
:10273000D8F800305A46791B5B6E48461B689847AC
:102740006D1CAA45C8DABDE8F88F0000C40100205E
:102750002DE9FF4F83B0074643F6FF74C4F1000034
:1027600090460E1E0090C4BFB91C32460DDD00BF5E
:10277000B1F90000A042D8BF0446009B9842D8BFE0
:102780001846091D0090521EF2D18C490868406914
:1027900078B1B0F90630069A9B1A009A9342C0F2BB
:1027A000018100BFB0F90230069A9A1AA24200F3E2
:1027B000FF8000988442D2BFA6F1010907B0BDE8AE
:1027C000F08F00207E490546002E0860C4BF0698A1
:1027D00004EB000A7EDD4D45B4BF05F1010C4FF05E
:1027E000000C07EB850207EB8C01B2F90200B1F98E
:1027F0000230A04253D1A34213D137F92C2037F92C
:10280000250002EB08036D4A404451461268984285
:10281000526ED2F800C0B2BF1A4602461846E047D0
:1028200083E000222946B9F1000F0CDD002914BF16
:10283000491E711E07EB8100B0F90200A04203D1CE
:10284000521C4A45F2DB2046A0426ED0001B37F9ED
:1028500025101A1B90EA020F09D4584A01EB080010
:1028600051461268526E1368024698475DE0DFF8E1
:1028700050B1DBF800C0BCF10C0F56DA5FEA0C0077
:1028800018BF504A4AD000BF02EB400333F9023C64
:102890008B4243DB22F81030401EF5D13EE0A342CC
:1028A00043D0A8BF844203DAA042A8BF9C423CDBCD
:1028B00098424DDC8446A042DFBF18468442B2F9FC
:1028C0000030B1F9001030DCCA1AA4EB0C015143FE
:1028D000002900E02DE0A0EB0C02CEBF01EB62016D
:1028E000A1EB6201491CA0EB0C0091FBF0F0DFF8BA
:1028F000D0B0C118DBF800C0BCF10C0F15DA5FEAEC
:102900000C0018BF2F4A09D002EB400333F9023CF8
:102910008B4203DB22F81030401EF5D1294A22F801
:1029200010100CF10100CBF800006D1CB542FFF651
:1029300052AF069822492044019008684FF0000BDE
:102940005D460028C4BF1F48B0F900A022DD19E091
:102950009C46A342DEBF8442B1F90030B2F90010B8
:10296000B2DDE2E71748BBF1000F30F915A009D03E
:1029700008EB0100114908EB0A020968496E0B686F
:10298000019998470E486D1C8BF0010B0068514669
:10299000A842E7DC0098641C84427FF712AF07B0BE
:1029A000BDE8F08FB0F90630069A9A1A0092F9E65F
:1029B000B0F902200698141AFBE60000C4010020BA
:1029C0005405002058B6002010B5002003F07CFD0F
:1029D0006FF07F4003F083FD012003F015FE00201F
:1029E00003F020FE002003F02DFE002003F082FD06
:1029F0000448006803F08AFDBDE81040002003F0A1
:102A0000D5BD0000C001002008B500201249487063
:102A10006A22124940F2A26000F0BEF80E488078A7
:102A2000BA2809D10EA0006800900422694640F23D
:102A3000DD6000F0B1F809E00AA00068009004220F
:102A4000694640F2DD6000F0A7F800BF00200249AF
:102A500048700120087008BD380E00201C000020BE
:102A6000E0012003580200047CB50122694640F2CF
:102A7000217000F059F89DF8000000F0010060B9E5
:102A800026480078012807D10020244908702449ED
:102A90000872084603F088F87CBD05220DF101019B
:102AA00040F2227000F040F89DF800001D49C87007
:102AB0009DF8010008719DF803009DF8021000EBDD
:102AC00001201849C8809DF805009DF8041000EB0E
:102AD00001201449088108460489C08840F2DF11AA
:102AE000081A85B20D48007860B901200B490870BA
:102AF0000B4804604560012009490872084603F04C
:102B000053F808E006480460456001200449087253
:102B1000084603F049F800BFBEE700008600002029
:102B2000EC0E0020380E00202DE9F04105460E463F
:102B3000174615F0F5F81749887815F0C7F815F01D
:102B400019F9281215F0C2F815F014F9E8B215F0C9
:102B5000BDF815F00FF915F0E3F80E498978491C16
:102B6000C8B215F0B3F815F005F9002406E015F029
:102B70008BF8305515F034F8601CC4B2781EA042B2
:102B8000F5DC15F081F8305515F068F815F0E0F82F
:102B9000BDE8F081380E00202DE9F04104460E46D4
:102BA000174615F0BDF80F49887815F08FF815F025
:102BB000E1F8201215F08AF815F0DCF8E0B215F013
:102BC00085F815F0D7F8002506E0705D15F07EF861
:102BD00015F0D0F8681CC5B2BD42F6DB15F0B8F8A8
:102BE000BDE8F081380E0020014AC2E900017047BB
:102BF00070010020014AC2E90001704778010020FD
:102C0000014AC2E9000170474C020020014AC2E9B2
:102C10000001704780010020014AC2E900017047AD
:102C2000540200202DE9F04F4B4989B00968B1F9F1
:102C300022200692D1F81CC0B1F92470DCF81C40A7
:102C4000A28982429CBFE389984205D8A0EB020981
:102C50004FF0FF38266812E0D4E90162002A71D0F3
:102C6000138883429CBF5588A8426BD8C01A52680B
:102C700080B202EB8000B0F90090B0F90280B9F1A7
:102C8000FF3F5FD09CF81800A27C10FB02FB94F879
:102C900010A00790B1F92A50284608F00FF9C0B2E9
:102CA00008902D4809FB0B620068A37C4FF00109D6
:102CB000816BCDE90293CDE90421C0695246C17E02
:102CC000807ECDE90001DDE90603394607F078FA98
:102CD000B8F1FF3F18D045F0020008F0EFF81E48A9
:102CE000A37C08FB0B620068816BCDE90293CDE900
:102CF0000421C0695246C17E807ECDE90001DDE934
:102D00000603394607F05CFA134E3068C069417E0D
:102D1000007E814213D9022D11D085F0040008F005
:102D2000CDF83068C069017EC27E11FB0271427E1F
:102D3000D319827E06981AFB020207F01BFC089842
:102D400008F0BCF80448627C0068418C114441845E
:102D500009B0BDE8F08F0000C4010020044800293C
:102D60000068C069C0691CBF027C0A60407C704773
:102D7000C4010020022008807047C06982898A420D
:102D80009CBFC289914210D9806880B102888A4272
:102D90009CBF438899420AD8406800EB8100A0EBB1
:102DA0008200B0F90000002801DB012070470020FC
:102DB000704700002DE9F043394D024687B028687E
:102DC000B0F92A60C069C1691046002904BF07B084
:102DD000BDE8F0830B8883429CBF4B88984205D99D
:102DE00089680029F6D107B0BDE8F083002904BF47
:102DF00007B0BDE8F08348680988511A00EBC104A8
:102E00003046A77808F05AF880462868626801239F
:102E1000816BCDE90237CDE90421C169CB7E8A7E81
:102E2000CDE900230B7EB0F924102278B0F92200FE
:102E300007F0C6F92868C069417E027E91421FD919
:102E4000C07E11FB00F912FB00F7022E18D001F032
:102E50003EFB064601F004FB03F041FB29682278A3
:102E6000CB69B1F92200DB7E12FB0302B1F9241019
:102E700001EB0903394407F07DFB304603F02FFBDB
:102E8000404608F01BF828686278C369B0F9221040
:102E90009B7E12FB0311418407B0BDE8F083000064
:102EA000C401002010B4044615480068D0F81CC0C6
:102EB0002046DCF81C2002B3138883429CBF538851
:102EC000984203D99268002AF6D116E0AAB1108878
:102ED0005368221A012000EBC2009CF81AC0185C4B
:102EE00010FB0CF0002904BF10BC704713F832200F
:102EF00012FB0CF20A6010BC704710BC0020704737
:102F0000C4010020012008807047C06968B10288B0
:102F10008A429CBF4288914203D980680028F6D13A
:102F200003E000281CBF012070470020704700000C
:102F30002DE9F047DFF8A480DFF8A4A04FF00009E6
:102F4000D8F80840002CC4BF0025D8F810601DDD5B
:102F5000D8F81000C5EB051700EBC7007022001D64
:102F6000DAF80010FDF7CFF946F8789BD8F8100092
:102F700005F1010500EBC70000F10C018161011DA5
:102F80000A1DC0E90F124164641EE1D1D8F808009F
:102F90000024002810DD00BF03F07BFDD8F81020CE
:102FA000C4EB041152F83110814206D081B1D8F837
:102FB0000800641C8442EFDB4C46D8F81010C4EBC8
:102FC000041001EBC000001DCAF80000BDE8F08746
:102FD000C4EB041142F83100EFE700007403002055
:102FE000C401002070B51A4918480860084604F06A
:102FF000DBFF184CA068C0EB0010C500284600F0AD
:10300000FBF82A460021206105F00EF84FF0FF3052
:10301000206003F047FDA06800250028D8BF70BDE0
:1030200003F037FD2169C5EB051251F832108142DA
:1030300008BF70BD21B16D1CA0688542F0DB70BD7A
:103040002269C5EB051142F8310070BDC14A010883
:103050008803002074030020002808BF704710B5C3
:10306000044601F039FB20460CF09AFB044603F0BD
:10307000EDFC204610BD38B5054601F02DFB284675
:10308000FFF7EAFF040009D000F048F92A460021C2
:10309000009004F0C9FF684600F0AAF903F0D6FCDE
:1030A000204638BD024A106021F00300506070478E
:1030B0009CB40020002808BF704770B5054601F099
:1030C0000BFB0F4C606B10F83510002918BF02295C
:1030D00011D2042101EBC506815948680CF002FBAE
:1030E0006068401C6060616B606A8851616B0020A1
:1030F00001F835006562BDE8704003F0A7BC000030
:10310000DCB30020002808BF7047044AD16B01607F
:10311000002918BF4860D06370470000DCB300206E
:103120002DE9F041064601F0D7FA35680027F5B1E0
:1031300001F0D2FA104C606B10F83510002918BF5E
:10314000022912D2042101EBC50850F80810486882
:103150000CF0C8FA6068401C6060616B606A41F8FE
:103160000800606B00F83570656203F06FFC376033
:10317000BDE8F04103F06ABCDCB300202DE9F05F4C
:10318000B1F1000881464FF00005C6BF194F4FF05E
:10319000000ABDE8F09F00BF09EB850601F09CFA2C
:1031A0003468ECB101F098FA786B10F8341000290B
:1031B00018BF022912D2042101EBC40B50F80B10E6
:1031C00048680CF08FFA7868401C7860796B786AF0
:1031D00041F80B00786B00F834A07C6203F036FCF9
:1031E000C6F800A003F032FC6D1C4545D4DBBDE8F9
:1031F000F09F0000DCB300202DE9F041044610F000
:103200005DFEE01C274E20F00300051D306CA84237
:1032100088BF0546F46BBCB154F8041CA94210D118
:103220009CB1206800281CBF61684160606800286C
:103230001CBF21680160F16BA14204BF2068F063EC
:103240002DE02468002CE7D10024F168B06B00EB7E
:10325000010858F8040CA8EB0007386840B10020BA
:1032600011F094FF58F8040CA8EB00073868B0B9C7
:103270007868A84213DB3844401B041D384611F01F
:1032800057FFF068401BF0607069284470617868EF
:10329000401B1CBF39460CF025FA44F8045C20465C
:1032A000BDE8F081DCB3002010B5002410F006FE6C
:1032B0000D490F2001EBC002526C8AB101EBC00036
:1032C000406C806848B14168A14288BF0C46806864
:1032D00000281CBF80680028F5D1A4F10C0010BDA7
:1032E000401EE7D5F9E70000DCB30020002140B123
:1032F0000549042202EBC000496B08584068A0F160
:103300000C01084670470000DCB3002002488169C8
:10331000491C816170470000DCB300200949CA697B
:10332000521CCA614A6B02EBC00213785B1C13701B
:10333000002808BF7047496B042202EBC000085800
:1033400008307047DCB3002010B501F0C5F9002447
:1033500010F0B4FD194B1A490F2000BF01EBC00259
:10336000526CE2B101EBC000406C8068C8B14268A9
:10337000A24288BF1446806800281CBF80680028CD
:10338000F5D1A4F10C00B0F5800F0DD983FB00201E
:103390004211096AA2EBE07000FB01F409E0401E53
:1033A000DCD5A4F10C00F1E7096A4843A3FB001047
:1033B000440903F04BFB204610BD00001F85EB5174
:1033C000DCB300200549102898BF102004D94A68B2
:1033D000B0EB520F28BF5008886070479CB40020A3
:1033E00002488169491E816170470000DCB30020FA
:1033F0000A4902684B6B52F8082C03EBC20213789F
:10340000022B04D3CB69002B1CBF5B1ECB61117850
:10341000491E11700021016008467047DCB300208E
:10342000002808BF70470449042202EBC000496B22
:103430000858083070470000DCB300202DE9F84F31
:103440000E46054601F048F9304601F04DF8834636
:10345000DFF8C480314806EB860A012758F82A9025
:10346000016831B92F4907602D480860084604F00B
:103470009BFD294906EB860001EB8004BBF1000FA0
:1034800021D0584603F004F800904FF07F4003F03D
:103490001BF800F0D1F800221146286800F012FB5A
:1034A000286842880188584603F062F848F82A5094
:1034B0006771009802F0ECFF304601F015F8E0B9B2
:1034C000607900BB23E048F82A506771206918B181
:1034D00002F036FC00202061CDB10097E068A968B9
:1034E0003346421AA0686968411A286802F042FF10
:1034F0002061304600F0F8FF18B1012103F048F8D0
:1035000005E0607918B12771206902F003FF03F02C
:103510009DFA4846BDE8F88F18B500200802002043
:103520006D4A01080C02002070B514460D4606468F
:1035300001F0D2F8204600F0D7FF0300164804EB54
:10354000840109D050F8210041688068711A2A1A54
:10355000184602F0FDFF1AE000EB8104A268B242B7
:1035600014BF01220022E368AB4214BF01230023F1
:103570001A430CD0236943B150F821008168406898
:103580006A1A311A184602F009FCC4E90265BDE85E
:10359000704003F05BBA000018B5002070B5134806
:1035A0000068447C01F098F8114804EB840100EBBA
:1035B000810501266E7150F8210038B1204600F0D7
:1035C00093FF40B1012102F0E3FF0AE021460948E0
:1035D000FFF734FF05E0687918B12E71286902F011
:1035E00099FEBDE8704003F031BA0000C40100202C
:1035F00018B500204CDC0108C2B2CBB2D21A48BFC9
:10360000524292B202FB02F3C0F30722C1F3072C2D
:10361000B2EB0C0248BF524292B2000CA0EB114038
:1036200002FB023200B20028BCBF404200B280B2AE
:1036300000FB0020704700002DE9F041002182B01E
:10364000084600F0B5FF43F6FF76374601F044F830
:10365000042007F033FC80461248C068C16C006D3E
:103660008D1B841B0E440744ADF80050ADF8046078
:10367000ADF80240ADF8067068460BF0A1FB48B10A
:103680003B4632462146284606F074FF0BF0C2F94D
:103690000028F5D1404607F011FC03F0D7F902B03D
:1036A000BDE8F081B80100202DE9F8431C00DDE9F8
:1036B000089816460F46054602D10AF013F804464C
:1036C0000096D5F800C043464A4621462846E047C2
:1036D000061E08BFBDE8F88309F0F8FF8146698A35
:1036E000304609F051FB30460BF00EF848460BF01F
:1036F0000BF87F1E002FC8BF4FF000080FDD00BF82
:10370000CDF8008055F81CCF00231A4649462846BC
:10371000E04718B30AF0F8FF7F1E002FF0DC1D21F0
:1037200048460AF00FFEB4F1FF3F14D000F0D4FF7A
:103730000AF024F840B100BFFFF772FE8469B4427A
:1037400018BF5FEA0400F7D1B4421CBF30460AF04C
:10375000F9FE03F07BF93046BDE8F883304609F006
:10376000BFFC0020BDE8F883022BA4BF00207047F7
:103770002DE9F04106461C4615460F461C20FFF772
:103780003BFD002808BFBDE8F081002F18BF07618E
:103790000BD10A4A52F8241039B10A681AB11146FD
:1037A0001268002AFBD109690161846185820021C8
:1037B00001604160C0E90216BDE8F081DC01002033
:1037C0002DE9F04100241D46074688461646022B87
:1037D00027DA1C20FFF710FD18B3B8F1000F18BF4F
:1037E000C0F810800BD1104A52F8251039B10A6880
:1037F0001AB111461268002AFBD10969016185617D
:10380000868204604460C0E90247040009D000F0E9
:1038100011F8E068006820B90448006800EB8500F2
:1038200084652046BDE8F081DC010020C401002051
:10383000FFF768BC00281CBF8269022AA4BF0120D0
:10384000704710B4244C54F82210002908BF44F8E3
:1038500022003AD04B682BB119465B68002BFBD194
:10386000002935D0C3681B68D1F80CC0DCF800C053
:103870009C4503DD09680029F6D129E041B3D1F860
:103880000CC0DCF800C09C4504BFB0F814C0BCF10B
:10389000010F0DD1D1F800C0BCF1000F07D0614677
:1038A000DCF80CC0DCF800C09C45F3DA00E079B12C
:1038B0004B68002B1DBF18604A68426044F8220024
:1038C0004860884208BF0021016010BC002070479A
:1038D00010BC012070470000DC010020002808BF58
:1038E000704730B4214C00BFD0F800C000281CBF86
:1038F0008569022D35DA54F82510002908BF44F8EF
:1039000025002ED04A6822B111465268002AFBD108
:1039100039B3C2681368CA6812689A4203DD09683D
:103920000029F8D11DE0E1B1CA6812689A4204BFCB
:10393000828A012A08D10A682AB11146D26812681F
:103940009A42F8DA00E061B14A68002A1DBF1060AF
:103950004A68426044F825004860884208BF002158
:1039600001605FEA0C00BFD130BC7047DC01002071
:103970000B4A816952F82130834204BF036842F840
:103980002130416800291CBF02680A6001680029D3
:103990001CBF42684A60002101604160704700001E
:1039A000DC010020002070470228A4BF00207047DF
:1039B000064951F82000002808BF7047C16809680F
:1039C00000291CBF00680028F8D17047DC010020E6
:1039D000002808BF70472DE9F8431E461746884661
:1039E0000446FFF79BFC0090006805686846FFF7F7
:1039F000FFFC33463A4641462046A847BDE8F883D7
:103A00002DE9F041044603F048F80619164F1DE071
:103A100000F01EFCB8F1050FC8BF4FF0050800F01C
:103A20005BFE3C68FFF772FC250018D003F00EF82F
:103A30006D1EFBD1404603F025F81CB100F04CFE92
:103A4000641EFBD1FFF7CCFC03F000F803F025F86F
:103A5000A6EB0008B8F1000FDADCBDE8F0814046C3
:103A600003F010F8EEE70000800300202DE9F0419C
:103A700082B006000D46174647F6FF784FF0000467
:103A800004BF02B0BDE8F08100F026FE65B1284613
:103A90000AF02AFE040007D002462946684604F0D0
:103AA00032F968460AF020FE43463A462946304637
:103AB00003F0DEFA20460AF017FE02F0C7FF02B05C
:103AC000BDE8F0812DE9F04F89B015460E46044659
:103AD00000F002FE364F3868C16C006D0E4405449C
:103AE0002088711E0844ADF81860ADF81C0060888D
:103AF000691E0844ADF81E00ADF81A5006A80BF078
:103B00005FF900281CBFDFF8ACB04FF0010A42D0CB
:103B10000020D4F80C9002F0EDFC8046B9F1000FC3
:103B20001BBF99F80400002828F0020048F00200AA
:103B300002F0E0FC206970B1D4E902120091CDE9F5
:103B4000012ACDF80CA0D0F800C06388228829464D
:103B50003046E04718E03868DBF800302146427C08
:103B6000E0689847E0B1A288E388A168CDF800A09A
:103B7000CDE90410CDE90232CDF804A06388228893
:103B80002946304606F01CFB404602F0B3FC0AF022
:103B900041FF0028BCD102F059FF09B0BDE8F08F09
:103BA000E088012812BF00203868806BDBE7000046
:103BB000C4010020BC01002010B50A4682B00146B5
:103BC000684604F0E3F900F087FD2B48BDF80010CB
:103BD0000068B0F84C201144ADF80010BDF8021098
:103BE000B0F850201144ADF80210BDF80410B0F840
:103BF0004C201144ADF80410BDF80610B0F8500088
:103C00000844ADF8060068460BF0DAF878B300BF58
:103C1000BDF90040BDF90400A0420EDBBDF9021061
:103C2000204606F03DFCBDF90610204606F038FCA3
:103C3000BDF90400A41CA042F0DABDF90240BDF9B0
:103C40000600A0420FDB00BFBDF90000214606F0D0
:103C500027FCBDF90400214606F022FCBDF9060050
:103C6000A41CA042F0DA0AF0D5FE0028D0D102F060
:103C7000EDFE02B010BD0000C40100202DE9FF4F91
:103C80009FB01D4616460F46804600F025FD6F4842
:103C90000468D4F84CC00CEB08001F90246DE019A8
:103CA00020900CEB06002190601922901F98ADF82F
:103CB00050002198ADF854002098ADF85200229899
:103CC000ADF8560014A80BF07BF8002800F0B8807F
:103CD00021991F98081A1C902C98C0F307201B905C
:103CE0002C98C0F307401A902C98000E19902D982C
:103CF000C0F3072018902D98C0F3074017902D9817
:103D0000000E16902098069022981F9FDDE92C4502
:103D100001904F48219E049000F0D9FB1390AC42D3
:103D200007D1204607F092F832463846019B0699A3
:103D300073E01C98401C01280CBF4FF00109A0F152
:103D40000109E0B20C901B980B900DF1580E204623
:103D50009EE80E0C05F0FF0C4FF001083C46B74200
:103D60005EDC0C9DA2EB0B02ACEB050CCDF840C069
:103D7000DDF82CC0A1EB0A01A3EB0C030D930F920D
:103D80001291109AE11B4A4392FBF9F30C9A129D8F
:103D90001A4402F0FF0C0D9A4A4392FBF9F30B9A76
:103DA0001A44D3B20F9A4CEA03234A4392FBF9F226
:103DB000694391FBF9F15A44D2B2514443EA0242B9
:103DC00042EA0165BC4218DD854208BF08F10108DE
:103DD00013D007F03BF8B8F1010F07DDA4EB0800A2
:103DE000621E019B069906F0C5FB04E0049B601E61
:103DF000019A069998474FF00108641C2846B4427E
:103E0000BFDD07F023F83046B8F1010F0BDDA0EB62
:103E10000801481C3246019B069906F0ABFB06E000
:103E200007F014F83046049B019A069998471398B6
:103E300007F00CF80AF0EEFD00287FF463AF00BF36
:103E400002F004FE23B0BDE8F08F0000C4010020A2
:103E500011A500082DE9FF4FA1B01E461746884660
:103E6000044600F039FC7E48D0F800C0DCF84C5025
:103E700028192190DCF8501001EB08002290E81975
:103E80002390881924902198ADF850002398ADF81C
:103E900054002298ADF852002498ADF8560014A8AA
:103EA0000AF08EFF002800F0D58022992498401A4D
:103EB0001C902E98C0F307201B902E98C0F307404B
:103EC0001A902E98000E19902F98C0F30720189082
:103ED0002F98C0F3074017902F98000E1690219846
:103EE0000390DDE922800190DDE92E455D480790D1
:103EF0000120249E1D9000F0EAFA1390AC4207D1F5
:103F0000204606F0A3FF33464146019A03988AE013
:103F10001C98401C01280CBF4FF00109A0F10109B9
:103F2000E0B20E901B9808900DF1580E01279EE804
:103F30000E0C204605F0FF0C4446B0456CDC0E9D8F
:103F4000A2EB0B02ACEB050CCDF844C0DDF820C0B1
:103F5000A1EB0A01A3EB0C030C92CDE90F3100BFDA
:103F6000119AA4EB08014A4392FBF9F30E9A109DB3
:103F70001A4402F0FF0C0F9A4A4392FBF9F3089A95
:103F80001A44D3B20C9A4CEA03234A4392FBF9F247
:103F9000694391FBF9F15A44D2B2514443EA0242D7
:103FA00042EA0165444522DD854208BF7F1C1ED0E0
:103FB00006F04CFF1D98012F0DDD00281FBFE11BEF
:103FC000631E019A039801BFE01B621E019B0399C7
:103FD00006F0D0FA0AE0019A20B1079B611E03980F
:103FE000984703E0079B601E039998470127641CCC
:103FF0002846B442B4DD06F029FF1D993046012F52
:1040000014DD0029A0EB070109D03346491C019AB1
:10401000039806F0AFFA14E006F018FF07E0481C1A
:104020003246019B039906F0A5FA0AE029B1079BE5
:104030003146019A0398984703E0079B019A039938
:104040009847139806F002FF0AF0E4FC00287FF47A
:1040500046AF00BF02F0FAFC25B0BDE8F08F0000CB
:10406000C40100203DA40008F0B583B015460E46FB
:10407000074600F031FB114C2168C86C096D0644FD
:1040800005440F44ADF80060ADF80450ADF802707F
:10409000ADF8067068460AF093FE50B120682A46D3
:1040A0003946406E0368304698470AF0B3FC002852
:1040B000F4D102F0CBFC03B0F0BD0000C40100203D
:1040C0002DE9F04383B01C4615460E46074600F026
:1040D00003FB11480168C86C096D074405440E4490
:1040E0000C4400200AF06CFE00281CBF4FF00008B2
:1040F0000DF104090BD0CDE90098384631462A4627
:104100002346FEF775F90AF085FC0028F3D103B0C9
:10411000BDE8F04302F09ABCC401002070B582B043
:104120000D46064600F0D8FA0F4C2068C16C006DB1
:104130000E440544ADF80460ADF80060ADF80650DB
:10414000ADF8025068460AF03BFE48B120682946A7
:10415000406E4268304690470AF05CFC0028F5D17A
:1041600002F074FC02B070BDC40100202DE9F041E2
:1041700082B0984617460D46064600F0ADFA1E4836
:104180000468207E216DA0F1010CE06C0D44064412
:104190000744A6EB0C00ADF8000007EB0C00ADF8EF
:1041A0000400A5EB0C0001EB0804ADF8020004EBE1
:1041B0000C00ADF8060068460AF002FEB8B13A46B7
:1041C0002946304606F03AF93A462146304606F08E
:1041D00035F9621E691C304606F09AF9621E691CA8
:1041E000384606F095F90AF015FC0028E7D102F0F0
:1041F0002DFC02B0BDE8F081C401002070B582B092
:1042000014460D46064600F067FA10480068C16C77
:10421000006D0E4405440444ADF80060ADF8046040
:10422000ADF80250ADF8064068460AF0C9FD40B14D
:1042300022462946304606F06BF90AF0EBFB0028CF
:10424000F6D102F003FC02B070BD0000C4010020F2
:104250002DE9F041154D00273C46286818B18047EC
:10426000002818BF012409F01DF8002818BF0124F8
:104270000F4E306808B1804700B99CB1012728680B
:10428000002418B18047002818BF012409F00AF85B
:10429000002818BF0124306810B180470028EDD1F4
:1042A000002CEBD13846BDE8F0810000E801002089
:1042B000E4010020F0B583B01C4615460E460746C3
:1042C00000F00AFA10480168C86C096D07440544FB
:1042D0000E440C44ADF80070ADF80450ADF8026027
:1042E000ADF8064068460AF06BFD48B123462A4601
:1042F0003146384606F03EF90AF08CFB0028F5D12D
:1043000002F0A4FB03B0F0BDC4010020B0F90630F8
:10431000B0F90420B0F90210B0F90000FFF7CABFED
:10432000002808BF7047B0F806C083888068BCF1D9
:10433000080F02BF02FB0311405C704709DCBCF1AF
:10434000010F0ED0BCF1020F17D0BCF1040F21D029
:1043500005E0BCF1100F28D0BCF1200F2BD00020BD
:1043600070475A4302EBD10201F00701805CC1F1B2
:104370000701C84000F0010070475A4302EB910268
:10438000805C062202EA4101C1F10601C84000F04A
:10439000030070475A4302EB510211F0010F805C99
:1043A00014BF00F00F00000970475B0802FB031107
:1043B00030F8110070479B0802FB031150F82100F0
:1043C0007047DDF800C0082802BF0CFB0130105C0C
:1043D000704708DC0CFB01F101280AD0022813D039
:1043E00004281DD003E0102824D0202828D0002045
:1043F000704701EBD30003F00701105CC1F1070126
:10440000C84000F00100704701EB93000621105CEA
:1044100001EA4301C1F10601C84000F00300704702
:1044200001EB530013F0010F105C14BF00F00F00FC
:104430000009704748100CFB003032F8100070473C
:1044400088100CFB003052F820007047034951F8E7
:104450002000C1688A6A082110470000DC010020A2
:1044600010B500F039F906F0CBF806F08BFA0446E7
:1044700002F0ECFA204610BD10B5044600F02CF90D
:10448000054920460968C9694A68002190470446E1
:1044900002F0DCFA204610BDC401002070B50C46C5
:1044A000054600F019F9064A214628461268D269E5
:1044B00052689047044602F0C9FA204670BD0000D9
:1044C000C4010020002808BF704709F0C5B810B526
:1044D00000F002F906F09CF806F054FA044602F0E7
:1044E000B5FA204610BD0000002102283CBF024959
:1044F00051F82010084670474402002010B500F023
:10450000EBF803480068047C02F0A0FA204610BDD6
:10451000C401002010B500F0DFF804480068C0694D
:10452000447E02F093FA204610BD0000C401002032
:1045300070B514460D46064600F0CEF822462946D0
:10454000304606F0DBF810B1002028602060BDE89E
:10455000704002F07BBA000070B50C46054600F0D2
:10456000BBF80648B0F9000028600548B0F9000023
:104570002060BDE8704002F069BA0000040200202B
:1045800006020020017EC07E11FB00F07047000093
:10459000024951F82000006900687047DC010020E2
:1045A000024951F82000006940687047DC01002092
:1045B00070B50C46054600F08FF8044801684D843C
:1045C00000258C8402F042FA284670BDC401002008
:1045D0002DE9F0413648016821F0010101603548BC
:1045E000012686603449016000683449884200D061
:1045F000FEE7334DA86970B9AE6102F031FAFEF7FB
:10460000F1FC06F00BFD05F11C012E480860084680
:104610006969416068612E20287002F042FAE868FA
:10462000294C011DC0E90E010064091D6161417C36
:10463000264850F82100C1680A6B04F10801904730
:1046400023486066A868E061E86808306061267603
:1046500009F048F8A064032084F868006FF0704007
:1046600020636063002006F0B7FB6FF07F4006F028
:10467000EDFB18482861FEF75BFC13F051FA044685
:1046800006F0AEF810B106F0EFF838B906F001F90F
:10469000074606F0BAF8394606F00AFC002108463B
:1046A00001F092FF09F036FB6E702046BDE8F08104
:1046B000002000E000300240C2A507F4CDB5E8B507
:1046C000B8010020414A0108A8B40020DC01002004
:1046D00088A601088CDC010870B5234CE06820B185
:1046E00002F0D7F96168884204D002F01BFA02F0A8
:1046F000D0F96060E068401CE060012818BF70BD20
:104700000025A06800280DDD02F0C3F92269C5EB81
:10471000051152F83110814205D0F9B1A0686D1C25
:104720008542F1DB00252068854208BF70BD002866
:1047300012DBFFF737F92168C1EB0112216901EBA8
:10474000C2025067C5EB0510084A01EBC000011D0D
:104750001160406FFFF7C2F8256070BDC5EB051111
:1047600042F83100DFE7000074030020C40100209C
:1047700010B582B0040006D10F480068046E002C0A
:1047800004BF02B010BDFFF7A7FF2046FEF7C6FD2D
:10479000009044696846FEF72BFE4CB12046FEF7B8
:1047A000BDFD019081688968884701A8FEF720FE59
:1047B00002F04CF902B010BDC401002001490A46C4
:1047C00000F002B801F0FFFF002808BF70472DE994
:1047D000F04786B016460C468146FFF77DFF002065
:1047E00001F088FE314D80462868076E4846FEF786
:1047F00095FD00900068806901F04AFE824640F60F
:10480000FF70C44204D10098B0F90440B0F90660CA
:104810000098621E0189ADF808401144ADF80C10F3
:104820004089711E0844ADF80A60ADF80E0008F02A
:10483000E5FA6846FEF7DCFD02A80AF0C1FA40B1CD
:1048400032462146484600F07BFC0AF0E3F8002897
:10485000F6D1504601F01CFE3C46FFF73DFF2868AC
:10486000006EFCB1002818BF01F004FE08F004FC43
:104870002046FEF753FD019029680C660068FEF79C
:10488000D9FF01A8FEF7B4FD06F0B6FB06F0D0FA9A
:1048900002F0DCF8404601F02DFE02F0D7F806B039
:1048A000BDE8F08701F0E6FDF2E70000C40100205A
:1048B0002DE9F04F83B01F469046894682464FF05F
:1048C000000B0C9EFFF708FF1B480068417C1B484B
:1048D00050F82140E0680068042803D02468002CC8
:1048E000F8D100E03CB90846FFF75EF8041E04BFAB
:1048F00003B0BDE8F08FE0680121C26A204690470E
:10490000050012D02469A0688047B0F1FF3F04BFC2
:104910000B4C46F001063B460096CDE90154424659
:104920004946504600F096FA834602F08FF803B0ED
:104930005846BDE8F08F0000C4010020DC010020D3
:1049400010EE0108002808BF704738B50446FFF78D
:10495000C3FE0E480068006EA04208BF01F08AFD49
:104960002046FEF7DBFC00904069002818BF02F0EB
:1049700055F800980068FEF75BFF6846FEF738FDC3
:104980002046FEF797FB02F061F838BDC401002015
:104990002DE9FF4F83B01F4689460546DDF840A04C
:1049A000FFF79AFE4F480068447C4F4800570128A3
:1049B000204606DD05F01AFF8346204605F05AFF23
:1049C00005E005F0C0FE8346204605F0E5FE0446FE
:1049D0002DB302A901A8FFF7BFFDB5F90080B8F11A
:1049E000000FB8BF4FF00008B5F90260002EB8BF45
:1049F0000026B5F9041001985844401E8142C8BFF2
:104A00000146B5F90600029A2244521E9042C8BFE0
:104A10001046A1EB08014A1C801B441C03E04FF028
:104A2000000846465A46002F08BF6742002AC8BF02
:104A3000002C49DD3B4631464046CDF800A0FFF74B
:104A400037FF5FEA000A45D000F07EF80746A04233
:104A500007D024480068806C00281CBF32210AF06F
:104A600071FD504600F064F9DFF880B00025611B4D
:104A7000B942BCBF504600F03DF93DB17219414604
:104A8000504600F07DF95046FFF772FE0598C84782
:104A9000DBF8001000291CBF002088475046FFF7B4
:104AA0008DFE3D44A542E2DB5046FFF74BFF002060
:104AB00000F03EF9A74207D00A480068806C002841
:104AC0001CBF33210AF03EFD01F0C0FF07B00020FB
:104AD000BDE8F08F0598C84701F0B8FF07B0012086
:104AE000BDE8F08FC4010020FC0100209C030020E1
:104AF00038B505004FF0000411D0FFF7EDFD284652
:104B0000FEF70CFC0090006800698068804706F0A2
:104B1000E5FC04466846FEF76BFC01F097FF204673
:104B200038BD38B5040008BF38BDFFF7D5FD2046B5
:104B3000FEF7F4FB00F1180400906846FEF758FCFD
:104B400001F084FF204638BD38B504460025FFF744
:104B5000C3FD1CB908480068046E44B12046FEF746
:104B6000DDFB0090B0F90A506846FEF741FC01F009
:104B70006DFF284638BD0000C40100202DE9F04F2C
:104B800085B080464FF0000A4046FEF7C7FB039011
:104B9000D0E90095D0F824B003A8FEF729FC28B28C
:104BA0000FFA89F7C01B441C4FEA2946C6EB254083
:104BB000451C002CCCBF002D0AF1010A7EDDBBF1A3
:104BC000000F16D05846FEF7A9FB0490B0F9044038
:104BD000B0F9065004A8FEF70BFC0FFA89F0A042CA
:104BE00008BFAE425AD032463946584600F0C8F89F
:104BF00054E008F077FD804511D105F0DDFD8146D8
:104C000005F01EFE4C45D8BF854208DD4C4562DCF0
:104C1000854262DC2A462146404609F03FFD314983
:104C200001202F4ACDE900010292314638462B4639
:104C3000224600F00FF906464046FEF76FFB039050
:104C40004662BEB3816A41F48031816203A8FEF7F7
:104C5000CFFB304600F06CF80746012001F08CFFD6
:104C60003046FFF75EFF04FB05F18A001E49097814
:104C700003F0DAF91D4D1E4C4046C5F80080266849
:104C800008F0B4FD206040460AF000FB00202660DA
:104C9000286001F071FF384600F04AF84046FEF700
:104CA000BFFB406A0AF1010A40B105B0BDE8F04F10
:104CB00000F09EB803A8FEF79BFB00E004E040462E
:104CC0000AF0E4FA0AF1010ABAF1050FFFF65CAF47
:104CD00005B0BDE8F08F4C469AE705469AE700001C
:104CE00010EE010868F60108A00300201003002060
:104CF000F801002038B50C46050005D10B480068C6
:104D0000056E002D08BF38BDFFF7E6FC2846FEF70C
:104D100005FB0090B0F90A10A142B8BF0C464481CF
:104D20006846FEF765FB01F091FE38BDC401002026
:104D3000F8B50446FFF7D0FC104E3068056ECCB1D4
:104D4000002D18BF01F096FB08F096F92046FEF7FB
:104D5000E5FA009031680C660068FEF76BFD684666
:104D6000FEF746FB06F048F906F062F801F06EFE29
:104D70002846F8BD01F07EFBF8E70000C4010020E2
:104D800070B582B015460E46040006D1174800687B
:104D9000046E002C04BF02B070BDFFF79DFC2046DE
:104DA000FEF7BCFA2DB20090C58034B2848006F0C4
:104DB0003FF80098406988B1FEF7B0FA009A019078
:104DC000B2F908108180B2F90A20C28000291EBF02
:104DD000002A0480458001A8FEF70AFB6846FEF71A
:104DE00007FB01F033FE02B070BD0000C4010020DB
:104DF00070B584B0040004BF04B070BDFFF76CFC54
:104E00002046FEF78BFA0290B0F904600189B0F9F0
:104E10000650721E1144ADF80410ADF800604089D0
:104E2000691E0844ADF80600ADF8025002A8FEF76E
:104E3000DFFA684609F0C4FF40B12A4631462046F1
:104E400000F064F909F0E6FD0028F6D101F0FEFD5E
:104E500004B070BD2DE9FF4FDFF8FCB083B01C46F5
:104E6000DBF80000DDE9108C92460027437C3A46CF
:104E700060461299FEF778FC050068D028698068C2
:104E8000804706F02BFB81460AFB09F0C01DC608CF
:104E9000FEF75AFA18F0010F05D1C11700EB917017
:104EA000801000EB4000002C09DC002E1ABF1838DF
:104EB000B0FBF6F000206442A042D8BF044618F0D0
:104EC000010F08D100200090DDE90301234652467E
:104ED00001F01AFD0746002C06DC2846FEF7A8FC68
:104EE00007B00020BDE8F08F04FB06F0183018F082
:104EF000010F02D0FEF7B0F801E0FEF7BCF85FEA60
:104F000000081CD0FEF70AFA019005600399818021
:104F10000499C180A0F808A044814761C0E90369F1
:104F200001A8FEF765FA1298C5F808802861DBF839
:104F30000000407CA86107B04046BDE8F08F2846DD
:104F4000FEF776FC002F1CBF3846FEF7B3F80020B2
:104F500007B0BDE8F08F0000C40100202DE9F74F35
:104F600096B014460F461698FEF7D8F90D90B0F992
:104F700008100791B0F90A5000680069D0F8048061
:104F80000DA8FEF735FADFF878915E4ED9F80000EB
:104F9000407C56F82000C1688A6A082190470A9030
:104FA000182824BF20200A90D9F80000407C56F829
:104FB000200000690990D0E900615348814214BF84
:104FC000012000201090002001F0C8FD00281CBF27
:104FD00019B0BDE8F08F07983918D9F80000B0F97A
:104FE0000C20891A491E0029C6BF079A511A079931
:104FF0000691B0F90810B94206DDC91B069A0F44A4
:105000000891511A069102E00021089106990029A1
:10501000DCBF19B0BDE8F08F6119B0F90E20891A14
:10502000491E0029D2BF0C95691A0C91B0F90A00EB
:10503000A042DCBF00250C9804DD051B0C982C4415
:10504000401B0C900028DCBF19B0BDE8F08F00BFFA
:105050000699DDF820A0169805910DF1480BDDF8B2
:105060001C90FFF75EFD09FB05F100EB8100CDE927
:10507000008B00EB8A0221463846059B02F0A4F81B
:105080005FEA000B04BF19B0BDE8F08F1098E8B1DB
:10509000DDE909325846069901F048FEB0B9099891
:1050A000DDF81CA0D946D0F810C0BCF1000F05D027
:1050B0005946042352460846E04707E0D9F8000065
:1050C000B04749F8040BBAF1010AF7D100200A9958
:1050D000CDE90210CDE904B00120019000902146F5
:1050E0000346641C3846069A05F06AF80C9805F1E8
:1050F0000105401E0C90ABD119B0BDE8F08F000047
:10510000C4010020DC01002013AA0008F8B51546F0
:105110000E460746FEF702F9009000681621C068A7
:10512000436A0020984704466846FEF761F9002C60
:1051300008BFF8BD2A4631463846A047F8BD0000F2
:10514000002808BF70472DE9F04FA1B090460E46E9
:105150000746FEF7E3F81990D0F8149019A8FEF767
:1051600047F93846FFF7C4FCF84D082803DDB9F1CC
:10517000000F00F02782F649CDE91586D1E900013C
:10518000CDE91C013C463846FEF7C8F81790D0F828
:105190001490C1681291B0F9081007691491B0F920
:1051A0000A100B9100680069406811902868407CE3
:1051B000FFF74CF91B902868407CFFF7F1F9064691
:1051C00017A8FEF715F9082F9CBF01200A9004D9F3
:1051D000102F94BF022004200A90012F0CBF0DF164
:1051E00070084FF000081198B04200F03181286833
:1051F000407CFFF7CDF91E9014988000FDF72CFF3E
:105200001890002804BF21B0BDE8F08F2046FFF7BA
:1052100088FC0890B9F1000F00F008814846FEF7BD
:105220007DF81A9000200D900B98002840F3FA802A
:10523000002009901A980D9A81684B6909A998472E
:105240000646149886424FD11898FEF767F8089DD5
:1052500004461390082F2ED90296DDF86CB0DDF8C5
:1052600044A0DDF87890069435F8020BD047C84783
:1052700044F8040B761EF7D1BBF1200F04D25A4636
:105280000299069801F08CFC139900201B9ACDF826
:105290001480CDE9030101200090CDE901020D99B0
:1052A000159801230144149A169804F089FF13A855
:1052B000FEF79EF8ABE0DDF86CB0DDF844A0DDF859
:1052C00078900396CDF8104015F8010BD047C847E9
:1052D00044F8040B761EF7D1BBF1200F3CBF5A46B1
:1052E000DDE90310D0D2CDE7012F28D0002E4FD01A
:1052F00015990D9808441F901898FEF70FF804466A
:105300001390DDE908010A9A082F42D901FB02092E
:105310001B98DDF844B0DDF878A00190354605947F
:1053200039F8020BD847D04744F8040B6D1EF7D16B
:105330000198202849D202463146059843E0002EC4
:1053400065D015990D980D18012409980094C1177E
:1053500000EB5173089900F0070201EBE301129B87
:10536000CDE90331CDE90582CDE90147169A2946F9
:1053700010440123324605F0B3FF09980D9A3044DA
:1053800009901A9881684B6909A998470600DCD1F1
:105390003DE001FB02051B98DDF844B0DDF878A084
:1053A0000390B146CDF8104015F8010BD847D0470F
:1053B00044F8040BB9F10109F6D10398202804D26E
:1053C00002463146049801F0EBFB139900201B9A2A
:1053D000CDF81480CDE9030101200090CDE9010250
:1053E000099A16980123104432461F9904F0E8FEEA
:1053F00013A8FDF7FDFF09980D9A304409901A98FB
:1054000081684B6909A9984706007FF475AF089930
:105410001298084408900D980B99401C0D908842F2
:10542000FFF606AF1AA8FDF7E3FF0EE01299CDF8DC
:105430001480CDE9031001200090CDE90107DDE9DA
:1054400015100B9B149A04F0BBFE189800F080BA5C
:105450002046FFF766FB0646B9F1000F75D04846B7
:10546000FDF75CFF1A900B9800250028C4BF4FF091
:10547000000B4FF0010962DD1A98CDF824B02A46DE
:1054800081684B6909A9984714990446884229D133
:105490001A98AA466A1C81684B6909A99847A042D4
:1054A00008D11A98AA1C6D1C81684B6909A99847F4
:1054B000A042F6D0CDF800901298CDF81480CDE936
:1054C0000306CDE901971598A5EB0A0400EB0A0144
:1054D000631C149A169804F073FE1298611C01FB69
:1054E000006628E0012F35D0002C1CBF159800EB7A
:1054F000050A1ED0DDE9090100FB0162CDF800902C
:105500001299CDF81480CDE90312CDE90197169ACE
:10551000514610440123224604F052FE09982A46BF
:10552000204409901A9881684B6909A9984704009A
:10553000E0D1129806440B986D1C85429CDB1AA89A
:10554000FDF756FF21B0BDE8F08F2DE0C40100202B
:10555000B4F60108002C1CBF159800EB050AE8D032
:105560000998129B00F00701CDF80090CDE9058164
:10557000C21700EB527206EBE202CDE90332CDE92D
:105580000197169A514610440123224605F0A8FEC1
:1055900009982A46204409901A9881684B6909A9FC
:1055A00098470400DCD1C4E71298CDF81480CDE907
:1055B000030601200090CDE90107DDE915100B9BE2
:1055C000149A3BE0049704460C9647460498FDF76E
:1055D000A5FE1290B0F908100691B0F90A90C168C2
:1055E000039100F1180102910068D0F810A012A8F0
:1055F000FDF7FEFE2868D849DAF804B0407C51F87F
:1056000020100D692E68FEF721FF082898BF4FF083
:10561000010805D9102894BF4FF002084FF0040884
:10562000AA450ED100200299CDE904100120009076
:10563000CDE901044B463946069A0C9804F0C0FDAA
:1056400080E7202C3ED0102C7FF47CAF069818FB0E
:1056500000F0FDF701FD149000283FF473AFFDF753
:105660005DFE13900498FDF759FE1290296900F130
:105670001804002919BFDAF8141000294FEAC800ED
:10568000109000F01C81B0F908008000FDF7E4FCE8
:105690000E90002808BF089000F05381FDF73EFEF1
:1056A0000890002818BF4FEAC80600F04A8100BFE2
:1056B000B8F1010F76D0B8F1020F74D0B8F1040F31
:1056C00072D0E1E0069818FB00F0FDF7C5FC1490DD
:1056D00000283FF437AFFDF721FE13900498FDF743
:1056E0001DFE00F1180412902869002808BF4FEA37
:1056F000C80B43D04FF0000A4FF0010B4FEAC80629
:10570000B8F1010F06D0B8F1020F0ED0B8F1040FB6
:1057100016D01FE0D5F810C0139901232046069A31
:10572000E047069804EB800414E0D5F810C0139904
:1057300002232046069AE047069804EB800409E01D
:10574000D5F810C0139904232046069AE04706981E
:1057500004EB800413983946CDE903A0CDF800B0DE
:10576000CDF814A0CDE901B67F1C0123069A0C9850
:1057700004F026FDB9F10109C2D140E0069DB8F15F
:10578000010F08BFDDF84CA00FD0B8F1020F08BF21
:10579000DDF84CA011D0B8F1040F08BFDDF84CA023
:1057A00013D019E035E048E05BE054F8040BB04753
:1057B0000AF8010B6D1EF8D10EE054F8040BB04747
:1057C0002AF8020B6D1EF8D106E054F8040BB0471E
:1057D0004AF8040B6D1EF8D113990020CDE903019E
:1057E000059001200090CDE9010B394603467F1C4E
:1057F000069A0C9804F0E4FCB9F10109BED112A894
:10580000FDF7F6FD13A8FDF7F3FD1498FDF752FC24
:1058100098E6DAF814C0DDF84CB002232046069A68
:105820000899E047D5F810C001235946069A089810
:10583000E047069804EB400426E0DAF814C0DDF8EF
:105840004CB002232046069A0899E047D5F810C0CC
:1058500002235946069A0898E047069804EB40044C
:1058600012E0DAF814C0DDF84CB002232046069AA4
:105870000899E047D5F810C004235946069A0898BD
:10588000E047069804EB400413990020CDE903019A
:10589000059001200090CDE90106394603467F1CA2
:1058A000069A0C9804F08CFCB9F101097FF400AF62
:1058B00008A8FDF79DFD0E98FDF7FCFB41E0069D55
:1058C000B8F1010F08BFDDF84CA00CD0B8F1020F01
:1058D00008BFDDF84CA00FD0B8F1040F08BFDDF809
:1058E0004CA012D019E034F8020BD847B0470AF8A0
:1058F000010B6D1EF7D110E034F8020BD847B0470A
:105900002AF8020B6D1EF7D107E034F8020BD847D6
:10591000B0474AF8040B6D1EF7D100201099CDE96D
:105920000210139ACDE9042001200190009039461D
:1059300003467F1C069A0C9804F042FCB9F1010959
:10594000BDD112A8FDF754FD13A8FDF751FD149821
:10595000FDF7B0FBF6E50000DC010020F8B52048BB
:10596000204900680968407C002914BF00220246D3
:105970001D498C56012CD8BFF8BD1C4951F8223066
:105980005B1C41F82230012B18BFF8BD184B0026D4
:10599000A3F1080153F8225051F822C053F8221005
:1059A000491C43F82210A14208BF43F8226053F873
:1059B00022106145F2D00C46FDF7F6FF009000285A
:1059C00008BFF8BDC0682121426A684690470300BD
:1059D00008BFF8BD2246294600989847F8BD000048
:1059E000C401002014020020FC0100202802002035
:1059F00020020020054A1268002A18BF0020002952
:105A0000D8BF0121024A115470470000140200203F
:105A1000FC010020094A1268002A18BF0020084A29
:105A200052F82030002BB8BF7047064B43F82010C7
:105A30004FF0FF3142F820107047000014020020A0
:105A40003002002018020020174818490068096831
:105A5000407C002914BF00220246154989560129BD
:105A6000D8BF7047134951F822305B1E41F82230ED
:105A700018BF704738B5104951F82240103141F82D
:105A80002240FDF791FF0090002808BF38BDC06894
:105A90002221426A68469047020008BF38BD21466D
:105AA0000098904738BD0000C40100201402002077
:105AB000FC0100202802002020020020002808BF4E
:105AC000704700290CBF1146002A20D0B1F900C050
:105AD000B2F900309C45B8BF63460380B1F902C0FB
