:020000040800F2
:10000000D83A012081020008811400080904000880
:100010007D1400081B040008FD1A00080000000001
:10002000000000000000000000000000C101000806
:100030001F040008000000001D020008CD14000885
:100040009B0200089B0200089B0200089B0200081C
:100050009B0200089B0200089B0200089B0200080C
:100060009B0200089B0200089B0200089B020008FC
:100070009B0200089B0200089B0200089B020008EC
:100080009B0200089B0200089B0200089B020008DC
:100090009B0200089B0200089B0200089B020008CC
:1000A0009B0200089B0200089B0200089B020008BC
:1000B0009B0200089B0200089B0200089B020008AC
:1000C0009B0200089B0200089B0200089B0200089C
:1000D0009B020008B51900089B0200089B0200085B
:1000E0009B0200089B0200089B0200089B0200087C
:1000F0009B0200089B0200089B0200089B0200086C
:100100009B0200089B0200089B0200089B0200085B
:100110009B0200089B0200089B0200089B0200084B
:100120009B0200089B0200089B0200089B0200083B
:100130009B0200089B0200089B0200089B0200082B
:100140009B0200089B0200089B0200089B0200081B
:100150009B0200089B0200089B0200089B0200080B
:100160009B0200089B0200089B0200089B020008FB
:100170009B0200089B0200089B0200080000000090
:100180009B0200089B0200089B0200089B020008DB
:100190009B0200089B0200089B0200089B020008CB
:1001A0009B0200089B0200089B020008DFF80CD0AD
:1001B00000F0ECF800480047D11D0008D83A0120B3
:1001C0002C4B19680868B0E8F04F80F30988BFF33A
:1001D0006F8F4FF0000080F311887047000000001F
:1001E00008480068006880F308884FF0000080F33A
:1001F000148862B661B6BFF34F8FBFF36F8F00DF15
:1002000000BF00BF08ED00E0DFF80C00016841F41A
:1002100070010160704700BF88ED00E0EFF30980D6
:10022000BFF36F8F134B1A681EF0100F08BF20ED3D
:10023000108A20E9F04F106009B44FF0500080F3AD
:100240001188BFF34F8FBFF36F8F03F03FFC4FF068
:10025000000080F3118809BC19680868B0E8F04F05
:100260001EF0100F08BFB0EC108A80F30988BFF3AE
:100270006F8F70477C000020EFF30580704700000F
:100280000648804706480047FEE7FEE7FEE7FEE730
:10029000FEE7FEE7FEE7FEE7FEE7FEE7E9150008FA
:1002A000AD0100082DE9F05F0546002092469B460F
:1002B00088460646814640241BE02846414647467C
:1002C000224600F053F853465A46C01A914110D3C3
:1002D00011461846224600F03AF82D1A67EB01083D
:1002E0004F4622460120002100F031F817EB0009AB
:1002F0004E41201EA4F10104DFDC484631462A4667
:100300004346BDE8F09F40EA01039B0703D009E0A4
:1003100008C9121F08C0042AFAD203E011F8013BF1
:1003200000F8013B521EF9D27047D2B201E000F84A
:10033000012B491EFBD270470022F6E710B5134689
:100340000A4604461946FFF7F0FF204610BD202A52
:1003500004DB203A00FA02F1002070479140C2F11C
:10036000200320FA03F3194390407047202A04DB4E
:10037000203A21FA02F00021704721FA02F3D0401E
:10038000C2F120029140084319467047064C074DC0
:1003900006E0E06840F0010394E807009847103455
:1003A000AC42F6D3FFF706FF7053000890530008E5
:1003B00070B58C1810F8015B15F0070301D110F827
:1003C000013B2A1106D110F8012B03E010F8016B54
:1003D00001F8016B5B1EF9D12B0705D40023521ED7
:1003E0000DD401F8013BFAE710F8013BCB1A921C3F
:1003F00003E013F8015B01F8015B521EF9D5A1423D
:10040000D8D3002070BD00001EF0040F0CBFEFF326
:100410000880EFF3098000F03BBF00BFFEE77047A4
:1004200001B9704700BFFEE770B504461D460023C2
:10043000B5F5804F13D154F822300C480340D1E970
:10044000000640EA06108E6840EA06208E8940EADF
:1004500006408E693043034344F8223003E06FF0D6
:10046000704044F82200002070BD00000000F0CF72
:1004700010B502460023086852F82030184803409F
:10048000D1E901042043CC6820430C6920434C6926
:1004900020438C692043CC6920430C6A20434C6A7A
:1004A00020438C6A2043CC6A2043CC6B20430C6BE6
:1004B00020434C6B204303438868082801D143F054
:1004C0004003086842F82030486BB0F5801F05D122
:1004D000086818B110684C6B20431060002010BDF4
:1004E0008000E0FF30B5034614460022601C53F83C
:1004F000202002F04042D1E9000540EA05108D6855
:1005000040EA05208D8940EA0545088A401E45EAF3
:100510000055087D801E45EA00608D69284302432E
:10052000601C43F82020186800F48010B0F5801F8C
:1005300007D1586820F47002088A401E42EA00522F
:100540005A60002030BD000001200149086070475A
:1005500000042742F8B502460B460025002400207F
:100560000021E6E0012606FA01F51E6806EA050408
:10057000AC4273D15E68022E02D05E68122E13D197
:10058000CF0802F1200656F827004E07F70E0F2677
:10059000BE40B0434F07FF0E1E69BE403043CF0838
:1005A00002F1200646F8270010684F000326BE40DF
:1005B000B0431E7906F003064F00BE403043106082
:1005C0005E68012E08D05E68022E05D05E68112E8E
:1005D00002D05E68122E13D190684F000326BE40F1
:1005E000B0434F00DE68BE40304390605068012643
:1005F0008E40B0431E79C6F300168E4030435060E3
:10060000D0684F000326BE40B0434F009E68BE40F6
:100610003043D0605E6806F08056B6F1805FA8D1A6
:1006200000BF00260096454E366846F48046434F8C
:100630003E603E46366806F48046009600BF00BF26
:100640003F4E8F0856F827008E07370F0F26BE4003
:10065000B0433C4EB24202D100262EE068E03A4E52
:10066000B24201D1012628E0384EB24201D1022621
:1006700023E0374EB24201D103261EE0354EB2428E
:1006800001D1042619E0344EB24201D1052614E00E
:10069000324EB24201D106260FE0314EB24201D1B4
:1006A00007260AE02F4EB24201D1082605E02E4E61
:1006B000B24201D1092600E00A268F073F0FBE4053
:1006C00030431F4E8F0846F82700284E3068A0435D
:1006D0005E6806F48036B6F5803F00D12043234E95
:1006E0003060361D3068A0435E6806F40036B6F50B
:1006F000003F00D120431D4E361D3060361D30684E
:10070000A0435E6806F48016B6F5801F00D1204332
:10071000164E08363060361D3068A0435E6806F419
:100720000016B6F5001F00D12043104E0C36306085
:10073000491C1029FFF416AFF8BD000044380240F0
:100740000838014000000240000402400008024056
:10075000000C024000100240001402400018024049
:10076000001C02400020024000240240003C0140E6
:1007700001480068704700000400002010B50D48D3
:10078000006840F400700B4908600846006840F4B7
:10079000806008600846006840F4807008600320AC
:1007A00000F080F80F2000F007F800F02BF8002090
:1007B00010BD0000003C024070B504460E480078B1
:1007C0004FF47A71B1FBF0F00C490968B1FBF0F518
:1007D000284600F00AFC08B1012070BD102C07D299
:1007E00000222146501E00F01EF80548046001E07A
:1007F0000120F2E70020F0E70C00002010000020AC
:1008000008000020704701460846002809DB00F078
:100810001F0301229A4043099B0003F1E023C3F820
:10082000002100BF70472DE9F05F80460D46164657
:10083000002701F065F9074639462A46334601F09C
:100840000700C0F1070ABAF1040F02D94FF0040AF9
:1008500001E0C0F1070AD14600F1040ABAF1070F1E
:1008600002D24FF0000A01E0A0F1030AD4464FF093
:10087000010A0AFA09FAAAF1010A0AEA020A0AFABC
:100880000CFA4FF0010B0BFA0CFBABF1010B0BEA6E
:10089000030B4AEA0B042146404601F039F9BDE852
:1008A000F09F000000BF00F00702064B19684FF6EA
:1008B000FF031940044B0B4343EA0221014B19602B
:1008C00000BF70470CED00E00000FA0570B504466B
:1008D0000D460CB9012070BD5848006800F00F00AB
:1008E000A84209D255490D700846006800F00F0073
:1008F000A84201D00120EEE7207800F00200022893
:100900001DD1207800F00400042805D14C4800686F
:1009100040F4E0504A490860207800F008000828B8
:1009200005D14748006840F46040454908604448A4
:10093000006820F0F000A168084341490860207871
:1009400000F00100A8B36068012807D13C480838CE
:100950000068C0F34040B8B90120BCE760680228D5
:1009600002D06068032807D1354808380068C0F312
:10097000406048B90120AEE7314808380068C0F34C
:10098000400008B90120A6E72D48006820F00300C8
:10099000616808432A490860FFF7EAFE064609E055
:1009A000FFF7E6FE801B41F28831884202D903201E
:1009B00091E707E02248006800F00C006168B0EBA6
:1009C000810FEDD11D48006800F00F00A84209D941
:1009D0001A490D700846006800F00F00A84201D0C7
:1009E000012078E7207800F00400042807D114489B
:1009F000006820F4E050E16808431149086020785D
:100A000000F00800082808D10D48006820F4604074
:100A1000216940EAC1000A49086000F03DF8084930
:100A20000968C1F30311074A515CC84006490860D0
:100A30000F20FFF7C1FE00204DE70000003C024000
:100A40000838024058530008100000200148006890
:100A5000704700001000002000B5FFF7F7FF0449C1
:100A60000968C1F38221034A515CC84000BD0000FF
:100A7000083802406853000800B5FFF7E7FF044953
:100A80000968C1F34231034A515CC84000BD00000F
:100A900008380240685300082DE9F047002400257B
:100AA0000026A1462548006800F00C0020B104286B
:100AB00005D008283AD105E0DFF8849039E0DFF866
:100AC000849036E01D48001F006800F03F041B487A
:100AD000001F006800F4800078B11A481749091F08
:100AE0000968C1F38811A0FB01700146224600236A
:100AF0003846FFF7D7FB05460EE011480F49091F9E
:100B00000968C1F38811A0FB017001462246002349
:100B10003846FFF7C7FB05460848001F0068C0F3CA
:100B20000140401C4600B5FBF6F902E0DFF81090EA
:100B300000BF00BF4846BDE8F0870000083802400B
:100B40000024F40000127A00F8B504460CB9012024
:100B5000F8BD207800F00100002874D0F948006842
:100B600000F00C0004280DD0F648006800F00C00DE
:100B7000082813D1F348001F006800F48000B0F586
:100B8000800F0BD1EF4808380068C0F340400028C0
:100B900059D06068002856D10120D9E700BF6068AD
:100BA000B0F5803F08D1E7480838006840F480304D
:100BB000E449083908601EE06068B0F5A02F0DD147
:100BC000E0480838006840F48020DE4908390860B1
:100BD0000846006840F4803008600CE0D9480838C6
:100BE000006820F48030D74908390860084600685A
:100BF00020F48020086000BF606890B1FFF7B8FD66
:100C0000054606E0FFF7B4FD401B642801D9032028
:100C10009EE7CC4808380068C0F340400028F1D077
:100C200011E0FFF7A5FD054606E0FFF7A1FD401B1B
:100C3000642801D903208BE7C24808380068C0F354
:100C400040400028F1D1207800F0020002285FD156
:100C5000BC48006800F00C0058B1BA48006800F0C9
:100C60000C0008281CD1B748001F006800F4800061
:100C7000B0B9B44808380068C0F3400020B1E0685B
:100C8000012801D0012063E7AE480838006820F051
:100C9000F800216940EAC100AA490839086037E034
:100CA000E06800B30120A8490860FFF761FD054630
:100CB00006E0FFF75DFD401B022801D9032047E74E
:100CC000A04808380068C0F340000028F1D09D48D3
:100CD0000838006820F0F800216940EAC10099490D
:100CE0000839086014E0002097490860FFF740FDCC
:100CF000054606E0FFF73CFD401B022801D9032012
:100D000026E7904808380068C0F340000028F1D179
:100D1000207800F0080008282CD16069A8B10120D3
:100D20008A490860FFF724FD054606E0FFF720FD2D
:100D3000401B022801D903200AE782486C30006872
:100D4000C0F340000028F1D014E000207F49086083
:100D5000FFF70EFD054606E0FFF70AFD401B0228DF
:100D600001D90320F4E677486C300068C0F34000F6
:100D70000028F1D1207800F00400042870D100266A
:100D800070483830006800F0805090B900BF0020F3
:100D900000906C483830006840F080506949383124
:100DA00008600846006800F08050009000BF00BF57
:100DB00001266748006800F48070B0B96448006894
:100DC00040F4807062490860FFF7D2FC054606E0F7
:100DD000FFF7CEFC401B022801D90320B8E65C488F
:100DE000006800F480700028F2D000BFA0680128DD
:100DF00008D154486830006840F00100514968311A
:100E000008601DE0A06805280DD14E4868300068D4
:100E100040F004004B49683108600846006840F023
:100E2000010008600CE047486830006820F00100CD
:100E30004449683108600846006820F004000860F2
:100E400000BFA068A8B1FFF793FC054609E0FFF7D3
:100E50008FFC401B41F28831884202D9032077E69B
:100E600026E0384868300068C0F340000028EED023
:100E700013E0FFF77DFC054608E0FFF779FC401B17
:100E800041F28831884201D9032061E62D4868305B
:100E90000068C0F340000028EFD1012E07D1294897
:100EA0003830006820F0805026493831086000BF93
:100EB000A069B8B32348006800F00C0008285ED091
:100EC000A069022846D100201F490866FFF750FCA0
:100ED000054606E0FFF74CFC401B022801D9032021
:100EE00036E6184808380068C0F340600028F1D1A1
:100EF000D4E907010843616A40EA81110122A06A2E
:100F0000C2EB500041EA00412C20005D41EA006044
:100F10000C49091F086001200B490866FFF728FCEF
:100F2000054607E02DE0FFF723FC401B022801D90E
:100F300003200DE6034808380068C0F3406000282D
:100F4000F1D01EE00838024000004742800E4742C0
:100F50000070004000200C490866FFF709FC0546B8
:100F600006E0FFF705FC401B022801D90320EFE54E
:100F700006480068C0F340600028F2D101E001207B
:100F8000E6E50020E4E500000000474200380240AA
:100F900070B504460E4615460CB9012070BD94F894
:100FA000490028B9002084F84800204600F01CF8C9
:100FB00004F108012068FFF75BFA3146A268206857
:100FC000FFF790FA2946236BD4E90102FFF72CFAC8
:100FD000A168206850F8210040F00100A268216853
:100FE00041F822000020D9E7704770B50446254635
:100FF000681EB0F1807F01D301200FE0681E4FF022
:10100000E02148610F214FF0FF3000F081FD00200A
:101010004FF0E021886107200861002070BD10B505
:1010200004460CB9012010BDA06900B100E000BF6A
:1010300094F8390028B9002084F83800204600F0E0
:1010400027F8242084F839002068C06820F4005074
:101050002168C860204600F0F9FA2068006920F491
:101060009040216808612068406920F02A002168CA
:1010700048612068C06840F400502168C8600020C2
:10108000E063202084F8390084F83A000020CAE7A1
:101090007047000000B59BB0502107A8FFF74CF93E
:1010A0001C216846FFF748F94FF020400790174889
:1010B000089003200090002001900620029000205C
:1010C00003900490059006900220099000210A9157
:1010D0000B9120210C9100210D910E911091C102D4
:1010E000119100211291139114911591169117915C
:1010F0006A46694607A8FFF74BFF20B140F221116D
:1011000003A0FFF78DF91BB000BD0000040100A093
:101110002E2E5C557365725C6273705C7372635CD7
:101120006273705F666D635F696F2E63000000001D
:1011300000B587B000BF002001904448006840F02F
:101140000800424908600846006800F00800019065
:1011500000BF00BF00BF002001900846006840F0BB
:10116000100008600846006800F01000019000BF01
:1011700000BF00BF002001900846006840F040001A
:1011800008600846006800F04000019000BF00BF02
:1011900000BF002001900846006840F08000086011
:1011A0000846006800F08000019000BF00BF00BF4B
:1011B000002001900846006840F4807008600846EE
:1011C000006800F48070019000BF00BF00BF0020E5
:1011D00001901E480830006840F001001B490831AA
:1011E00008600846006800F00100019000BF00BFE1
:1011F0000220039001200490032005900C2006900B
:101200004CF23370029002A91148FFF7A3F94FF690
:101210008070029002A90F48FFF79CF940F203206A
:10122000029002A90C48FFF795F94FF47F40029015
:1012300002A90A48FFF78EF940F2CF60029002A996
:101240000748FFF787F907B000BD000030380240BB
:10125000000C02400010024000180240001C024036
:101260000020024029B9084A12688243064B1A60DE
:1012700004E0054A12680243034B1A60024A1268EE
:10128000024B1A607047000000000020001000644C
:1012900010B53249096801F0004149B12F49096888
:1012A00041F000412D4A11608169891C816110BDA6
:1012B0002A49083909682A4A11622849091F097808
:1012C00082F824102549C91E0978916223490C31FE
:1012D0000968D1622149891E098811861F49096858
:1012E00051631E49091D096891631C491031096841
:1012F000D1631CA200210BE0535C254C636000BF4E
:10130000234B1B6803F04003002BF9D04B1CD9B2D0
:101310002929F1D300211F4A116000BF1D49096826
:101320000029FBD00E4A0168116041685160816854
:101330009160C168D1600169116141695161816940
:101340009161C169D1610021124A116000BF114948
:1013500009680029FBD000BFA9E700002CED00E0E0
:10136000980A00200D0A456E746572204861726407
:101370004661756C745F48616E646C65722C2053B5
:10138000797374656D2048616C742E0D0A0000003D
:10139000001001401400002000B587B000BF0020FD
:1013A00001903348006840F0010031490860084668
:1013B000006800F00100019000BF00BF00BF0020E6
:1013C00001900846006840F0010008600846006887
:1013D00000F00100019000BF00BF00BF002001909D
:1013E00023481430006840F010002149143108608F
:1013F0000846006800F01000019000BF00BF4815CB
:101400000290022003900120049003200590072001
:10141000069002A91748FFF79DF84FF480600290EC
:101420000720069002A91348FFF794F80122002133
:101430002520FFF7F8F92520FFF7E5F90C23002216
:101440004FF4E1310C4800F099FC0B48006820F0A3
:101450004000094908600846006820F02000086044
:101460000846C06840F02000C86007B000BD00001A
:1014700030380240000002400010014000BFFEE78B
:101480007047000000B587B000BF002001900D48F4
:10149000006840F002000B4908600846006800F050
:1014A0000200019000BF00BF0120039000200490C3
:1014B000032005900420029002A90348FFF74AF890
:1014C00007B000BD303802400004024010B500BF34
:1014D000502080F31188BFF34F8FBFF36F8F00BF91
:1014E00001F0ECFF18B14FF080500449086000BFD4
:1014F000002080F3118800BF10BD000004ED00E063
:1015000000B593B000BF002001903048006840F063
:1015100080502E4908600846006800F08050019015
:1015200000BF00BF00BF002001902948006840F4C0
:101530004040274908600846006800F44040019098
:1015400000BF00BF01200290000403900220089019
:101550004105099108210A914FF4A8710B910221CC
:101560000C9104210D9102A8FFF7EEFA18B1702139
:1015700018A0FEF755FF0F200E9002200F900020BC
:1015800010904FF4A05011904FF48050129005210C
:101590000EA8FFF79BF918B183210EA0FEF740FFBC
:1015A00000BF002001900948001D006840F4804001
:1015B0000649091D08600846006800F48040019053
:1015C00000BF00BFFEF7C0FF13B000BD40380240AF
:1015D000007000402E2E5C557365725C6273705C07
:1015E0006273702E630000001448006840F47000BD
:1015F000124908601248006840F001001049086074
:1016000000200F49083108600D4800680D49084066
:101610000B4908600C48091D0860081F006820F489
:101620008020091F0860002005490C3108604FF038
:1016300000600249803908607047000088ED00E0D2
:1016400000380240FFFFF6FE103000242DE9F04183
:1016500004462068006920F44050E168084321688E
:1016600008612169A068084361690843E16940EAAB
:1016700001052068C06849F20C618843284321684D
:10168000C8602068406920F44070A169084321685F
:101690004861E069B0F5004F7ED1C44920688842B6
:1016A00003D0C349206888425DD1FFF7E5F900EB1C
:1016B000C00101EB001061684900B0FBF1F064214A
:1016C000B0FBF1F00601FFF7D7F900EBC00101EB29
:1016D000001061684900B0FBF1F7FFF7CDF900EBAE
:1016E000C00101EB001061684900B0FBF1F064211A
:1016F000B0FBF1F000EBC00101EB0010A7EB8000A4
:10170000322101EBC0006421B0FBF1F000F0F800E1
:1017100006EB4006FFF7B0F900EBC00101EB00104B
:1017200061684900B0FBF1F7FFF7A6F900EBC001D3
:1017300001EB001061684900B0FBF1F06421B0FBDF
:10174000F1F000EBC00101EB0010A7EB80003221AB
:1017500001EBC0006421B0FBF1F000F00700304461
:101760002168886020E1FFF777F900EBC00101EB09
:10177000001061684900B0FBF1F06421B0FBF1F0AA
:101780000601FFF769F900EBC00101EB0010616889
:101790004900B0FBF1F700E045E0FFF75DF900EB31
:1017A000C00101EB001061684900B0FBF1F0642159
:1017B000B0FBF1F000EBC00101EB0010A7EB8000E3
:1017C000322101EBC0006421B0FBF1F000F0F80021
:1017D00006EB4006FFF740F900EBC00101EB0010FB
:1017E00061684900B0FBF1F7FFF736F900EBC00183
:1017F00001EB001061684900B0FBF1F06421B0FB1F
:10180000F1F000EBC00101EB0010A7EB80003221EA
:1018100001EBC0006421B0FBF1F000F007003044A0
:1018200021688860C0E061492068884203D060492F
:10183000206888425CD1FFF71FF900EBC00101EB83
:10184000001061688900B0FBF1F6FFF715F900EBB5
:10185000C00101EB001061688900B0FBF1F0642168
:10186000B0FBF1F000EBC00101EB0010A6EB800033
:10187000322101EB00106421B0FBF1F000F0F00622
:10188000FFF7FAF800EBC00101EB00106168890076
:10189000B0FBF1F06421B0FBF1F006EB0016FFF7AE
:1018A000EBF800EBC00101EB001061688900B0FBB0
:1018B000F1F7FFF7E1F800EBC00101EB0010616800
:1018C0008900B0FBF1F06421B0FBF1F000EBC00146
:1018D00001EB0010A7EB8000322101EB0010642126
:1018E000B0FBF1F000F00F003044216888605BE04D
:1018F000FFF7B2F800EBC00101EB0010616889004E
:10190000B0FBF1F6FFF7A8F800EBC00101EB001007
:1019100061688900B0FBF1F06421B0FBF1F000EBED
:10192000C00101EB0010A6EB8000322101EB00109A
:101930006421B0FBF1F000F0F006FFF78DF800EB4A
:10194000C00101EB001061688900B0FBF1F0642177
:10195000B0FBF1F006EB0016FFF77EF800EBC001DC
:1019600001EB001061688900B0FBF1F7FFF774F834
:1019700000EBC00101EB001061688900B0FBF1F0E1
:101980006421B0FBF1F000EBC00101EB0010A7EB0C
:101990008000322101EB00106421B0FBF1F000F077
:1019A0000F00304421688860BDE8F08100100140DC
:1019B0000014014010B5024800F004F810BD00000A
:1019C0006C0200202DE9F04104462068056820687B
:1019D000C6682068D0F8148005F02000D8B12068CF
:1019E0004068C7B2E18AA0684754E08A401C80B2D0
:1019F000E082E189884201DB0020E082608BE1899E
:101A0000884202DA608B401C6083606A10B13846FD
:101A1000616A884700BF05F0800028B306F08000A7
:101A200010B3A08A60B92068C06820F080002168E7
:101A3000C8602068C06840F040002168C86013E0BA
:101A4000012084F82800618A6068405C2168486051
:101A5000608A401C80B26082A189884201DB00203C
:101A60006082A08A401EA08205F0400018B306F0F4
:101A7000400000B3A08A68B92068C06820F0400028
:101A80002168C860206A08B1206A8047002084F875
:101A9000280010E0618A6068405C21684860608AC4
:101AA000401C80B26082A189884201DB00206082F4
:101AB000A08A401EA082BDE8F08100000B480C49BE
:101AC00008600C4848600C4888604FF4806088814A
:101AD000C881002008824882C8820883488388829F
:101AE000C8610862486281F8280070470010014010
:101AF0006C020020980200209806002000BFFEE73C
:101B000002480068C0F30220704700000CED00E0BE
:101B100010B5002804DB0A07130E054A135406E02B
:101B20000A07140E034A00F00F031B1FD45410BD04
:101B300000E400E018ED00E002E008C8121F08C150
:101B4000002AFAD170477047002001E001C1121F3E
:101B5000002AFBD1704710B5FEF710FEFFF7D0FC4E
:101B600000F01AF800F0D2F800F004F800F0C0F825
:101B700010BD000010B5FFF7DBFAFFF78BFA40F657
:101B8000147003490860084600680249086010BDE7
:101B9000000000200010006410B500F06DF800F0A7
:101BA00001F810BD10B586B000BF0020009030488D
:101BB000006840F004002E4908600846006800F004
:101BC0000400009000BF00BF00BF00200090084646
:101BD000006840F0200008600846006800F020001F
:101BE000009000BF00BF00BF0020009008460068C2
:101BF00040F0400008600846006800F04000009097
:101C000000BF00BF00BF002000900846006840F001
:101C1000800008600846006800F08000009000BF67
:101C200000BF00BF002000900846006840F48070AC
:101C300008600846006800F48070009000BF00BF94
:101C40000020029003900320049000240CE0094837
:101C500000EBC40080880190064951F8340001A9C6
:101C6000FEF778FC601CC4B2082CF0DB06B010BD97
:101C7000303802401853000810B500201A49887205
:101C8000C8720873002418E06420184901EB04119D
:101C900008810220154901EB041108710020134945
:101CA00001EB04118872114901EB0411C8720F494C
:101CB00001EB04110873601CC4B20A2CE4DB062299
:101CC0006421032000F048F806226421042000F07B
:101CD00043F806226421052000F03EF80622642124
:101CE000104600F039F810BD5C020020BC01002055
:101CF00010B5012000F012F8022000F00FF80320C8
:101D000000F00CF8042000F009F810BD10B5FFF742
:101D1000D5FEFFF741FBFFF7B5FB10BD10B504463C
:101D2000012C04D101210002FFF79CFA13E0022CE0
:101D300004D101214802FFF795FA0CE0032C04D1ED
:101D400001218802FFF78EFA05E0042C03D101215E
:101D5000C802FFF787FA10BD10B5074B03EB00135D
:101D60001981054B03EB0013DA720023024C04EBDC
:101D70000014237310BD0000BC010020F0B591B029
:101D800004460D4617461E46019402950021039114
:101D90000491059707910696089101A8FFF73FF96E
:101DA00020B14FF4497102A0FEF73AFB11B0F0BD2B
:101DB0002E2E5C557365725C6273705C7372635C2B
:101DC0006273705F756172745F6669666F2E63001F
:101DD00010B5FFF7C0FE01F0F2FF002010BD0000BB
:101DE00030B54FF49633174800F007042CB1C01DEE
:101DF00020F00700134C041B1B1B0246124C2260F0
:101E00000024114D6C60D018083820F007000F4CEA
:101E1000206000240D4D2D686C600C4D2D682C60E9
:101E20001146441A4C60094C24680C60084D4C68FB
:101E30002C60084D4C682C604FF00044064D2C601F
:101E400030BD0000D80A002018000020200000202B
:101E500028000020240000202C00002000BF01F0FA
:101E600090FF034800680128F9D901DFF7E7000077
:101E70008000002010B50146164800E000680368A5
:101E80008B42FBD30246436813448B4204D1436820
:101E90004C682344436001460A464B681344046877
:101EA000A34211D10C4C03682468A34208D04B68AC
:101EB0000468646823444B6003681B680B6005E09A
:101EC000054B1B680B6001E003680B60884200D083
:101ED000016010BD18000020200000200A49096898
:101EE000096809B9012100E0002121B14FF0FF315B
:101EF000064A116006E004490968C968C868034ACF
:101F000041681160704700000C010020740100203E
:101F10000E480068401C08B9012000E0002050B9BC
:101F200000BF502080F31188BFF34F8FBFF36F8F36
:101F300000BF00BFFEE700BF502080F31188BFF351
:101F40004F8FBFF36F8F00BF00BFFEE73000002050
:101F5000001F4FF080730360001F21F00103036036
:101F6000001F054B036014380260001F6FF002036E
:101F70000360203870470000111F000801460A69FD
:101F8000D1E901309860D1E9010358605068884276
:101F900001D188685060002008611068401E106000
:101FA0001068704700F1080141604FF0FF31816017
:101FB00000F10801C160016100210160704700214A
:101FC0000161704710B502460B685C1C0CB91069C2
:101FD00007E002F1080000E04068446824689C4281
:101FE000FAD944684C604C68A160886041600A611D
:101FF0001468641C146010BD42684A6093688B606A
:10200000936859609160086103685B1C03607047C6
:102010000A480068B0F57A7F01D1012000E0002075
:1020200050B900BF502080F31188BFF34F8FBFF32A
:102030006F8F00BF00BFFEE7704700003000002038
:1020400000BF502080F31188BFF34F8FBFF36F8F15
:1020500000BF0E480068401C0C4908600846006834
:10206000012812D10A480068C0B208B9012000E076
:10207000002050B900BF502080F31188BFF34F8F6C
:10208000BFF36F8F00BF00BFFEE770473000002036
:1020900004ED00E00D48006850B900BF502080F307
:1020A0001188BFF34F8FBFF36F8F00BF00BFFEE7F4
:1020B00006480068401E054908600846006820B9C7
:1020C000002080F3118800BF00BF7047300000205F
:1020D00000204FF0E0210861886102484861072034
:1020E000086170473F90020070B5FEF7C5F80446DE
:1020F000102C16D304F1E02090F8F0531548007826
:10210000854201DB012000E0002050B900BF5020D3
:1021100080F31188BFF34F8FBFF36F8F00BF00BFF5
:10212000FEE70D48006800F4E0600C490968884249
:1021300001D8012000E0002050B900BF502080F3FA
:102140001188BFF34F8FBFF36F8F00BF00BFFEE753
:1021500070BD0000340000200CED00E038000020CD
:102160001CB5524800685249884201D0012000E065
:10217000002050B900BF502080F31188BFF34F8F6B
:10218000BFF36F8F00BF00BFFEE7484800684849B3
:10219000491E884201D0012000E0002050B900BF54
:1021A000502080F31188BFF34F8FBFF36F8F00BFB4
:1021B00000BFFEE73F49084600780190FF200A462D
:1021C00010700846007800909DF8000000F0F000C4
:1021D0009DF80020904201D1012000E0002050B97C
:1021E00000BF502080F31188BFF34F8FBFF36F8F74
:1021F00000BF00BFFEE79DF8000000F050002E4A2F
:10220000107007202D4A106009E02C480068401E1D
:102210002A4A10609DF800004006000E00909DF8CC
:10222000000000F080008028EFD024480068C0F152
:102230000700042801D1012000E0002050B900BFB0
:10224000502080F31188BFF34F8FBFF36F8F00BF13
:1022500000BFFEE7194800680002184A10601046E7
:10226000008800F4E0601060124A019810700F4876
:102270002030006840F470000C49203108600846A6
:10228000006840F070400860FFF722FF00200C4912
:102290000860FDF7B9FF0B48006840F0404009496D
:1022A0000860FDF79DFF00201CBD000000ED00E070
:1022B00071C20F4100E400E034000020380000202B
:1022C0003000002034EF00E070B505460E462C4685
:1022D00054B900BF502080F31188BFF34F8FBFF374
:1022E0006F8F00BF00BFFEE7FFF7AAFED4E90F1211
:1022F000206801FB0200A0600020A06320686060ED
:10230000E06B401E226C216800FB0211E160FF209F
:1023100084F8440084F845009EB9206908B901207A
:1023200000E00020A8B904F1100001F011FF80B115
:102330004FF08050FA490860BFF34F8FBFF36F8FA3
:1023400007E004F11000FFF72DFE04F12400FFF771
:1023500029FEFFF79FFE012070BD2DE9F0410646E2
:102360000D4617469846069C0DB9246000E027608C
:10237000E663256401212046FFF7A6FF84F84C8020
:10238000BDE8F0812DE9F84305460E4690460DB1B3
:10239000012000E0002050B900BF502080F31188D8
:1023A000BFF34F8FBFF36F8F00BF00BFFEE70EB9C3
:1023B000002701E005FB06F707F1500002F0C0FE20
:1023C00004464CB1A14609F1500943464A463146FC
:1023D00028460094FFF7C1FF2046BDE8F88370B59A
:1023E0000446FFF72DFE94F9455010E0606A08B9E5
:1023F000012000E0002038B904F1240001F0A8FE1B
:1024000018B101F0A8FF00E003E0681E45B2002DFE
:10241000ECDC00BFFF2084F84500FFF73BFEFFF730
:102420000FFE94F9445010E0206908B9012000E043
:10243000002048B904F1100001F08AFE08B101F053
:102440008AFF681E45B200E001E0002DECDC00BF11
:10245000FF2084F84400FFF71DFE70BD70B50546EF
:10246000FFF7EEFDA86BE96B884201D1012400E083
:102470000024FFF70FFE204670BD2DE9F041044611
:102480000F4615464FF00008A66B206C48B920682F
:1024900000282CD1A06801F0D9FF80460020A06060
:1024A00025E07DB93946226C6068FDF72CFF216C70
:1024B000606808446060D4E90101884217D320684D
:1024C000606014E03946226CE068FDF71CFF216C67
:1024D000E068411AE1602168E068884203D2216C1B
:1024E000A068411AE160022D01D106B1761E701C70
:1024F000A0634046BDE8F0812DE9FF4383B0064666
:1025000088461D464FF00009344654B900BF50209C
:1025100080F31188BFF34F8FBFF36F8F00BF00BFF1
:10252000FEE7B8F1000F01D1206C08B9012000E0EE
:10253000002050B900BF502080F31188BFF34F8FA7
:10254000BFF36F8F00BF00BFFEE7022D02D1E06B2B
:10255000012801D1012000E0002050B900BF502027
:1025600080F31188BFF34F8FBFF36F8F00BF00BFA1
:10257000FEE701F002FF08B9059808B9012000E064
:10258000002050B900BF502080F31188BFF34F8F57
:10259000BFF36F8F00BF00BFFEE700BFFFF750FD26
:1025A000A06BE16B884201D3022D28D12A46414617
:1025B0002046FFF762FF0746606A08B9012000E085
:1025C000002068B904F1240001F0C2FD88B14FF089
:1025D000805053490860BFF34F8FBFF36F8F08E0FF
:1025E0003FB14FF080504E490860BFF34F8FBFF3AB
:1025F0006F8FFFF74FFD012007B0BDE8F08305980E
:1026000018B9FFF747FD0020F6E7B9F1000F04D134
:1026100001A801F057FE4FF00109FFF73BFD01F063
:10262000B3F8FFF70DFD94F94400401C10B90020E9
:1026300084F8440094F94500401C10B9002084F847
:102640004500FFF727FD05A901A801F042FEF0B9FA
:102650002046FFF703FFA0B104F11000059901F037
:102660000DFD2046FFF7BBFE00F0E0FF002895D1EE
:102670004FF080502A490860BFF34F8FBFF36F8F30
:102680008CE72046FFF7ABFE00F0D0FF86E7204640
:10269000FFF7A5FE00F0CAFF0020ADE710B5044625
:1026A00054B10020A06020600021E16000231A46A0
:1026B00019462046FFF720FF10BD2DE9F0410446E2
:1026C00001260027224600210120FFF75BFE054678
:1026D0002846FFF7E3FF2846BDE8F08170B50546C0
:1026E0002C4654B900BF502080F31188BFF34F8FA0
:1026F000BFF36F8F00BF00BFFEE701F03BFEA16894
:1027000088420FD1E068401EE060E06828B90023ED
:102710001A4619462046FFF7EFFE012603E00000A7
:1027200004ED00E00026304670BD01464A6A22B141
:102730000A6B1268C2F1050000E00020704770B516
:102740000546FFF77DFCA86B08B9012400E00024D2
:10275000FFF7A0FC204670BD2DE9F34182B005468D
:102760004FF000082C46002654B900BF502080F3DB
:102770001188BFF34F8FBFF36F8F00BF00BFFEE71D
:10278000206C08B9012000E0002050B900BF5020A3
:1027900080F31188BFF34F8FBFF36F8F00BF00BF6F
:1027A000FEE701F0EAFD08B9039808B9012000E04E
:1027B000002050B900BF502080F31188BFF34F8F25
:1027C000BFF36F8F00BF00BFFEE700BFFFF738FC0D
:1027D000A76BFFB1781EA063206810B901F013FF4A
:1027E000A060206908B9012000E0002060B904F170
:1027F000100001F0ADFC38B14FF08050F84908608E
:10280000BFF34F8FBFF36F8FFFF744FC012004B07D
:10281000BDE8F081039898B90EB9012000E00020CE
:1028200050B900BF502080F31188BFF34F8FBFF322
:102830006F8F00BF00BFFEE7FFF72CFC0020E6E72C
:10284000B8F1000F04D1684601F03CFD4FF00108DB
:10285000FFF720FC00F098FFFFF7F2FB94F944002B
:10286000401C10B9002084F8440094F94500401C35
:1028700010B9002084F84500FFF70CFC03A9684656
:1028800001F027FD40BB2046FFF759FFF0B120685B
:1028900038B9FFF7D5FBA06801F07BFD0646FFF7CE
:1028A000F9FB04F12400039901F0E8FB2046FFF74F
:1028B00096FD00F0BBFE002888D14FF08050C8493B
:1028C0000860BFF34F8FBFF36F8F7FE72046FFF79E
:1028D00086FD00F0ABFE79E72046FFF780FD00F0B3
:1028E000A5FE2046FFF72BFF0028EED05EB1FFF7D4
:1028F000A7FB2046FFF719FF07463946A06801F0FD
:1029000003FEFFF7C7FB002081E72DE9F0410646F3
:102910000F46344654B900BF502080F31188BFF3EE
:102920004F8FBFF36F8F00BF00BFFEE701F022FDA6
:10293000A168884204D1E068401CE060012508E0FD
:1029400039462046FFF708FF054615B1E068401CF0
:10295000E0602846BDE8F08170B505460E460DB131
:10296000012000E0002050B900BF502080F3118802
:10297000BFF34F8FBFF36F8F00BF00BFFEE7AE42C4
:1029800001D8012000E0002050B900BF502080F3A2
:102990001188BFF34F8FBFF36F8F00BF00BFFEE7FB
:1029A000022200212846FFF7EDFC044604B1A6638D
:1029B000204670BD2DE9F05F07468A4690461E46C8
:1029C0003C4654B900BF502080F31188BFF34F8FAD
:1029D000BFF36F8F00BF00BFFEE7BAF1000F01D158
:1029E000206C08B9012000E0002050B900BF502041
:1029F00080F31188BFF34F8FBFF36F8F00BF00BF0D
:102A0000FEE7022E02D1E06B012801D1012000E097
:102A1000002050B900BF502080F31188BFF34F8FC2
:102A2000BFF36F8F00BF00BFFEE7FFF75DFB00BF86
:102A30005021EFF3118081F31188BFF34F8FBFF363
:102A40006F8F00BF0546A06BE16B884201D3022E59
:102A500023D194F945B0324651462046FFF70DFD8B
:102A60000BF1010088B9606A08B9012000E000207C
:102A700080B904F1240001F06BFB58B1B8F1000FEC
:102A800008D00120C8F8000004E00BF1010040B2BA
:102A900084F845004FF0010901E04FF0000900BF44
:102AA00085F3118800BF4846BDE8F09F2DE9F04747
:102AB00006460F46344654B900BF502080F31188B3
:102AC000BFF34F8FBFF36F8F00BF00BFFEE7206CD7
:102AD00008B9012000E0002050B900BF502080F369
:102AE0001188BFF34F8FBFF36F8F00BF00BFFEE7AA
:102AF000206808B9A06808B9012000E0002050B99A
:102B000000BF502080F31188BFF34F8FBFF36F8F4A
:102B100000BF00BFFEE7FFF7E7FA00BF5021EFF369
:102B2000118081F31188BFF34F8FBFF36F8F00BF08
:102B30000546D4F83890E06B48451ED994F945A075
:102B400009F10100A0630AF1010070B9606A08B9D7
:102B5000012000E0002068B904F1240001F0F8FA37
:102B600040B13FB10120386004E00AF1010040B2F9
:102B700084F845004FF0010801E04FF0000800BF65
:102B800085F3118800BF4046BDE8F08770B5044664
:102B90000D46206C70B1216CE0680144E160D4E91D
:102BA0000210884201D32168E1602846226CE16866
:102BB000FDF7A9FB70BD2DE9F74183B005460E4630
:102BC0004FF000082C466CB900BF502080F31188EC
:102BD000BFF34F8FBFF36F8F00BF00BFFEE7000052
:102BE00004ED00E00EB9206C08B9012000E00020DF
:102BF00050B900BF502080F31188BFF34F8FBFF34F
:102C00006F8F00BF00BFFEE701F0B7FB08B9059862
:102C100008B9012000E0002050B900BF502080F327
:102C20001188BFF34F8FBFF36F8F00BF00BFFEE768
:102C300000BFFFF705FAA76BF7B131462046FFF753
:102C4000A5FF781EA063206908B9012000E00020DC
:102C500060B904F1100001F07BFA38B14FF08050F8
:102C6000FA490860BFF34F8FBFF36F8FFFF712FA77
:102C7000012006B0BDE8F081059818B9FFF70AFAFF
:102C80000020F6E7B8F1000F04D101A801F01AFB0B
:102C90004FF00108FFF7FEF900F076FDFFF7D0F9DD
:102CA00094F94400401C10B9002084F8440094F9C1
:102CB0004500401C10B9002084F84500FFF7EAF9F0
:102CC00005A901A801F005FBF0B92046FFF737FD83
:102CD000A0B104F12400059901F0D0F92046FFF7D6
:102CE0007EFB00F0A3FC0028A3D14FF08050D74911
:102CF0000860BFF34F8FBFF36F8F9AE72046FFF74F
:102D00006EFB00F093FC94E72046FFF768FB00F0B1
:102D10008DFC2046FFF713FD00288AD00020A8E78D
:102D20002DE9F74382B005460E464FF000082C46C9
:102D300054B900BF502080F31188BFF34F8FBFF309
:102D40006F8F00BF00BFFEE70EB9206C08B90120ED
:102D500000E0002050B900BF502080F31188BFF37D
:102D60004F8FBFF36F8F00BF00BFFEE701F005FB81
:102D700008B9049808B9012000E0002050B900BF4C
:102D8000502080F31188BFF34F8FBFF36F8F00BFC8
:102D900000BFFEE700BFFFF753F9D4F83890B9F150
:102DA000000F1ED0E76831462046FFF7EFFEE760D0
:102DB000606A08B9012000E0002060B904F1240035
:102DC00001F0C6F938B14FF08050A0490860BFF358
:102DD0004F8FBFF36F8FFFF75DF9012005B0BDE89E
:102DE000F083049818B9FFF755F90020F6E7B8F119
:102DF000000F04D1684601F065FA4FF00108FFF7B3
:102E000049F900F0C1FCFFF71BF994F94400401C9C
:102E100010B9002084F8440094F94500401C10B912
:102E2000002084F84500FFF735F904A9684601F051
:102E300050FAF0B92046FFF782FCA0B104F124005B
:102E4000049901F01BF92046FFF7C9FA00F0EEFBE8
:102E50000028A0D14FF080507C490860BFF34F8F0D
:102E6000BFF36F8F97E72046FFF7B9FA00F0DEFB5C
:102E700091E72046FFF7B3FA00F0D8FB2046FFF7B2
:102E80005EFC002887D00020A8E72DE9F05F064609
:102E900089461746344654B900BF502080F3118844
:102EA000BFF34F8FBFF36F8F00BF00BFFEE7B9F1D5
:102EB000000F01D1206C08B9012000E0002050B9BA
:102EC00000BF502080F31188BFF34F8FBFF36F8F87
:102ED00000BF00BFFEE7FFF707F900BF5021EFF387
:102EE000118081F31188BFF34F8FBFF36F8F00BF45
:102EF0000546D4F838A0BAF1000F22D094F944B0B6
:102F000049462046FFF742FEAAF10100A0630BF1FB
:102F1000010070B9206908B9012000E0002068B9FB
:102F200004F1100001F014F940B13FB10120386004
:102F300004E00BF1010040B284F844004FF00108B6
:102F400001E04FF0000800BF85F3118800BF404644
:102F5000BDE8F09F2DE9F04706468846344654B94F
:102F600000BF502080F31188BFF34F8FBFF36F8FE6
:102F700000BF00BFFEE7B8F1000F01D1206C08B917
:102F8000012000E0002050B900BF502080F31188DC
:102F9000BFF34F8FBFF36F8F00BF00BFFEE7206C02
:102FA00008B1012000E0002050B900BF502080F39C
:102FB0001188BFF34F8FBFF36F8F00BF00BFFEE7D5
:102FC000FFF792F800BF5021EFF3118081F31188D1
:102FD000BFF34F8FBFF36F8F00BF0546A06B48B1A3
:102FE000D4F80C9041462046FFF7D0FDC4F80C9071
:102FF000012700E0002700BF85F3118800BF384695
:10300000BDE8F08770B5044654B900BF502080F386
:103010001188BFF34F8FBFF36F8F00BF00BFFEE774
:10302000FFF70EF8A56BFFF735F8284670BD70B5B1
:103030000446254665B900BF502080F31188BFF3D0
:103040004F8FBFF36F8F00BF00BFFEE704ED00E0BE
:10305000FEF7F6FFD5E90E10461AFFF71BF83046CB
:1030600070BD10B501460A4652B900BF502383F324
:103070001188BFF34F8FBFF36F8F00BF00BFFEE714
:10308000906B10BD014600200EE0544A02EBC002D6
:1030900052688A4207D10022504B43F8302003EB9C
:1030A000C0035A6002E0401C0828EED300BF7047FE
:1030B00070B50446254655B900BF502080F31188ED
:1030C000BFF34F8FBFF36F8F00BF00BFFEE72846EF
:1030D000FFF7D8FF284602F0C7F870BD0146886C9C
:1030E000704781647047014691F84C00704710B5F5
:1030F00001460A4652B900BF502383F31188BFF33B
:103100004F8FBFF36F8F00BF00BFFEE7936B0BB90C
:10311000012000E0002010BD10B501460A4652B95A
:1031200000BF502383F31188BFF34F8FBFF36F8F1E
:1031300000BF00BFFEE7936BD46BA34201D1012017
:1031400000E0002010BD024600200BE0234B53F8A6
:10315000303033B9214B43F8301003EBC0035A60D1
:1031600002E0401C0828F1D300BF7047024600204F
:1031700000210AE0194B03EBC1035B68934203D1C2
:10318000164B53F8310002E0491C0829F2D300BF66
:1031900070472DE9F04105460E4617462C46FEF7CE
:1031A0004FFF94F94400401C10B9002084F84400FB
:1031B00094F94500401C10B9002084F84500FEF742
:1031C00069FFA06B28B93A46314604F1240000F0AB
:1031D000A1FF2046FFF703F9BDE8F0813C00002085
:1031E00010B5002407E004EB8401FB4A02EB8100E8
:1031F000FEF7D8FE641C052CF5D3F848FEF7D2FE86
:10320000F748FEF7CFFEF748FEF7CCFEF648FEF78C
:10321000C9FEF648FEF7C6FEF048F5490860F048DA
:10322000F449086010BD10B50446FEF709FFF248E6
:103230000068401CF0490860F048006840B9EF4859
:1032400004600846006801280DD1FFF7C9FF0AE0B5
:10325000EB48006838B9E9480068C06AE16A88420A
:1032600001D8E6480460E7480068401CE54908606A
:1032700008460068206494F82C1001208840E24938
:1032800009680843E0490860E16A01EB8101D24A1C
:1032900002EB8100211DFEF7AFFEFEF7FBFED848D2
:1032A000006868B1D5480068C06AE16A884207D200
:1032B0004FF08050D5490860BFF34F8FBFF36F8F39
:1032C00010BD2DE9F05F82460E4690469B460A9F50
:1032D0000C9C4FEA8801A522206BFDF726F8A8F187
:1032E0000100216B01EB800929F0070909F00700B3
:1032F00008B9012000E0002050B900BF502080F341
:103300001188BFF34F8FBFF36F8F00BF00BFFEE781
:1033100086B1002507E0715D04F134004155705D10
:1033200000B902E06D1C0A2DF5D300BF00213D203D
:10333000015502E0002084F83400052F00D3042753
:10334000E762A7640020E064201DFEF738FE04F168
:103350001800FEF734FE2461C7F10500A061646225
:103360000020206584F854005A4651464846FEF72E
:10337000EFFD20600B9808B10B980460BDE8F09F4A
:103380002DE9FF4F85B0804689461746DDE912AB2F
:10339000B80001F0D5FE064656B1582001F0D0FE27
:1033A00004460CB1266304E0304601F05DFF00E006
:1033B00000247CB10020CDE900ABCDE902403A46C3
:1033C00049464046089BFFF77CFF2046FFF72BFF4E
:1033D000012501E04FF0FF35284609B0BDE8F08F28
:1033E00010B50446206B01F03FFF204601F03CFF82
:1033F00010BD70B50546FEF723FE15B97F4800687D
:1034000000E028460446201DFEF7B8FD78B9E06AC2
:1034100000EB8000704951F8200040B994F82C105E
:103420000120884078490968814377480160A06A93
:1034300018B104F11800FEF7A1FD72480068401CA5
:10344000704908606D480068844209D1211D6648B2
:10345000FEF7D2FD6E480068401C6D49086009E027
:1034600065480068401E644908602046FFF7B8FFC1
:10347000FEF734FDFEF70EFE61480068E8B15F48D4
:103480000068844219D16348006808B9012000E04F
:10349000002050B900BF502080F31188BFF34F8F38
:1034A000BFF36F8F00BF00BFFEE74FF0805057495A
:1034B0000860BFF34F8FBFF36F8F70BD2DE9F041F0
:1034C0004FF0000853480068002877D15248006840
:1034D000451C5148056015BB45480068006808B99F
:1034E000012000E0002050B900BF502080F3118877
:1034F000BFF34F8FBFF36F8F00BF00BFFEE73C48A5
:1035000007683C4800683A4908603A480760434801
:103510000068401C41490860FEF7E0FC00BF4048DD
:10352000006885423CD300BF31480068006808B994
:10353000012000E0002020B14FF0FF303849086042
:103540002DE02B480068C068C4686668B54202D2A6
:103550003348066023E0201DFEF710FDA06A18B175
:1035600004F11800FEF70AFD94F82C1001208840A1
:1035700025490968084324490860E16A01EB810193
:10358000154A02EB8100211DFEF736FD1B49E06A5A
:103590000968C96A8842C7D34FF00108C4E700BF71
:1035A00016480068C06A00EB80000B4951F8200003
:1035B000012801D94FF0010805E0FFE7194800682C
:1035C000401C184908601848006808B14FF001080D
:1035D0004046BDE8F081000080000020E4000020AB
:1035E000F8000020140100202801002040010020E4
:1035F0000C01002010010020540100207C0000205C
:1036000060010020700100205C01002004ED00E05A
:103610003C0100207C010020580100206C010020AA
:1036200074010020640100206801002070B50024AE
:103630000026FE48006850B900BF502080F3118872
:10364000BFF34F8FBFF36F8F00BF00BFFEE7FEF7E2
:10365000F7FCF6480068401EF44908600846006818
:1036600000284FD1F248006800284BD024E0F148F0
:10367000C068C46804F11800FEF780FC201DFEF746
:103680007DFC94F82C1001208840EB490968084320
:10369000E9490860E16A01EB8101E84A02EB810037
:1036A000211DFEF7A9FCE649E06A0968C96A88425B
:1036B00002D30120E3490860DE48006808B9012010
:1036C00000E000200028D2D00CB1FEF707FCDE4855
:1036D000056865B100BFFFF7F1FE10B10120D949BF
:1036E00008606D1E002DF6D10020D7490860D5482E
:1036F000006838B101263007D4490860BFF34F8F06
:10370000BFF36F8FFEF7C6FC304670BD2DE9F04168
:1037100005460E46CE480768C9480068001DFEF7FA
:103720002DFC50B9C648006890F82C100120884044
:10373000C14909688143C0480160681C38B936B185
:10374000BF480168091DC348FEF756FC1AE07C1902
:10375000BB4800684460BC4207D2B9480168091DF3
:10376000BD480068FEF72EFC0CE0B5480168091D55
:10377000BA480068FEF726FCB9480068844201D2C6
:10378000B7480460BDE8F081A8480068401CA7491C
:10379000086070472DE9F04704460F464FF00009D6
:1037A00054B900BF502080F31188BFF34F8FBFF38F
:1037B0006F8F00BF00BFFEE70FB1012000E00020C7
:1037C00050B900BF502080F31188BFF34F8FBFF373
:1037D0006F8F00BF00BFFEE79448006808B9012062
:1037E00000E0002050B900BF502080F31188BFF3E3
:1037F0004F8FBFF36F8F00BF00BFFEE7FFF7C4FF1F
:10380000934806682068C5192068B04207D9206827
:10381000A8420BD9B54209D94FF0010906E020684A
:10382000A84201D8B54201D94FF001092560B9F18C
:10383000000F03D0A81B0021FFF768FFFFF7F6FE7B
:103840008046B8F1000F07D14FF080507F490860E3
:10385000BFF34F8FBFF36F8FBDE8F08770B504469D
:103860000025D4B17148006808B9012000E00020AB
:1038700050B900BF502080F31188BFF34F8FBFF3C2
:103880006F8F00BF00BFFEE7FFF77EFF00212046DD
:10389000FFF73CFFFFF7CAFE05463DB94FF08050E9
:1038A0006A490860BFF34F8FBFF36F8F70BD2DE97A
:1038B000F04707463E4656B900BF502080F31188B6
:1038C000BFF34F8FBFF36F8F00BF00BFFEE75C48B1
:1038D0000068864201D1002426E0FEF7B1FB75693D
:1038E0005E48D0F800805C48D0F80090FEF7D2FB2C
:1038F000454501D04D4501D1022415E0554885428A
:103900000BD1B06A38B996F85400012801D10224CD
:103910000AE0032408E0022406E05248854200D071
:103920000DB9042400E001242046BDE8F08770B5FD
:103930000446FEF785FB14B94148006800E02046C4
:103940000646F56AFEF7A6FB284670BD2DE9F04154
:103950000546FEF7C9FB00BF5021EFF3118081F34C
:103960001188BFF34F8FBFF36F8F00BF044615B9A7
:103970003348006800E028460746FE6A00BF84F32B
:10398000118800BF3046BDE8F0812DE9F047804640
:103990000D464FF00009052D01D2012000E0002066
:1039A00050B900BF502080F31188BFF34F8FBFF391
:1039B0006F8F00BF00BFFEE7052D00D30425FEF783
:1039C0003FFBB8F1000F02D11D48006800E04046FF
:1039D0000446A66CAE4275D0B5420BD918480068B3
:1039E00084420DD016480068C06AA84208D84FF03B
:1039F000010905E012480068844201D14FF0010935
:103A0000E76AE16AA06C884200D1E562A564A0691A
:103A100000F0004010B9C5F10500A06107EB870177
:103A2000064A02EB8101606988421DE07C010020AA
:103A300054010020140100205C01002080000020BF
:103A40007C000020680100206401002004ED00E0FB
:103A50005801002040010020100100200C0100202E
:103A6000740100202801002001D1012000E0002085
:103A7000E0B1201DFEF782FA30B90120B840F749C5
:103A800009688143F548016094F82C1001208840B2
:103A9000F24909680843F1490860E16A01EB8101D4
:103AA000EF4A02EB8100211DFEF7A6FAB9F1000FE3
:103AB00007D04FF08050EB490860BFF34F8FBFF342
:103AC0006F8F00BFFEF7E6FABDE8F087E6480068B2
:103AD00018B10120E549086032E00020E3490860A0
:103AE000DE480068B0FA80F0C0F11F0101EB8100F0
:103AF000DB4A52F8200008B1012000E0002050B954
:103B000000BF502080F31188BFF34F8FBFF36F8F3A
:103B100000BF00BFFEE701EB8102D14B03EB820047
:103B200042685268426000F108024368934202D141
:103B30004268526842604268D268CD4B1A6000BF4A
:103B4000704770B50546FEF77BFA15B9C84800689E
:103B500000E028460446201DFEF710FA78B9E06A16
:103B600000EB8000BE4951F8200040B994F82C10B9
:103B700001208840B94909688143B8480160A06ABA
:103B800018B104F11800FEF7F9F9211DB948FEF744
:103B900033FA94F85400012802D1002084F854002C
:103BA000FEF778FAB448006828B1FEF749FAFEF744
:103BB00095F9FEF76FFAAE480068844229D1AE4805
:103BC0000068D0B1A848006808B9012000E00020D2
:103BD00050B900BF502080F31188BFF34F8FBFF35F
:103BE0006F8F00BF00BFFEE74FF080509D49086017
:103BF000BFF34F8FBFF36F8F0BE09E4800689F4964
:103C00000968884203D100209949086001E0FFF764
:103C10005DFF70BD10B502460020114652B900BFCD
:103C2000502383F31188BFF34F8FBFF36F8F00BF13
:103C300000BFFEE78F4C4B69A34201D1012300E096
:103C4000002373B18E4C8B6AA34201D1012300E0A3
:103C5000002333B98B6A0BB9012300E0002303B1C1
:103C6000012010BD70B505462C4655B900BF502047
:103C700080F31188BFF34F8FBFF36F8F00BF00BF7A
:103C8000FEE77B48006884422BD054B3FEF7D8F996
:103C90002046FFF7BFFF10B3201DFEF76FF994F821
:103CA0002C10012088406D49096808436B49086061
:103CB000E16A01EB81016A4A02EB8100211DFEF7F6
:103CC0009BF96B49E06A0968C96A884207D34FF0DB
:103CD000805064490860BFF34F8FBFF36F8FFEF7CA
:103CE000D9F970BD2DE9F04106460027344656B992
:103CF00000BF502080F31188BFF34F8FBFF36F8F49
:103D000000BF00BFFEE7FEF7EFF900BF5021EFF361
:103D1000118081F31188BFF34F8FBFF36F8F00BF06
:103D200005462046FFF776FF20B34F480068E0B90C
:103D30004F49E06A0968C96A884200D30127201DFB
:103D4000FEF71CF994F82C100120884043490968BB
:103D5000084342490860E16A01EB8101404A02EBF5
:103D60008100211DFEF748F904E004F118014448E0
:103D7000FEF742F900BF85F3118800BF3846BDE861
:103D8000F08110B516E0FEF75BF93E48C068C468E4
:103D9000201DFEF7F3F839480068401E37490860D7
:103DA00039480068401E38490860FEF773F920461C
:103DB000FFF716FB344800680028E4D110BD1CB59D
:103DC00032484FF0004100238222CDE9001030A19B
:103DD0003148FFF7D5FA0446012C02D101F084F8EE
:103DE0000446012C15D100BF502080F31188BFF389
:103DF0004F8FBFF36F8F00BF4FF0FF302749086030
:103E000001201D490860002025490860FEF7A8F937
:103E100010E0601C08B1012000E0002050B900BF94
:103E2000502080F31188BFF34F8FBFF36F8F00BF17
:103E300000BFFEE71CBD10B500BF502080F3118805
:103E4000BFF34F8FBFF36F8F00BF00200A49086098
:103E5000FEF7DEF810BD1249086870475C010020CB
:103E60008000002004ED00E07C01002068010020BB
:103E70007C0000204001002060010020540100204F
:103E800014010020280100203C01002078010020BE
:103E900049444C45000000005D1E000874010020EC
:103EA0005801002070B5FEF71FF90025F848046896
:103EB000204670BDF74800687047014611B9F648C2
:103EC000006800E00846024652B900BF502080F367
:103ED0001188BFF34F8FBFF36F8F00BF00BFFEE7A6
:103EE00002F1340070470246002101E0521C491CD7
:103EF0001078A528FAD0890888B270472DE9F041DA
:103F000007460C4690461E4617B9E348006800E095
:103F100038460546256005F134006060E86A206196
:103F2000286BE061286CA060A86C60610020A06133
:103F3000052E12D0D8480068854202D10020207397
:103F40000FE02673032E0CD1FFF71EFCA86A08B100
:103F500002202073FFF76AFB03E02846FFF7A7FC67
:103F60002073B8F1000F04D0286BFFF7BCFF20844A
:103F700001E000202084BDE8F0812DE9F0470746EC
:103F80000C4690460026206848B3204641684968A0
:103F9000416000F1080142688A4202D141684968E3
:103FA00041604168D1F80C9000BF204641684968E3
:103FB000416000F1080142688A4202D141684968C3
:103FC00041604168CD6806EBC60007EB80014346BF
:103FD00001222846FFF792FF761C4D45E5D1304679
:103FE000BDE8F0872DE9F0410546884616460024D5
:103FF0000527FFF7C9FBA7480068804539D300BFF4
:104000007F1E07EB8702A54B03EB820104EBC40282
:1040100005EB82000122FFF7B0FF0444002FEFD12F
:1040200004EBC40105EB810002229D490968FFF7FA
:10403000A4FF044404EBC40105EB8100022299496A
:104040000968FFF79AFF044404EBC40105EB810003
:1040500004229549FFF791FF044404EBC40105EBEA
:10406000810003229149FFF788FF04440EB100202C
:104070003060FFF7DBFA2046BDE8F08170B50446FA
:104080000D4654B900BF502080F31188BFF34F8F05
:10409000BFF36F8F00BF00BFFEE77F480168183194
:1040A0002046FDF78FFF01212846FFF72FFB70BD4B
:1040B00070B504460D46164654B900BF502080F333
:1040C0001188BFF34F8FBFF36F8F00BF00BFFEE7B4
:1040D0007748006808B1012000E0002050B900BF17
:1040E000502080F31188BFF34F8FBFF36F8F00BF55
:1040F00000BFFEE745F000406749096888616648EF
:10410000016818312046FDF777FF01213046FFF79F
:10411000FDFA70BD70B505460E46144655B900BF90
:10412000502080F31188BFF34F8FBFF36F8F00BF14
:1041300000BFFEE75848016818312846FDF75CFFCC
:104140000CB14FF0FF3621463046FFF7DFFA70BD65
:1041500070B50646F068C46854B900BF502080F3BB
:104160001188BFF34F8FBFF36F8F00BF00BFFEE713
:1041700004F11800FDF702FF4D480068A8B9201DA2
:10418000FDF7FCFE94F82C1001208840494909688D
:10419000084348490860E16A01EB81013F4A02EBAC
:1041A0008100211DFDF728FF04E004F118014248B9
:1041B000FDF722FF3849E06A0968C96A884204D9D4
:1041C000012501203D49086000E00025284670BD1A
:1041D00070B505460E463648006808B1012000E07B
:1041E000002050B900BF502080F31188BFF34F8FDB
:1041F000BFF36F8F00BF00BFFEE746F000402860AE
:10420000EC6854B900BF502080F31188BFF34F8F82
:10421000BFF36F8F00BF00BFFEE72846FDF7AEFE7D
:10422000201DFDF7ABFE94F82C1001208840214999
:10423000096808431F490860E16A01EB8101174AD8
:1042400002EB8100211DFDF7D7FE1349E06A0968E2
:10425000C96A884202D901201849086070BD10B5AA
:10426000044654B900BF502080F31188BFF34F8F2C
:10427000BFF36F8F00BF00BFFEE7FDF7E1FE104800
:1042800000682060024800686060FDF703FF10BD11
:1042900058010020540100207C00002080000020F4
:1042A0000C01002010010020280100204001002006
:1042B0007C0100205C010020140100206801002026
:1042C0006C010020FE4909680160FE4909684160EF
:1042D000704770B505460C4655B900BF502080F3B5
:1042E0001188BFF34F8FBFF36F8F00BF00BFFEE792
:1042F00054B900BF502080F31188BFF34F8FBFF334
:104300006F8F00BF00BFFEE7FDF79AFEED48026821
:104310006868131A2068401C08B9002617E0E849AD
:1043200028680968884204D06868904201D801264C
:104330000DE02068984207D92068C01A20602846FE
:10434000FFF7C0FF002602E0002020600126FDF7F5
:10435000A1FE304670BD0120DB4908607047014670
:1043600011B10A46506C00E00020704708B10246C7
:1043700051647047D54908687047D549096809B93B
:10438000012005E0D349096809B9022000E00020B6
:10439000704770B505462C460026002D54D0CB49F9
:1043A000E06A0968C96A884247D2A06900F0004003
:1043B00028B9C6480068C06AC0F10500A061E16A7A
:1043C00001EB8101C44A02EB81016069884201D19D
:1043D000012000E0002050B3201DFDF7CFFD78B98B
:1043E000E06A00EB8000BC4951F8200040B994F825
:1043F0002C1001208840B94909688143B748016001
:10440000B2480068C06AE06294F82C10012088402D
:10441000B24909680843B1490860E16A01EB8101CA
:10442000AD4A02EB8100211DFDF7E6FD03E0A74840
:104430000068C06AE062012606E0A449A06C096831
:10444000C96A884200D20126304670BD70B5054663
:104450002C460026002D55D09C480068844201D18E
:10446000012000E0002050B900BF502080F31188E7
:10447000BFF34F8FBFF36F8F00BF00BFFEE7E06C4D
:1044800050B900BF502080F31188BFF34F8FBFF3A6
:104490006F8F00BF00BFFEE7E06C401EE064A16CC0
:1044A000E06A88422ED0E06C60BB201DFDF766FDFF
:1044B00078B9E06A00EB8000874951F8200040B9E4
:1044C00094F82C100120884084490968814383486E
:1044D0000160A06CE062E06AC0F10500A06194F8A0
:1044E0002C10012088407D49096808437B490860F9
:1044F000E16A01EB8101784A02EB8100211DFDF7A1
:104500007BFD0126304670BD2DE9F04706460F467B
:1045100034464FF00109002E67D0E06C50B900BF5F
:10452000502080F31188BFF34F8FBFF36F8F00BF10
:1045300000BFFEE7A06CB84201D23D4600E0A56C8A
:10454000E06AA84251D0E06C01284ED15F48006873
:10455000844201D0012000E0002050B900BF50206B
:1045600080F31188BFF34F8FBFF36F8F00BF00BF81
:10457000FEE7D4F82C80E562A06900F0004010B995
:10458000C5F10500A06108EB8801534A02EB8101E7
:104590006069884201D1012000E0002028B3201D7D
:1045A000FDF7ECFC78B9E06A00EB80004A4951F86D
:1045B000200040B994F82C10012088404749096830
:1045C00081434648016094F82C10012088404349FB
:1045D0000968084341490860E16A01EB81013E4AEC
:1045E00002EB8100211DFDF707FDBDE8F08737498B
:1045F0000968886935490968C96AC1F10501334A02
:104600001268916170473148006830B12F490968DC
:1046100001F14C00C96C491C01602C4800687047CE
:1046200070B506460D46FDF70BFD28480068006D85
:1046300088B901202549096881F854005DB101213C
:104640002846FFF763F84FF0805025490860BFF314
:104650004F8FBFF36F8FFDF71DFDFDF7F1FC1B487A
:104660000068046D4CB126B100201849096808653E
:1046700003E0601E154909680865002013490968B0
:1046800081F85400FDF706FD204670BD2DE9F0418C
:104690000746884614461D46FDF7D2FC0B480068C5
:1046A00090F8540002282CD00849096801F1500004
:1046B000096DB943016001200449096812E0000056
:1046C0006C01002058010020680100207C000020BF
:1046D000600100207C010020800000205C0100209F
:1046E00004ED00E081F854005DB101212846FFF798
:1046F0000DF84FF08050E4490860BFF34F8FBFF3CF
:104700006F8FFDF7C7FCFDF79BFC1CB1DF4800680D
:10471000006D2060DD48006890F85400022801D048
:10472000002608E0D949096801F15000096D21EA25
:104730000801016001260020D449096881F854006D
:10474000FDF7A8FC3046BDE8F0812DE9F0470646AC
:104750000D46174698464FF0010A56B900BF502043
:1047600080F31188BFF34F8FBFF36F8F00BF00BF7F
:10477000FEE73446FDF764FCB8F1000F02D0206D6F
:10478000C8F8000094F85490022084F85400052FD3
:1047900017D2DFE807F01503070B0D00206D284343
:1047A000206521E0206D401C20651DE025651BE093
:1047B000B9F1020F01D0256501E04FF0000A13E0C6
:1047C00012E0206D401C08B9012000E0002050B923
:1047D00000BF502080F31188BFF34F8FBFF36F8F5E
:1047E00000BF00BFFEE700BF00BFB9F1010F33D12A
:1047F000201DFDF7C3FB94F82C1001208840A4492C
:1048000009680843A2490860E16A01EB8101A14AF5
:1048100002EB8100211DFDF7EFFBA06A08B9012022
:1048200000E0002050B900BF502080F31188BFF392
:104830004F8FBFF36F8F00BF00BFFEE79349E06A61
:104840000968C96A884207D94FF080508E490860CC
:10485000BFF34F8FBFF36F8FFDF71CFC5046BDE8D1
:10486000F0872DE9F84F07460E4690469946DDF849
:1048700028B00120009057B900BF502080F3118864
:10488000BFF34F8FBFF36F8F00BF00BFFEE7FDF791
:104890002BFC3C4600BF5021EFF3118081F31188BF
:1048A000BFF34F8FBFF36F8F00BF0546B9F1000F05
:1048B00002D0206DC9F8000094F854A0022084F8BA
:1048C0005400B8F1050F17D2DFE808F01503070B05
:1048D0000D00206D3043206521E0206D401C2065D7
:1048E0001DE026651BE0BAF1020F01D0266501E04C
:1048F0000020009013E012E0206D401C08B9012058
:1049000000E0002050B900BF502080F31188BFF3B1
:104910004F8FBFF36F8F00BF00BFFEE700BF00BF28
:10492000BAF1010F3DD1A06A08B9012000E00020D2
:1049300050B900BF502080F31188BFF34F8FBFF3F1
:104940006F8F00BF00BFFEE753480068A8B9201D65
:10495000FDF714FB94F82C10012088404C4909689D
:1049600008434B490860E16A01EB8101494A02EBC7
:104970008100211DFDF740FB04E004F118014748C8
:10498000FDF73AFB4149E06A0968C96A884208D9DB
:10499000BBF1000F02D00120CBF8000001204049FC
:1049A000086000BF85F3118800BF0098BDE8F88F4C
:1049B0002DE9F04105460F4655B900BF502080F360
:1049C0001188BFF34F8FBFF36F8F00BF00BFFEE7AB
:1049D000FDF78AFB2C4600BF5021EFF3118081F3D5
:1049E0001188BFF34F8FBFF36F8F00BF064694F857
:1049F0005480022084F85400206D401C2065B8F1DA
:104A0000010F3AD1A06A08B9012000E0002050B996
:104A100000BF502080F31188BFF34F8FBFF36F8F1B
:104A200000BF00BFFEE71C480068A8B9201DFDF7C5
:104A3000A5FA94F82C10012088401549096808430C
:104A400013490860E16A01EB8101124A02EB81001F
:104A5000211DFDF7D1FA04E004F118010F48FDF71C
:104A6000CBFA0A49E06A0968C96A884205D90FB1D8
:104A70000120386001200A49086000BF86F31188D0
:104A800000BFBDE8F081000004ED00E07C000020E4
:104A90005C010020800000207C0100201401002027
:104AA000680100202DE9F04104460D4616461F46D8
:104AB0004FF0000865602461B5420CD8F01BA16975
:104AC000884202D34FF0010811E0211DFD48006823
:104AD000FDF778FA0BE0BE4204D2BD4202D34FF09C
:104AE000010804E0211DF8480068FDF76BFA404614
:104AF000BDE8F0812DE9FE4304460D4616461F46EB
:104B0000DDF828804FF0000954B900BF502080F331
:104B10001188BFF34F8FBFF36F8F00BF00BFFEE759
:104B2000EA48006810B3009501960294062D15DA44
:104B3000FFF723FC022808D1002342466946E348D8
:104B40000068FDF7D9FC814610E000231A4669464B
:104B5000DE480068FDF7D0FC814607E000233A46B6
:104B60006946DA480068FDF725FF81464846BDE8FA
:104B7000FE832DE9F84334E0D3480068C068056837
:104B8000D1480068C068C468201DFDF7F7F92046C9
:104B9000216A884794F8280000F0040008B3A0694F
:104BA0004619AE4207D966602461211DC6480068D7
:104BB000FDF708FA15E0002003462A46014600905A
:104BC0002046FFF797FF074657B900BF502080F3F4
:104BD0001188BFF34F8FBFF36F8F00BF00BFFEE799
:104BE00000BFB9480068006808B9012000E0002053
:104BF0000028C1D0B448D0F80080B2480068B2495B
:104C00000860B048C0F80080BDE8F88370B504467D
:104C1000FFF721F90546AE480068854204D2FFF748
:104C2000A8FF0120206001E000202060A848056066
:104C3000284670BD70B586B08BE003980028FBDB7A
:104C4000059C606908B9012000E0002010B9201D12
:104C5000FDF794F902A8FFF7D9FF054603980A2843
:104C600075D2DFE800F009050739416306083A42CA
:104C700000BF00BF00BF00BF94F8280040F0010053
:104C800084F828000498A269811803462A46204621
:104C9000FFF708FFF8B12046216A884794F82800FA
:104CA00000F00400B8B1002000900498A1694218F7
:104CB000002319462046FFF71DFF064656B900BFE0
:104CC000502080F31188BFF34F8FBFF36F8F00BF69
:104CD00000BFFEE700BF3BE000BF94F8280020F0D3
:104CE000010084F8280033E000BF94F8280040F069
:104CF000010084F828000498A061A06908B101208F
:104D000000E0002050B900BF502080F31188BFF3AD
:104D10004F8FBFF36F8F00BF00BFFEE7A06941193F
:104D20002B462A462046FFF7BDFE11E094F82800E6
:104D300000F0020018B9204600F096FA05E094F859
:104D4000280020F0010084F8280001E0FFE700BF00
:104D500000BF002203A95D480068FDF72CFF002872
:104D60007FF46BAF06B070BDF8B505460F465648E8
:104D70000068C068C468201DFDF700F994F8280099
:104D800000F00400E8B1A06941192B463A462046DC
:104D9000FFF788FED8B1002003462A46014600905E
:104DA0002046FFF7A7FE064656B900BF502080F305
:104DB0001188BFF34F8FBFF36F8F00BF00BFFEE7B7
:104DC00005E094F8280020F0010084F8280020462F
:104DD000216A8847F8BDF8B505460C46FEF7D4FCB5
:104DE0006846FFF713FF0646009820BB44B9B5425A
:104DF00006D8FEF71BFC31462846FFF7B5FF1CE03E
:104E00003CB130480068006808B9012000E000208B
:104E10000446A91B22462D480068FEF7BAF9FEF7A2
:104E200005FC50B94FF080502A490860BFF34F8FFE
:104E3000BFF36F8F01E0FEF7F9FBF8BD0146224A90
:104E4000126812680AB9012200E000220A600A68AA
:104E500022B91D4A1268D268106800E0002070472D
:104E600008B500BF6846FFF7E9FF044620460099F1
:104E7000FFF7B1FFFFF7DEFEF4E710B5FDF7E0F84E
:104E800012480068D0B91448FDF78CF81348FDF7B4
:104E900089F811480C49086010480A490860002246
:104EA0000C210A20FDF76EFA0849086008460068E0
:104EB00020B10BA105480068FEF745F9FDF7EAF8B7
:104EC00010BD0000AC010020A8010020B0010020AE
:104ED000B801002004ED00E08001002094010020D2
:104EE000546D7251000000001CB50024FFF7C5FF8F
:104EF0008D48006858B18D488D4900234FF4827267
:104F0000CDE900108BA18D48FEF73AFA044654B95A
:104F100000BF502080F31188BFF34F8FBFF36F8F16
:104F200000BF00BFFEE720461CBD2DE9F047064646
:104F30000D4617469846DDE908940DB1012000E0C2
:104F4000002050B900BF502080F31188BFF34F8F6D
:104F5000BFF36F8F00BF00BFFEE78CB1FFF78DFF7F
:104F60002660A561C4F81C80C4F82090201DFDF7C0
:104F700026F82FB194F8280040F0040084F82800A7
:104F8000BDE8F0872DE9FC4705460E4617469846D2
:104F9000DDF828902C2000F0D3F8044654B100200E
:104FA00084F8280043463A4631462846CDE9009425
:104FB000FFF7BBFF2046BDE8FC875C48006808B1EE
:104FC000012000E0002050B900BF502080F311887C
:104FD000BFF34F8FBFF36F8F00BF00BFFEE7534893
:104FE0000068704701460A4651B900BF502080F35F
:104FF0001188BFF34F8FBFF36F8F00BF00BFFEE775
:105000009069704770B505460E462C4655B900BFED
:10501000502080F31188BFF34F8FBFF36F8F00BF15
:1050200000BFFEE7FDF70CF836B194F8280040F019
:10503000040084F8280005E094F8280020F004001B
:1050400084F82800FDF726F870BD10B501460A4621
:1050500051B900BF502383F31188BFF34F8FBFF3C3
:105060006F8F00BF00BFFEE7506810BD01460A46C3
:1050700051B900BF502080F31188BFF34F8FBFF3A9
:105080006F8F00BF00BFFEE71068704770B5044621
:10509000264654B900BF502080F31188BFF34F8FCC
:1050A000BFF36F8F00BF00BFFEE7FCF7C9FF96F8A4
:1050B000280000F0010008B9002500E00125FCF7F8
:1050C000E9FF284670BD70B50446254654B900BFB7
:1050D000502080F31188BFF34F8FBFF36F8F00BF55
:1050E00000BFFEE7FCF7ACFFEE69FCF7D3FF3046EC
:1050F00070BD70B504460D46264654B900BF502019
:1051000080F31188BFF34F8FBFF36F8F00BF00BFD5
:10511000FEE7FCF795FFF561FCF7BCFF70BD0146AB
:10512000486A704741627047B0010020B401002016
:1051300002000080546D722053766300614E0008B7
:105140002DE9F04104464FF00008FEF71DFB6D48C5
:10515000006808B9FCF744FE6B480068204000284E
:105160006BD1D4B1083404F00700B0B104F00700EB
:10517000C0F10800044404F0070008B9012000E071
:10518000002050B900BF502080F31188BFF34F8F2B
:10519000BFF36F8F00BF00BFFEE7002C4DD05B4810
:1051A0000068844249D85A4E3046056801E02E46D0
:1051B0002D686868A04202D228680028F7D15148BB
:1051C0000068854239D0306800F1080828683060EE
:1051D0006868001B102819D92F1907F0070008B9B3
:1051E000012000E0002050B900BF502080F311885A
:1051F000BFF34F8FBFF36F8F00BF00BFFEE768683C
:10520000001B78606C603846FCF734FE3F496868E4
:105210000968081A3D490860084600683D49096860
:10522000884203D2394800683A49086036496868BC
:1052300009680843686000202860FEF7F7F908F065
:10524000070008B9012000E0002050B900BF50203D
:1052500080F31188BFF34F8FBFF36F8F00BF00BF84
:10526000FEE74046BDE8F08170B506463546002EA3
:105270003FD0083D2C46244960680968084008B1C1
:10528000012000E0002050B900BF502080F31188B9
:10529000BFF34F8FBFF36F8F00BF00BFFEE72068E3
:1052A00008B9012000E0002050B900BF502080F371
:1052B0001188BFF34F8FBFF36F8F00BF00BFFEE7B2
:1052C000114960680968084098B1206888B90E499A
:1052D0006068096888436060FEF756FA0B496068A9
:1052E00009680844094908602046FCF7C3FDFEF739
:1052F0009DF970BD05480068704706480068704712
:1053000070470000200000202C0000202400002016
:1053100018000020280000200020024000010000AA
:105320000008024000200000001C024010000000A5
:1053300000180240040000000014024000040000B5
:105340000018024008000000001802408000000021
:1053500000200240000800000000000000000000E3
:10536000010203040607080900000000010203040B
:105370009053000800000020BC010000B0030008AA
:10538000A0530008BC0100201C390100481B000884
:105390008132104201031D24F41AAA0101FF018980
:04000005080001AD41
:00000001FF
